{
  "contractName": "ContractNFTHandler",
  "abi": [
    {
      "inputs": [
        {
          "internalType": "string",
          "name": "_name",
          "type": "string"
        },
        {
          "internalType": "string",
          "name": "_symbol",
          "type": "string"
        }
      ],
      "stateMutability": "nonpayable",
      "type": "constructor"
    },
    {
      "anonymous": false,
      "inputs": [
        {
          "indexed": true,
          "internalType": "address",
          "name": "owner",
          "type": "address"
        },
        {
          "indexed": true,
          "internalType": "address",
          "name": "approved",
          "type": "address"
        },
        {
          "indexed": true,
          "internalType": "uint256",
          "name": "tokenId",
          "type": "uint256"
        }
      ],
      "name": "Approval",
      "type": "event"
    },
    {
      "anonymous": false,
      "inputs": [
        {
          "indexed": true,
          "internalType": "address",
          "name": "owner",
          "type": "address"
        },
        {
          "indexed": true,
          "internalType": "address",
          "name": "operator",
          "type": "address"
        },
        {
          "indexed": false,
          "internalType": "bool",
          "name": "approved",
          "type": "bool"
        }
      ],
      "name": "ApprovalForAll",
      "type": "event"
    },
    {
      "anonymous": false,
      "inputs": [
        {
          "indexed": true,
          "internalType": "address",
          "name": "from",
          "type": "address"
        },
        {
          "indexed": true,
          "internalType": "address",
          "name": "to",
          "type": "address"
        },
        {
          "indexed": true,
          "internalType": "uint256",
          "name": "tokenId",
          "type": "uint256"
        }
      ],
      "name": "Transfer",
      "type": "event"
    },
    {
      "inputs": [
        {
          "internalType": "uint256",
          "name": "",
          "type": "uint256"
        }
      ],
      "name": "_forSale",
      "outputs": [
        {
          "internalType": "bool",
          "name": "",
          "type": "bool"
        }
      ],
      "stateMutability": "view",
      "type": "function"
    },
    {
      "inputs": [
        {
          "internalType": "address",
          "name": "",
          "type": "address"
        }
      ],
      "name": "_tokenAddressToId",
      "outputs": [
        {
          "internalType": "uint256",
          "name": "",
          "type": "uint256"
        }
      ],
      "stateMutability": "view",
      "type": "function"
    },
    {
      "inputs": [
        {
          "internalType": "uint256",
          "name": "",
          "type": "uint256"
        }
      ],
      "name": "_tokenIdtoAdderss",
      "outputs": [
        {
          "internalType": "address",
          "name": "",
          "type": "address"
        }
      ],
      "stateMutability": "view",
      "type": "function"
    },
    {
      "inputs": [
        {
          "internalType": "uint256",
          "name": "",
          "type": "uint256"
        }
      ],
      "name": "_tokenPrices",
      "outputs": [
        {
          "internalType": "uint256",
          "name": "",
          "type": "uint256"
        }
      ],
      "stateMutability": "view",
      "type": "function"
    },
    {
      "inputs": [
        {
          "internalType": "address",
          "name": "to",
          "type": "address"
        },
        {
          "internalType": "uint256",
          "name": "tokenId",
          "type": "uint256"
        }
      ],
      "name": "approve",
      "outputs": [],
      "stateMutability": "nonpayable",
      "type": "function"
    },
    {
      "inputs": [
        {
          "internalType": "address",
          "name": "owner",
          "type": "address"
        }
      ],
      "name": "balanceOf",
      "outputs": [
        {
          "internalType": "uint256",
          "name": "",
          "type": "uint256"
        }
      ],
      "stateMutability": "view",
      "type": "function"
    },
    {
      "inputs": [
        {
          "internalType": "uint256",
          "name": "tokenId",
          "type": "uint256"
        }
      ],
      "name": "getApproved",
      "outputs": [
        {
          "internalType": "address",
          "name": "",
          "type": "address"
        }
      ],
      "stateMutability": "view",
      "type": "function"
    },
    {
      "inputs": [
        {
          "internalType": "address",
          "name": "owner",
          "type": "address"
        },
        {
          "internalType": "address",
          "name": "operator",
          "type": "address"
        }
      ],
      "name": "isApprovedForAll",
      "outputs": [
        {
          "internalType": "bool",
          "name": "",
          "type": "bool"
        }
      ],
      "stateMutability": "view",
      "type": "function"
    },
    {
      "inputs": [],
      "name": "name",
      "outputs": [
        {
          "internalType": "string",
          "name": "",
          "type": "string"
        }
      ],
      "stateMutability": "view",
      "type": "function"
    },
    {
      "inputs": [
        {
          "internalType": "uint256",
          "name": "tokenId",
          "type": "uint256"
        }
      ],
      "name": "ownerOf",
      "outputs": [
        {
          "internalType": "address",
          "name": "",
          "type": "address"
        }
      ],
      "stateMutability": "view",
      "type": "function"
    },
    {
      "inputs": [
        {
          "internalType": "address",
          "name": "operator",
          "type": "address"
        },
        {
          "internalType": "bool",
          "name": "approved",
          "type": "bool"
        }
      ],
      "name": "setApprovalForAll",
      "outputs": [],
      "stateMutability": "nonpayable",
      "type": "function"
    },
    {
      "inputs": [
        {
          "internalType": "bytes4",
          "name": "interfaceId",
          "type": "bytes4"
        }
      ],
      "name": "supportsInterface",
      "outputs": [
        {
          "internalType": "bool",
          "name": "",
          "type": "bool"
        }
      ],
      "stateMutability": "view",
      "type": "function"
    },
    {
      "inputs": [],
      "name": "symbol",
      "outputs": [
        {
          "internalType": "string",
          "name": "",
          "type": "string"
        }
      ],
      "stateMutability": "view",
      "type": "function"
    },
    {
      "inputs": [],
      "name": "tokenCount",
      "outputs": [
        {
          "internalType": "uint256",
          "name": "",
          "type": "uint256"
        }
      ],
      "stateMutability": "view",
      "type": "function"
    },
    {
      "inputs": [
        {
          "internalType": "uint256",
          "name": "tokenId",
          "type": "uint256"
        }
      ],
      "name": "tokenURI",
      "outputs": [
        {
          "internalType": "string",
          "name": "",
          "type": "string"
        }
      ],
      "stateMutability": "view",
      "type": "function"
    },
    {
      "inputs": [
        {
          "internalType": "address",
          "name": "contractAddress",
          "type": "address"
        },
        {
          "internalType": "uint256",
          "name": "price",
          "type": "uint256"
        }
      ],
      "name": "mintContract",
      "outputs": [],
      "stateMutability": "nonpayable",
      "type": "function"
    },
    {
      "inputs": [
        {
          "internalType": "uint256",
          "name": "tokenId",
          "type": "uint256"
        }
      ],
      "name": "burnContract",
      "outputs": [],
      "stateMutability": "nonpayable",
      "type": "function"
    },
    {
      "inputs": [
        {
          "internalType": "uint256",
          "name": "tokenId",
          "type": "uint256"
        },
        {
          "internalType": "uint256",
          "name": "price",
          "type": "uint256"
        }
      ],
      "name": "setPrice",
      "outputs": [],
      "stateMutability": "nonpayable",
      "type": "function"
    },
    {
      "inputs": [
        {
          "internalType": "uint256",
          "name": "tokenId",
          "type": "uint256"
        },
        {
          "internalType": "bool",
          "name": "saleStatus",
          "type": "bool"
        }
      ],
      "name": "setSaleStatus",
      "outputs": [],
      "stateMutability": "nonpayable",
      "type": "function"
    },
    {
      "inputs": [
        {
          "internalType": "uint256",
          "name": "tokenId",
          "type": "uint256"
        },
        {
          "internalType": "address",
          "name": "to",
          "type": "address"
        }
      ],
      "name": "purchaseNFT",
      "outputs": [],
      "stateMutability": "payable",
      "type": "function"
    },
    {
      "inputs": [
        {
          "internalType": "address",
          "name": "from",
          "type": "address"
        },
        {
          "internalType": "address",
          "name": "to",
          "type": "address"
        },
        {
          "internalType": "uint256",
          "name": "tokenId",
          "type": "uint256"
        }
      ],
      "name": "transferFrom",
      "outputs": [],
      "stateMutability": "nonpayable",
      "type": "function"
    },
    {
      "inputs": [
        {
          "internalType": "address",
          "name": "from",
          "type": "address"
        },
        {
          "internalType": "address",
          "name": "to",
          "type": "address"
        },
        {
          "internalType": "uint256",
          "name": "tokenId",
          "type": "uint256"
        }
      ],
      "name": "safeTransferFrom",
      "outputs": [],
      "stateMutability": "nonpayable",
      "type": "function"
    },
    {
      "inputs": [
        {
          "internalType": "address",
          "name": "from",
          "type": "address"
        },
        {
          "internalType": "address",
          "name": "to",
          "type": "address"
        },
        {
          "internalType": "uint256",
          "name": "tokenId",
          "type": "uint256"
        },
        {
          "internalType": "bytes",
          "name": "_data",
          "type": "bytes"
        }
      ],
      "name": "safeTransferFrom",
      "outputs": [],
      "stateMutability": "nonpayable",
      "type": "function"
    },
    {
      "inputs": [],
      "name": "getAllNFTDetails",
      "outputs": [
        {
          "components": [
            {
              "internalType": "uint256",
              "name": "id",
              "type": "uint256"
            },
            {
              "internalType": "uint256",
              "name": "price",
              "type": "uint256"
            },
            {
              "internalType": "bool",
              "name": "onSale",
              "type": "bool"
            },
            {
              "internalType": "address",
              "name": "contractAddress",
              "type": "address"
            },
            {
              "internalType": "address",
              "name": "owner",
              "type": "address"
            }
          ],
          "internalType": "struct ContractNFTHandler.NFT[]",
          "name": "",
          "type": "tuple[]"
        }
      ],
      "stateMutability": "view",
      "type": "function"
    },
    {
      "inputs": [
        {
          "internalType": "uint256",
          "name": "tokenId",
          "type": "uint256"
        }
      ],
      "name": "getNFTDetails",
      "outputs": [
        {
          "components": [
            {
              "internalType": "uint256",
              "name": "id",
              "type": "uint256"
            },
            {
              "internalType": "uint256",
              "name": "price",
              "type": "uint256"
            },
            {
              "internalType": "bool",
              "name": "onSale",
              "type": "bool"
            },
            {
              "internalType": "address",
              "name": "contractAddress",
              "type": "address"
            },
            {
              "internalType": "address",
              "name": "owner",
              "type": "address"
            }
          ],
          "internalType": "struct ContractNFTHandler.NFT",
          "name": "",
          "type": "tuple"
        }
      ],
      "stateMutability": "view",
      "type": "function"
    }
  ],
  "bytecode": "0x60806040523480156200001157600080fd5b5060405162004245380380620042458339818101604052810190620000379190620002ca565b81818160009080519060200190620000519291906200007d565b5080600190805190602001906200006a9291906200007d565b50505060016006819055505050620003b4565b8280546200008b906200037e565b90600052602060002090601f016020900481019282620000af5760008555620000fb565b82601f10620000ca57805160ff1916838001178555620000fb565b82800160010185558215620000fb579182015b82811115620000fa578251825591602001919060010190620000dd565b5b5090506200010a91906200010e565b5090565b5b80821115620001295760008160009055506001016200010f565b5090565b6000604051905090565b600080fd5b600080fd5b600080fd5b600080fd5b6000601f19601f8301169050919050565b7f4e487b7100000000000000000000000000000000000000000000000000000000600052604160045260246000fd5b62000196826200014b565b810181811067ffffffffffffffff82111715620001b857620001b76200015c565b5b80604052505050565b6000620001cd6200012d565b9050620001db82826200018b565b919050565b600067ffffffffffffffff821115620001fe57620001fd6200015c565b5b62000209826200014b565b9050602081019050919050565b60005b838110156200023657808201518184015260208101905062000219565b8381111562000246576000848401525b50505050565b6000620002636200025d84620001e0565b620001c1565b90508281526020810184848401111562000282576200028162000146565b5b6200028f84828562000216565b509392505050565b600082601f830112620002af57620002ae62000141565b5b8151620002c18482602086016200024c565b91505092915050565b60008060408385031215620002e457620002e362000137565b5b600083015167ffffffffffffffff8111156200030557620003046200013c565b5b620003138582860162000297565b925050602083015167ffffffffffffffff8111156200033757620003366200013c565b5b620003458582860162000297565b9150509250929050565b7f4e487b7100000000000000000000000000000000000000000000000000000000600052602260045260246000fd5b600060028204905060018216806200039757607f821691505b60208210811415620003ae57620003ad6200034f565b5b50919050565b613e8180620003c46000396000f3fe6080604052600436106101665760003560e01c806379800836116100d1578063a22cb4651161008a578063b88d4fde11610064578063b88d4fde14610577578063c87b56dd146105a0578063e985e9c5146105dd578063f7d975771461061a57610166565b8063a22cb465146104e8578063aa3b13d014610511578063b54c5c311461054e57610166565b806379800836146103bf5780637a9a26da146103db57806382260f351461041857806394492fcc1461045557806395d89b41146104925780639f181b5e146104bd57610166565b80632ca4fc48116101235780632ca4fc481461029f57806342842e0e146102c857806343e3dbe6146102f157806356c3e31a1461031c5780636352211e1461034557806370a082311461038257610166565b806301ffc9a71461016b57806306fdde03146101a857806307f67ced146101d3578063081812fc14610210578063095ea7b31461024d57806323b872dd14610276575b600080fd5b34801561017757600080fd5b50610192600480360381019061018d919061279f565b610643565b60405161019f91906127e7565b60405180910390f35b3480156101b457600080fd5b506101bd610725565b6040516101ca919061289b565b60405180910390f35b3480156101df57600080fd5b506101fa60048036038101906101f591906128f3565b6107b7565b60405161020791906127e7565b60405180910390f35b34801561021c57600080fd5b50610237600480360381019061023291906128f3565b6107d7565b6040516102449190612961565b60405180910390f35b34801561025957600080fd5b50610274600480360381019061026f91906129a8565b61085c565b005b34801561028257600080fd5b5061029d600480360381019061029891906129e8565b610974565b005b3480156102ab57600080fd5b506102c660048036038101906102c191906128f3565b610a0d565b005b3480156102d457600080fd5b506102ef60048036038101906102ea91906129e8565b610a98565b005b3480156102fd57600080fd5b50610306610b41565b6040516103139190612b7f565b60405180910390f35b34801561032857600080fd5b50610343600480360381019061033e91906129a8565b610cc2565b005b34801561035157600080fd5b5061036c600480360381019061036791906128f3565b611038565b6040516103799190612961565b60405180910390f35b34801561038e57600080fd5b506103a960048036038101906103a49190612ba1565b6110ea565b6040516103b69190612bdd565b60405180910390f35b6103d960048036038101906103d49190612bf8565b6111a2565b005b3480156103e757600080fd5b5061040260048036038101906103fd91906128f3565b61136c565b60405161040f9190612961565b60405180910390f35b34801561042457600080fd5b5061043f600480360381019061043a91906128f3565b61139f565b60405161044c9190612ca0565b60405180910390f35b34801561046157600080fd5b5061047c60048036038101906104779190612ba1565b611477565b6040516104899190612bdd565b60405180910390f35b34801561049e57600080fd5b506104a761148f565b6040516104b4919061289b565b60405180910390f35b3480156104c957600080fd5b506104d2611521565b6040516104df9190612bdd565b60405180910390f35b3480156104f457600080fd5b5061050f600480360381019061050a9190612ce7565b611527565b005b34801561051d57600080fd5b50610538600480360381019061053391906128f3565b6116a8565b6040516105459190612bdd565b60405180910390f35b34801561055a57600080fd5b5061057560048036038101906105709190612d27565b6116c0565b005b34801561058357600080fd5b5061059e60048036038101906105999190612e9c565b611741565b005b3480156105ac57600080fd5b506105c760048036038101906105c291906128f3565b6117dc565b6040516105d4919061289b565b60405180910390f35b3480156105e957600080fd5b5061060460048036038101906105ff9190612f1f565b611883565b60405161061191906127e7565b60405180910390f35b34801561062657600080fd5b50610641600480360381019061063c9190612f5f565b611917565b005b60007f80ac58cd000000000000000000000000000000000000000000000000000000007bffffffffffffffffffffffffffffffffffffffffffffffffffffffff1916827bffffffffffffffffffffffffffffffffffffffffffffffffffffffff1916148061070e57507f5b5e139f000000000000000000000000000000000000000000000000000000007bffffffffffffffffffffffffffffffffffffffffffffffffffffffff1916827bffffffffffffffffffffffffffffffffffffffffffffffffffffffff1916145b8061071e575061071d82611985565b5b9050919050565b60606000805461073490612fce565b80601f016020809104026020016040519081016040528092919081815260200182805461076090612fce565b80156107ad5780601f10610782576101008083540402835291602001916107ad565b820191906000526020600020905b81548152906001019060200180831161079057829003601f168201915b5050505050905090565b600a6020528060005260406000206000915054906101000a900460ff1681565b60006107e2826119ef565b610821576040517f08c379a000000000000000000000000000000000000000000000000000000000815260040161081890613072565b60405180910390fd5b6004600083815260200190815260200160002060009054906101000a900473ffffffffffffffffffffffffffffffffffffffff169050919050565b600061086782611038565b90508073ffffffffffffffffffffffffffffffffffffffff168373ffffffffffffffffffffffffffffffffffffffff1614156108d8576040517f08c379a00000000000000000000000000000000000000000000000000000000081526004016108cf90613104565b60405180910390fd5b8073ffffffffffffffffffffffffffffffffffffffff166108f7611a5b565b73ffffffffffffffffffffffffffffffffffffffff161480610926575061092581610920611a5b565b611883565b5b610965576040517f08c379a000000000000000000000000000000000000000000000000000000000815260040161095c90613196565b60405180910390fd5b61096f8383611a63565b505050565b8061097e81611038565b73ffffffffffffffffffffffffffffffffffffffff1661099c611a5b565b73ffffffffffffffffffffffffffffffffffffffff16146109f2576040517f08c379a00000000000000000000000000000000000000000000000000000000081526004016109e990613202565b60405180910390fd5b6109fd848484611b1c565b610a078284611d78565b50505050565b80610a1781611038565b73ffffffffffffffffffffffffffffffffffffffff16610a35611a5b565b73ffffffffffffffffffffffffffffffffffffffff1614610a8b576040517f08c379a0000000000000000000000000000000000000000000000000000000008152600401610a8290613202565b60405180910390fd5b610a9482611e20565b5050565b80610aa281611038565b73ffffffffffffffffffffffffffffffffffffffff16610ac0611a5b565b73ffffffffffffffffffffffffffffffffffffffff1614610b16576040517f08c379a0000000000000000000000000000000000000000000000000000000008152600401610b0d90613202565b60405180910390fd5b610b3184848460405180602001604052806000815250611741565b610b3b8284611d78565b50505050565b606060006001600654610b549190613251565b67ffffffffffffffff811115610b6d57610b6c612d71565b5b604051908082528060200260200182016040528015610ba657816020015b610b936126d6565b815260200190600190039081610b8b5790505b5090506000600190505b600654811015610cba576040518060a0016040528082815260200160096000848152602001908152602001600020548152602001600a600084815260200190815260200160002060009054906101000a900460ff16151581526020016008600084815260200190815260200160002060009054906101000a900473ffffffffffffffffffffffffffffffffffffffff1673ffffffffffffffffffffffffffffffffffffffff168152602001610c6483611038565b73ffffffffffffffffffffffffffffffffffffffff1681525082600183610c8b9190613251565b81518110610c9c57610c9b613285565b5b60200260200101819052508080610cb2906132b4565b915050610bb0565b508091505090565b6000600760008473ffffffffffffffffffffffffffffffffffffffff1673ffffffffffffffffffffffffffffffffffffffff1681526020019081526020016000205414610d44576040517f08c379a0000000000000000000000000000000000000000000000000000000008152600401610d3b90613349565b60405180910390fd5b6000829050610d51611a5b565b73ffffffffffffffffffffffffffffffffffffffff168173ffffffffffffffffffffffffffffffffffffffff1663893d20e86040518163ffffffff1660e01b815260040160206040518083038186803b158015610dad57600080fd5b505afa158015610dc1573d6000803e3d6000fd5b505050506040513d601f19601f82011682018060405250810190610de5919061337e565b73ffffffffffffffffffffffffffffffffffffffff1614610e3b576040517f08c379a0000000000000000000000000000000000000000000000000000000008152600401610e329061341d565b60405180910390fd5b3073ffffffffffffffffffffffffffffffffffffffff168173ffffffffffffffffffffffffffffffffffffffff1663d42c60f96040518163ffffffff1660e01b815260040160206040518083038186803b158015610e9857600080fd5b505afa158015610eac573d6000803e3d6000fd5b505050506040513d601f19601f82011682018060405250810190610ed0919061337e565b73ffffffffffffffffffffffffffffffffffffffff1614610f26576040517f08c379a0000000000000000000000000000000000000000000000000000000008152600401610f1d906134d5565b60405180910390fd5b600654600760008573ffffffffffffffffffffffffffffffffffffffff1673ffffffffffffffffffffffffffffffffffffffff168152602001908152602001600020819055508260086000600654815260200190815260200160002060006101000a81548173ffffffffffffffffffffffffffffffffffffffff021916908373ffffffffffffffffffffffffffffffffffffffff16021790555081600960006006548152602001908152602001600020819055506000600a6000600654815260200190815260200160002060006101000a81548160ff02191690831515021790555061101b611013611a5b565b600654611f1d565b6006600081548092919061102e906132b4565b9190505550505050565b6000806002600084815260200190815260200160002060009054906101000a900473ffffffffffffffffffffffffffffffffffffffff169050600073ffffffffffffffffffffffffffffffffffffffff168173ffffffffffffffffffffffffffffffffffffffff1614156110e1576040517f08c379a00000000000000000000000000000000000000000000000000000000081526004016110d890613567565b60405180910390fd5b80915050919050565b60008073ffffffffffffffffffffffffffffffffffffffff168273ffffffffffffffffffffffffffffffffffffffff16141561115b576040517f08c379a0000000000000000000000000000000000000000000000000000000008152600401611152906135f9565b60405180910390fd5b600360008373ffffffffffffffffffffffffffffffffffffffff1673ffffffffffffffffffffffffffffffffffffffff168152602001908152602001600020549050919050565b81600a600082815260200190815260200160002060009054906101000a900460ff16611203576040517f08c379a00000000000000000000000000000000000000000000000000000000081526004016111fa9061368b565b60405180910390fd5b60006009600085815260200190815260200160002054905060018161122891906136ab565b34101561126a576040517f08c379a000000000000000000000000000000000000000000000000000000000815260040161126190613751565b60405180910390fd5b600061127585611038565b9050611282818587611b1c565b61128c8585611d78565b600061129786611038565b905060003390508173ffffffffffffffffffffffffffffffffffffffff166108fc859081150290604051600060405180830381858888f193505050501580156112e4573d6000803e3d6000fd5b508073ffffffffffffffffffffffffffffffffffffffff166108fc853461130b9190613251565b9081150290604051600060405180830381858888f19350505050158015611336573d6000803e3d6000fd5b506000600a600089815260200190815260200160002060006101000a81548160ff02191690831515021790555050505050505050565b60086020528060005260406000206000915054906101000a900473ffffffffffffffffffffffffffffffffffffffff1681565b6113a76126d6565b60006040518060a0016040528084815260200160096000868152602001908152602001600020548152602001600a600086815260200190815260200160002060009054906101000a900460ff16151581526020016008600086815260200190815260200160002060009054906101000a900473ffffffffffffffffffffffffffffffffffffffff1673ffffffffffffffffffffffffffffffffffffffff16815260200161145385611038565b73ffffffffffffffffffffffffffffffffffffffff16815250905080915050919050565b60076020528060005260406000206000915090505481565b60606001805461149e90612fce565b80601f01602080910402602001604051908101604052809291908181526020018280546114ca90612fce565b80156115175780601f106114ec57610100808354040283529160200191611517565b820191906000526020600020905b8154815290600101906020018083116114fa57829003601f168201915b5050505050905090565b60065481565b61152f611a5b565b73ffffffffffffffffffffffffffffffffffffffff168273ffffffffffffffffffffffffffffffffffffffff16141561159d576040517f08c379a0000000000000000000000000000000000000000000000000000000008152600401611594906137bd565b60405180910390fd5b80600560006115aa611a5b565b73ffffffffffffffffffffffffffffffffffffffff1673ffffffffffffffffffffffffffffffffffffffff16815260200190815260200160002060008473ffffffffffffffffffffffffffffffffffffffff1673ffffffffffffffffffffffffffffffffffffffff16815260200190815260200160002060006101000a81548160ff0219169083151502179055508173ffffffffffffffffffffffffffffffffffffffff16611657611a5b565b73ffffffffffffffffffffffffffffffffffffffff167f17307eab39ab6107e8899845ad3d59bd9653f200f220920489ca2b5937696c318360405161169c91906127e7565b60405180910390a35050565b60096020528060005260406000206000915090505481565b816116d26116cc611a5b565b82611f3b565b611711576040517f08c379a00000000000000000000000000000000000000000000000000000000081526004016117089061384f565b60405180910390fd5b81600a600085815260200190815260200160002060006101000a81548160ff021916908315150217905550505050565b8161174b81611038565b73ffffffffffffffffffffffffffffffffffffffff16611769611a5b565b73ffffffffffffffffffffffffffffffffffffffff16146117bf576040517f08c379a00000000000000000000000000000000000000000000000000000000081526004016117b690613202565b60405180910390fd5b6117cb85858585612019565b6117d58385611d78565b5050505050565b60606117e7826119ef565b611826576040517f08c379a000000000000000000000000000000000000000000000000000000000815260040161181d906138e1565b60405180910390fd5b6000611830612075565b90506000815111611850576040518060200160405280600081525061187b565b8061185a8461208c565b60405160200161186b92919061393d565b6040516020818303038152906040525b915050919050565b6000600560008473ffffffffffffffffffffffffffffffffffffffff1673ffffffffffffffffffffffffffffffffffffffff16815260200190815260200160002060008373ffffffffffffffffffffffffffffffffffffffff1673ffffffffffffffffffffffffffffffffffffffff16815260200190815260200160002060009054906101000a900460ff16905092915050565b81611929611923611a5b565b82611f3b565b611968576040517f08c379a000000000000000000000000000000000000000000000000000000000815260040161195f9061384f565b60405180910390fd5b816009600085815260200190815260200160002081905550505050565b60007f01ffc9a7000000000000000000000000000000000000000000000000000000007bffffffffffffffffffffffffffffffffffffffffffffffffffffffff1916827bffffffffffffffffffffffffffffffffffffffffffffffffffffffff1916149050919050565b60008073ffffffffffffffffffffffffffffffffffffffff166002600084815260200190815260200160002060009054906101000a900473ffffffffffffffffffffffffffffffffffffffff1673ffffffffffffffffffffffffffffffffffffffff1614159050919050565b600033905090565b816004600083815260200190815260200160002060006101000a81548173ffffffffffffffffffffffffffffffffffffffff021916908373ffffffffffffffffffffffffffffffffffffffff160217905550808273ffffffffffffffffffffffffffffffffffffffff16611ad683611038565b73ffffffffffffffffffffffffffffffffffffffff167f8c5be1e5ebec7d5bd14f71427d1e84f3dd0314c0f7b2291e5b200ac8c7c3b92560405160405180910390a45050565b8273ffffffffffffffffffffffffffffffffffffffff16611b3c82611038565b73ffffffffffffffffffffffffffffffffffffffff1614611b92576040517f08c379a0000000000000000000000000000000000000000000000000000000008152600401611b89906139d3565b60405180910390fd5b600073ffffffffffffffffffffffffffffffffffffffff168273ffffffffffffffffffffffffffffffffffffffff161415611c02576040517f08c379a0000000000000000000000000000000000000000000000000000000008152600401611bf990613a65565b60405180910390fd5b611c0d8383836121ed565b611c18600082611a63565b6001600360008573ffffffffffffffffffffffffffffffffffffffff1673ffffffffffffffffffffffffffffffffffffffff1681526020019081526020016000206000828254611c689190613251565b925050819055506001600360008473ffffffffffffffffffffffffffffffffffffffff1673ffffffffffffffffffffffffffffffffffffffff1681526020019081526020016000206000828254611cbf9190613a85565b92505081905550816002600083815260200190815260200160002060006101000a81548173ffffffffffffffffffffffffffffffffffffffff021916908373ffffffffffffffffffffffffffffffffffffffff160217905550808273ffffffffffffffffffffffffffffffffffffffff168473ffffffffffffffffffffffffffffffffffffffff167fddf252ad1be2c89b69c2b068fc378daa952ba7f163c4a11628f55a4df523b3ef60405160405180910390a4505050565b60006008600084815260200190815260200160002060009054906101000a900473ffffffffffffffffffffffffffffffffffffffff1690508073ffffffffffffffffffffffffffffffffffffffff1663f2fde38b836040518263ffffffff1660e01b8152600401611de99190612961565b600060405180830381600087803b158015611e0357600080fd5b505af1158015611e17573d6000803e3d6000fd5b50505050505050565b611e2b816000611d78565b6009600082815260200190815260200160002060009055600a600082815260200190815260200160002060006101000a81549060ff0219169055600760006008600084815260200190815260200160002060009054906101000a900473ffffffffffffffffffffffffffffffffffffffff1673ffffffffffffffffffffffffffffffffffffffff1673ffffffffffffffffffffffffffffffffffffffff168152602001908152602001600020600090556008600082815260200190815260200160002060006101000a81549073ffffffffffffffffffffffffffffffffffffffff0219169055611f1a816121f2565b50565b611f37828260405180602001604052806000815250612303565b5050565b6000611f46826119ef565b611f85576040517f08c379a0000000000000000000000000000000000000000000000000000000008152600401611f7c90613b4d565b60405180910390fd5b6000611f9083611038565b90508073ffffffffffffffffffffffffffffffffffffffff168473ffffffffffffffffffffffffffffffffffffffff161480611fff57508373ffffffffffffffffffffffffffffffffffffffff16611fe7846107d7565b73ffffffffffffffffffffffffffffffffffffffff16145b80612010575061200f8185611883565b5b91505092915050565b612024848484611b1c565b6120308484848461235e565b61206f576040517f08c379a000000000000000000000000000000000000000000000000000000000815260040161206690613bdf565b60405180910390fd5b50505050565b606060405180602001604052806000815250905090565b606060008214156120d4576040518060400160405280600181526020017f300000000000000000000000000000000000000000000000000000000000000081525090506121e8565b600082905060005b600082146121065780806120ef906132b4565b915050600a826120ff9190613c2e565b91506120dc565b60008167ffffffffffffffff81111561212257612121612d71565b5b6040519080825280601f01601f1916602001820160405280156121545781602001600182028036833780820191505090505b5090505b600085146121e15760018261216d9190613251565b9150600a8561217c9190613c5f565b60306121889190613a85565b60f81b81838151811061219e5761219d613285565b5b60200101907effffffffffffffffffffffffffffffffffffffffffffffffffffffffffffff1916908160001a905350600a856121da9190613c2e565b9450612158565b8093505050505b919050565b505050565b60006121fd82611038565b905061220b816000846121ed565b612216600083611a63565b6001600360008373ffffffffffffffffffffffffffffffffffffffff1673ffffffffffffffffffffffffffffffffffffffff16815260200190815260200160002060008282546122669190613251565b925050819055506002600083815260200190815260200160002060006101000a81549073ffffffffffffffffffffffffffffffffffffffff021916905581600073ffffffffffffffffffffffffffffffffffffffff168273ffffffffffffffffffffffffffffffffffffffff167fddf252ad1be2c89b69c2b068fc378daa952ba7f163c4a11628f55a4df523b3ef60405160405180910390a45050565b61230d83836124f5565b61231a600084848461235e565b612359576040517f08c379a000000000000000000000000000000000000000000000000000000000815260040161235090613bdf565b60405180910390fd5b505050565b600061237f8473ffffffffffffffffffffffffffffffffffffffff166126c3565b156124e8578373ffffffffffffffffffffffffffffffffffffffff1663150b7a026123a8611a5b565b8786866040518563ffffffff1660e01b81526004016123ca9493929190613ce5565b602060405180830381600087803b1580156123e457600080fd5b505af192505050801561241557506040513d601f19601f820116820180604052508101906124129190613d46565b60015b612498573d8060008114612445576040519150601f19603f3d011682016040523d82523d6000602084013e61244a565b606091505b50600081511415612490576040517f08c379a000000000000000000000000000000000000000000000000000000000815260040161248790613bdf565b60405180910390fd5b805181602001fd5b63150b7a0260e01b7bffffffffffffffffffffffffffffffffffffffffffffffffffffffff1916817bffffffffffffffffffffffffffffffffffffffffffffffffffffffff1916149150506124ed565b600190505b949350505050565b600073ffffffffffffffffffffffffffffffffffffffff168273ffffffffffffffffffffffffffffffffffffffff161415612565576040517f08c379a000000000000000000000000000000000000000000000000000000000815260040161255c90613dbf565b60405180910390fd5b61256e816119ef565b156125ae576040517f08c379a00000000000000000000000000000000000000000000000000000000081526004016125a590613e2b565b60405180910390fd5b6125ba600083836121ed565b6001600360008473ffffffffffffffffffffffffffffffffffffffff1673ffffffffffffffffffffffffffffffffffffffff168152602001908152602001600020600082825461260a9190613a85565b92505081905550816002600083815260200190815260200160002060006101000a81548173ffffffffffffffffffffffffffffffffffffffff021916908373ffffffffffffffffffffffffffffffffffffffff160217905550808273ffffffffffffffffffffffffffffffffffffffff16600073ffffffffffffffffffffffffffffffffffffffff167fddf252ad1be2c89b69c2b068fc378daa952ba7f163c4a11628f55a4df523b3ef60405160405180910390a45050565b600080823b905060008111915050919050565b6040518060a001604052806000815260200160008152602001600015158152602001600073ffffffffffffffffffffffffffffffffffffffff168152602001600073ffffffffffffffffffffffffffffffffffffffff1681525090565b6000604051905090565b600080fd5b600080fd5b60007fffffffff0000000000000000000000000000000000000000000000000000000082169050919050565b61277c81612747565b811461278757600080fd5b50565b60008135905061279981612773565b92915050565b6000602082840312156127b5576127b461273d565b5b60006127c38482850161278a565b91505092915050565b60008115159050919050565b6127e1816127cc565b82525050565b60006020820190506127fc60008301846127d8565b92915050565b600081519050919050565b600082825260208201905092915050565b60005b8381101561283c578082015181840152602081019050612821565b8381111561284b576000848401525b50505050565b6000601f19601f8301169050919050565b600061286d82612802565b612877818561280d565b935061288781856020860161281e565b61289081612851565b840191505092915050565b600060208201905081810360008301526128b58184612862565b905092915050565b6000819050919050565b6128d0816128bd565b81146128db57600080fd5b50565b6000813590506128ed816128c7565b92915050565b6000602082840312156129095761290861273d565b5b6000612917848285016128de565b91505092915050565b600073ffffffffffffffffffffffffffffffffffffffff82169050919050565b600061294b82612920565b9050919050565b61295b81612940565b82525050565b60006020820190506129766000830184612952565b92915050565b61298581612940565b811461299057600080fd5b50565b6000813590506129a28161297c565b92915050565b600080604083850312156129bf576129be61273d565b5b60006129cd85828601612993565b92505060206129de858286016128de565b9150509250929050565b600080600060608486031215612a0157612a0061273d565b5b6000612a0f86828701612993565b9350506020612a2086828701612993565b9250506040612a31868287016128de565b9150509250925092565b600081519050919050565b600082825260208201905092915050565b6000819050602082019050919050565b612a70816128bd565b82525050565b612a7f816127cc565b82525050565b612a8e81612940565b82525050565b60a082016000820151612aaa6000850182612a67565b506020820151612abd6020850182612a67565b506040820151612ad06040850182612a76565b506060820151612ae36060850182612a85565b506080820151612af66080850182612a85565b50505050565b6000612b088383612a94565b60a08301905092915050565b6000602082019050919050565b6000612b2c82612a3b565b612b368185612a46565b9350612b4183612a57565b8060005b83811015612b72578151612b598882612afc565b9750612b6483612b14565b925050600181019050612b45565b5085935050505092915050565b60006020820190508181036000830152612b998184612b21565b905092915050565b600060208284031215612bb757612bb661273d565b5b6000612bc584828501612993565b91505092915050565b612bd7816128bd565b82525050565b6000602082019050612bf26000830184612bce565b92915050565b60008060408385031215612c0f57612c0e61273d565b5b6000612c1d858286016128de565b9250506020612c2e85828601612993565b9150509250929050565b60a082016000820151612c4e6000850182612a67565b506020820151612c616020850182612a67565b506040820151612c746040850182612a76565b506060820151612c876060850182612a85565b506080820151612c9a6080850182612a85565b50505050565b600060a082019050612cb56000830184612c38565b92915050565b612cc4816127cc565b8114612ccf57600080fd5b50565b600081359050612ce181612cbb565b92915050565b60008060408385031215612cfe57612cfd61273d565b5b6000612d0c85828601612993565b9250506020612d1d85828601612cd2565b9150509250929050565b60008060408385031215612d3e57612d3d61273d565b5b6000612d4c858286016128de565b9250506020612d5d85828601612cd2565b9150509250929050565b600080fd5b600080fd5b7f4e487b7100000000000000000000000000000000000000000000000000000000600052604160045260246000fd5b612da982612851565b810181811067ffffffffffffffff82111715612dc857612dc7612d71565b5b80604052505050565b6000612ddb612733565b9050612de78282612da0565b919050565b600067ffffffffffffffff821115612e0757612e06612d71565b5b612e1082612851565b9050602081019050919050565b82818337600083830152505050565b6000612e3f612e3a84612dec565b612dd1565b905082815260208101848484011115612e5b57612e5a612d6c565b5b612e66848285612e1d565b509392505050565b600082601f830112612e8357612e82612d67565b5b8135612e93848260208601612e2c565b91505092915050565b60008060008060808587031215612eb657612eb561273d565b5b6000612ec487828801612993565b9450506020612ed587828801612993565b9350506040612ee6878288016128de565b925050606085013567ffffffffffffffff811115612f0757612f06612742565b5b612f1387828801612e6e565b91505092959194509250565b60008060408385031215612f3657612f3561273d565b5b6000612f4485828601612993565b9250506020612f5585828601612993565b9150509250929050565b60008060408385031215612f7657612f7561273d565b5b6000612f84858286016128de565b9250506020612f95858286016128de565b9150509250929050565b7f4e487b7100000000000000000000000000000000000000000000000000000000600052602260045260246000fd5b60006002820490506001821680612fe657607f821691505b60208210811415612ffa57612ff9612f9f565b5b50919050565b7f4552433732313a20617070726f76656420717565727920666f72206e6f6e657860008201527f697374656e7420746f6b656e0000000000000000000000000000000000000000602082015250565b600061305c602c8361280d565b915061306782613000565b604082019050919050565b6000602082019050818103600083015261308b8161304f565b9050919050565b7f4552433732313a20617070726f76616c20746f2063757272656e74206f776e6560008201527f7200000000000000000000000000000000000000000000000000000000000000602082015250565b60006130ee60218361280d565b91506130f982613092565b604082019050919050565b6000602082019050818103600083015261311d816130e1565b9050919050565b7f4552433732313a20617070726f76652063616c6c6572206973206e6f74206f7760008201527f6e6572206e6f7220617070726f76656420666f7220616c6c0000000000000000602082015250565b600061318060388361280d565b915061318b82613124565b604082019050919050565b600060208201905081810360008301526131af81613173565b9050919050565b7f4552433732313a2063616c6c6572206973206e6f74206f776e65720000000000600082015250565b60006131ec601b8361280d565b91506131f7826131b6565b602082019050919050565b6000602082019050818103600083015261321b816131df565b9050919050565b7f4e487b7100000000000000000000000000000000000000000000000000000000600052601160045260246000fd5b600061325c826128bd565b9150613267836128bd565b92508282101561327a57613279613222565b5b828203905092915050565b7f4e487b7100000000000000000000000000000000000000000000000000000000600052603260045260246000fd5b60006132bf826128bd565b91507fffffffffffffffffffffffffffffffffffffffffffffffffffffffffffffffff8214156132f2576132f1613222565b5b600182019050919050565b7f436f6e747261637420616c7265616479206d696e746564000000000000000000600082015250565b600061333360178361280d565b915061333e826132fd565b602082019050919050565b6000602082019050818103600083015261336281613326565b9050919050565b6000815190506133788161297c565b92915050565b6000602082840312156133945761339361273d565b5b60006133a284828501613369565b91505092915050565b7f596f752063616e2774206d696e74204e465420666f72206120636f6e7472616360008201527f7420796f7520646f6e2774206f776e0000000000000000000000000000000000602082015250565b6000613407602f8361280d565b9150613412826133ab565b604082019050919050565b60006020820190508181036000830152613436816133fa565b9050919050565b7f48616e646c657220636f6e74726163742061646472657373206861736e27742060008201527f6265656e207365742070726f7065726c7920696e20796f757220636f6e74726160208201527f6374000000000000000000000000000000000000000000000000000000000000604082015250565b60006134bf60428361280d565b91506134ca8261343d565b606082019050919050565b600060208201905081810360008301526134ee816134b2565b9050919050565b7f4552433732313a206f776e657220717565727920666f72206e6f6e657869737460008201527f656e7420746f6b656e0000000000000000000000000000000000000000000000602082015250565b600061355160298361280d565b915061355c826134f5565b604082019050919050565b6000602082019050818103600083015261358081613544565b9050919050565b7f4552433732313a2062616c616e636520717565727920666f7220746865207a6560008201527f726f206164647265737300000000000000000000000000000000000000000000602082015250565b60006135e3602a8361280d565b91506135ee82613587565b604082019050919050565b60006020820190508181036000830152613612816135d6565b9050919050565b7f436f6e7472616374206973206e6f742063757272656e746c7920666f7220736160008201527f6c65000000000000000000000000000000000000000000000000000000000000602082015250565b600061367560228361280d565b915061368082613619565b604082019050919050565b600060208201905081810360008301526136a481613668565b9050919050565b60006136b6826128bd565b91506136c1836128bd565b9250817fffffffffffffffffffffffffffffffffffffffffffffffffffffffffffffffff04831182151516156136fa576136f9613222565b5b828202905092915050565b7f4e6f7420656e6f756768206d6f6e657900000000000000000000000000000000600082015250565b600061373b60108361280d565b915061374682613705565b602082019050919050565b6000602082019050818103600083015261376a8161372e565b9050919050565b7f4552433732313a20617070726f766520746f2063616c6c657200000000000000600082015250565b60006137a760198361280d565b91506137b282613771565b602082019050919050565b600060208201905081810360008301526137d68161379a565b9050919050565b7f4552433732313a2063616c6c6572206973206e656974686572206f776e65722060008201527f6e6f7220617070726f7665640000000000000000000000000000000000000000602082015250565b6000613839602c8361280d565b9150613844826137dd565b604082019050919050565b600060208201905081810360008301526138688161382c565b9050919050565b7f4552433732314d657461646174613a2055524920717565727920666f72206e6f60008201527f6e6578697374656e7420746f6b656e0000000000000000000000000000000000602082015250565b60006138cb602f8361280d565b91506138d68261386f565b604082019050919050565b600060208201905081810360008301526138fa816138be565b9050919050565b600081905092915050565b600061391782612802565b6139218185613901565b935061393181856020860161281e565b80840191505092915050565b6000613949828561390c565b9150613955828461390c565b91508190509392505050565b7f4552433732313a207472616e73666572206f6620746f6b656e2074686174206960008201527f73206e6f74206f776e0000000000000000000000000000000000000000000000602082015250565b60006139bd60298361280d565b91506139c882613961565b604082019050919050565b600060208201905081810360008301526139ec816139b0565b9050919050565b7f4552433732313a207472616e7366657220746f20746865207a65726f2061646460008201527f7265737300000000000000000000000000000000000000000000000000000000602082015250565b6000613a4f60248361280d565b9150613a5a826139f3565b604082019050919050565b60006020820190508181036000830152613a7e81613a42565b9050919050565b6000613a90826128bd565b9150613a9b836128bd565b9250827fffffffffffffffffffffffffffffffffffffffffffffffffffffffffffffffff03821115613ad057613acf613222565b5b828201905092915050565b7f4552433732313a206f70657261746f7220717565727920666f72206e6f6e657860008201527f697374656e7420746f6b656e0000000000000000000000000000000000000000602082015250565b6000613b37602c8361280d565b9150613b4282613adb565b604082019050919050565b60006020820190508181036000830152613b6681613b2a565b9050919050565b7f4552433732313a207472616e7366657220746f206e6f6e20455243373231526560008201527f63656976657220696d706c656d656e7465720000000000000000000000000000602082015250565b6000613bc960328361280d565b9150613bd482613b6d565b604082019050919050565b60006020820190508181036000830152613bf881613bbc565b9050919050565b7f4e487b7100000000000000000000000000000000000000000000000000000000600052601260045260246000fd5b6000613c39826128bd565b9150613c44836128bd565b925082613c5457613c53613bff565b5b828204905092915050565b6000613c6a826128bd565b9150613c75836128bd565b925082613c8557613c84613bff565b5b828206905092915050565b600081519050919050565b600082825260208201905092915050565b6000613cb782613c90565b613cc18185613c9b565b9350613cd181856020860161281e565b613cda81612851565b840191505092915050565b6000608082019050613cfa6000830187612952565b613d076020830186612952565b613d146040830185612bce565b8181036060830152613d268184613cac565b905095945050505050565b600081519050613d4081612773565b92915050565b600060208284031215613d5c57613d5b61273d565b5b6000613d6a84828501613d31565b91505092915050565b7f4552433732313a206d696e7420746f20746865207a65726f2061646472657373600082015250565b6000613da960208361280d565b9150613db482613d73565b602082019050919050565b60006020820190508181036000830152613dd881613d9c565b9050919050565b7f4552433732313a20746f6b656e20616c7265616479206d696e74656400000000600082015250565b6000613e15601c8361280d565b9150613e2082613ddf565b602082019050919050565b60006020820190508181036000830152613e4481613e08565b905091905056fea26469706673582212204b722af3df159dedb5619b55e21ad51a7f5f1c0dd2373b6629d6a1cae23fe88164736f6c63430008080033",
  "immutableReferences": {},
  "source": "// SPDX-License-Identifier: Unlicensed\r\npragma solidity ^0.8;\r\nimport \"@openzeppelin/contracts/token/ERC721/ERC721.sol\";\r\nimport \"./NFTContract.sol\";\r\n\r\ncontract ContractNFTHandler is ERC721 {\r\n    constructor (string memory _name, string memory _symbol) ERC721(_name, _symbol) {\r\n        tokenCount = 1;\r\n    }\r\n\r\n    struct NFT {\r\n        uint256 id;\r\n        uint256 price;\r\n        bool onSale;\r\n        address contractAddress;\r\n        address owner;\r\n    }\r\n\r\n    uint256 public tokenCount;\r\n    mapping (address => uint256) public _tokenAddressToId;\r\n    mapping (uint256 => address) public _tokenIdtoAdderss;    \r\n    mapping (uint256 => uint256) public _tokenPrices;\r\n    mapping (uint256 => bool) public _forSale;\r\n\r\n    modifier isForSale(uint256 tokenId) {\r\n        require(_forSale[tokenId], \"Contract is not currently for sale\");\r\n        _;\r\n    }\r\n\r\n    modifier isOwner(uint256 tokenId) {\r\n        require(_msgSender()==ownerOf(tokenId), \"ERC721: caller is not owner\");\r\n        _;\r\n    }\r\n\r\n    modifier isApprovedOrOwner(uint256 tokenId) {\r\n        require(_isApprovedOrOwner(_msgSender(), tokenId), \"ERC721: caller is neither owner nor approved\");\r\n        _;\r\n    }\r\n\r\n    function _updateOwnershipInNFT(uint256 tokenId, address to) private {\r\n        NFTContract nft = NFTContract(_tokenIdtoAdderss[tokenId]);\r\n        nft.transferOwnership(to);\r\n    }\r\n\r\n    function _burn(uint256 tokenId) internal virtual override {\r\n        _updateOwnershipInNFT(tokenId, address(0));\r\n        delete _tokenPrices[tokenId];\r\n        delete _forSale[tokenId];\r\n        delete _tokenAddressToId[_tokenIdtoAdderss[tokenId]];\r\n        delete _tokenIdtoAdderss[tokenId];\r\n        super._burn(tokenId);\r\n    }\r\n    \r\n    /**\r\n     * @dev Mint an NFT for a smart contract that inherits from NFTContract.sol\r\n     * Can't mint NFT for contract if caller is not owner or contract hasn't\r\n     * set handler contract address or the NFT for that contrat's ownership has already been minted\r\n     */\r\n    function mintContract(address contractAddress, uint256 price) external {\r\n        require(_tokenAddressToId[contractAddress]==0, \"Contract already minted\");\r\n        NFTContract nft = NFTContract(contractAddress);\r\n        require(nft.getOwner()==_msgSender(), \"You can't mint NFT for a contract you don't own\");\r\n        require(nft.getHandlerContract()==address(this), \"Handler contract address hasn't been set properly in your contract\");\r\n        _tokenAddressToId[contractAddress] = tokenCount;\r\n        _tokenIdtoAdderss[tokenCount] = contractAddress;\r\n        _tokenPrices[tokenCount] = price;\r\n        _forSale[tokenCount] = false;\r\n        _safeMint(_msgSender(), tokenCount);\r\n        tokenCount++;\r\n    }\r\n\r\n    function burnContract(uint256 tokenId) external isOwner(tokenId){\r\n        _burn(tokenId);\r\n    }\r\n\r\n    function setPrice(uint256 tokenId, uint256 price) external isApprovedOrOwner(tokenId) {\r\n        _tokenPrices[tokenId] = price;\r\n    }\r\n\r\n    // Change the sale status of an NFT if the sale status of an NFT is false, it can no longer be pruchased using the purchaseNFT function\r\n    function setSaleStatus(uint256 tokenId, bool saleStatus) external isApprovedOrOwner(tokenId) {\r\n        _forSale[tokenId] = saleStatus;\r\n    }\r\n\r\n    // Change ownership of an NFT currently on sale\r\n    function purchaseNFT(uint256 tokenId, address to) external payable isForSale(tokenId) {\r\n        uint256 price = _tokenPrices[tokenId];\r\n        require(msg.value>=price*(1 wei), \"Not enough money\");\r\n\r\n        // Transfer record of ownership\r\n        address currentOwner = ownerOf(tokenId);\r\n        _transfer(currentOwner, to, tokenId);\r\n        _updateOwnershipInNFT(tokenId, to);\r\n\r\n        // Pay the original owner and refund the excess money to the buyer\r\n        address payable owner = payable(ownerOf(tokenId));\r\n        address payable buyer = payable(msg.sender);\r\n        owner.transfer(price);\r\n        buyer.transfer(msg.value-price);\r\n\r\n        // Set sale status to false\r\n        _forSale[tokenId] = false;\r\n    }\r\n\r\n    // Overriding base transfer functions to include _updateOwnershipNFT\r\n    function transferFrom(address from, address to, uint256 tokenId) public virtual override isOwner(tokenId) {\r\n        _transfer(from, to, tokenId);\r\n        _updateOwnershipInNFT(tokenId, to);\r\n    }\r\n\r\n    function safeTransferFrom(address from, address to, uint256 tokenId) public virtual override isOwner(tokenId) {\r\n        safeTransferFrom(from, to, tokenId, \"\");\r\n        _updateOwnershipInNFT(tokenId, to);\r\n    }\r\n\r\n    function safeTransferFrom(address from, address to, uint256 tokenId, bytes memory _data) public virtual override isOwner(tokenId) {\r\n        _safeTransfer(from, to, tokenId, _data);\r\n        _updateOwnershipInNFT(tokenId, to);\r\n    }\r\n\r\n    function getAllNFTDetails() public view returns(NFT[] memory) {\r\n        NFT[] memory nftDetails = new NFT[](tokenCount-1);\r\n        for (uint i=1; i<tokenCount; i++) {\r\n            nftDetails[i-1] = NFT(i, _tokenPrices[i], _forSale[i], _tokenIdtoAdderss[i], ownerOf(i));\r\n        }\r\n        return nftDetails;\r\n    }\r\n\r\n    function getNFTDetails(uint256 tokenId) public view returns(NFT memory) {\r\n        NFT memory nftDetails = NFT(tokenId, _tokenPrices[tokenId], _forSale[tokenId], _tokenIdtoAdderss[tokenId], ownerOf(tokenId));\r\n        return nftDetails;\r\n    }\r\n}",
  "sourcePath": "C:\\Users\\alok2\\Downloads\\solidity_projects\\ContractsAsNFTs\\contract_code\\contracts\\ContractNFTHandler.sol",
  "compiler": {
    "name": "solc",
    "version": "0.8.8+commit.dddeac2f.Emscripten.clang"
  },
  "schemaVersion": "3.4.3",
  "updatedAt": "2021-09-29T10:40:47.962Z",
  "devdoc": {
    "kind": "dev",
    "methods": {
      "approve(address,uint256)": {
        "details": "See {IERC721-approve}."
      },
      "balanceOf(address)": {
        "details": "See {IERC721-balanceOf}."
      },
      "getApproved(uint256)": {
        "details": "See {IERC721-getApproved}."
      },
      "isApprovedForAll(address,address)": {
        "details": "See {IERC721-isApprovedForAll}."
      },
      "mintContract(address,uint256)": {
        "details": "Mint an NFT for a smart contract that inherits from NFTContract.sol Can't mint NFT for contract if caller is not owner or contract hasn't set handler contract address or the NFT for that contrat's ownership has already been minted"
      },
      "name()": {
        "details": "See {IERC721Metadata-name}."
      },
      "ownerOf(uint256)": {
        "details": "See {IERC721-ownerOf}."
      },
      "safeTransferFrom(address,address,uint256)": {
        "details": "See {IERC721-safeTransferFrom}."
      },
      "safeTransferFrom(address,address,uint256,bytes)": {
        "details": "See {IERC721-safeTransferFrom}."
      },
      "setApprovalForAll(address,bool)": {
        "details": "See {IERC721-setApprovalForAll}."
      },
      "supportsInterface(bytes4)": {
        "details": "See {IERC165-supportsInterface}."
      },
      "symbol()": {
        "details": "See {IERC721Metadata-symbol}."
      },
      "tokenURI(uint256)": {
        "details": "See {IERC721Metadata-tokenURI}."
      },
      "transferFrom(address,address,uint256)": {
        "details": "See {IERC721-transferFrom}."
      }
    },
    "version": 1
  },
  "userdoc": {
    "kind": "user",
    "methods": {},
    "version": 1
  }
}