{
  "contractName": "ContractNFTHandler",
  "abi": [
    {
      "inputs": [
        {
          "internalType": "string",
          "name": "_name",
          "type": "string"
        },
        {
          "internalType": "string",
          "name": "_symbol",
          "type": "string"
        }
      ],
      "stateMutability": "nonpayable",
      "type": "constructor"
    },
    {
      "anonymous": false,
      "inputs": [
        {
          "indexed": true,
          "internalType": "address",
          "name": "owner",
          "type": "address"
        },
        {
          "indexed": true,
          "internalType": "address",
          "name": "approved",
          "type": "address"
        },
        {
          "indexed": true,
          "internalType": "uint256",
          "name": "tokenId",
          "type": "uint256"
        }
      ],
      "name": "Approval",
      "type": "event"
    },
    {
      "anonymous": false,
      "inputs": [
        {
          "indexed": true,
          "internalType": "address",
          "name": "owner",
          "type": "address"
        },
        {
          "indexed": true,
          "internalType": "address",
          "name": "operator",
          "type": "address"
        },
        {
          "indexed": false,
          "internalType": "bool",
          "name": "approved",
          "type": "bool"
        }
      ],
      "name": "ApprovalForAll",
      "type": "event"
    },
    {
      "anonymous": false,
      "inputs": [
        {
          "indexed": true,
          "internalType": "address",
          "name": "from",
          "type": "address"
        },
        {
          "indexed": true,
          "internalType": "address",
          "name": "to",
          "type": "address"
        },
        {
          "indexed": true,
          "internalType": "uint256",
          "name": "tokenId",
          "type": "uint256"
        }
      ],
      "name": "Transfer",
      "type": "event"
    },
    {
      "inputs": [
        {
          "internalType": "uint256",
          "name": "",
          "type": "uint256"
        }
      ],
      "name": "_forSale",
      "outputs": [
        {
          "internalType": "bool",
          "name": "",
          "type": "bool"
        }
      ],
      "stateMutability": "view",
      "type": "function"
    },
    {
      "inputs": [
        {
          "internalType": "address",
          "name": "",
          "type": "address"
        }
      ],
      "name": "_tokenAddressToId",
      "outputs": [
        {
          "internalType": "uint256",
          "name": "",
          "type": "uint256"
        }
      ],
      "stateMutability": "view",
      "type": "function"
    },
    {
      "inputs": [
        {
          "internalType": "uint256",
          "name": "",
          "type": "uint256"
        }
      ],
      "name": "_tokenIdtoAdderss",
      "outputs": [
        {
          "internalType": "address",
          "name": "",
          "type": "address"
        }
      ],
      "stateMutability": "view",
      "type": "function"
    },
    {
      "inputs": [
        {
          "internalType": "uint256",
          "name": "",
          "type": "uint256"
        }
      ],
      "name": "_tokenPrices",
      "outputs": [
        {
          "internalType": "uint256",
          "name": "",
          "type": "uint256"
        }
      ],
      "stateMutability": "view",
      "type": "function"
    },
    {
      "inputs": [
        {
          "internalType": "address",
          "name": "to",
          "type": "address"
        },
        {
          "internalType": "uint256",
          "name": "tokenId",
          "type": "uint256"
        }
      ],
      "name": "approve",
      "outputs": [],
      "stateMutability": "nonpayable",
      "type": "function"
    },
    {
      "inputs": [
        {
          "internalType": "address",
          "name": "owner",
          "type": "address"
        }
      ],
      "name": "balanceOf",
      "outputs": [
        {
          "internalType": "uint256",
          "name": "",
          "type": "uint256"
        }
      ],
      "stateMutability": "view",
      "type": "function"
    },
    {
      "inputs": [
        {
          "internalType": "uint256",
          "name": "tokenId",
          "type": "uint256"
        }
      ],
      "name": "getApproved",
      "outputs": [
        {
          "internalType": "address",
          "name": "",
          "type": "address"
        }
      ],
      "stateMutability": "view",
      "type": "function"
    },
    {
      "inputs": [
        {
          "internalType": "address",
          "name": "owner",
          "type": "address"
        },
        {
          "internalType": "address",
          "name": "operator",
          "type": "address"
        }
      ],
      "name": "isApprovedForAll",
      "outputs": [
        {
          "internalType": "bool",
          "name": "",
          "type": "bool"
        }
      ],
      "stateMutability": "view",
      "type": "function"
    },
    {
      "inputs": [],
      "name": "name",
      "outputs": [
        {
          "internalType": "string",
          "name": "",
          "type": "string"
        }
      ],
      "stateMutability": "view",
      "type": "function"
    },
    {
      "inputs": [
        {
          "internalType": "uint256",
          "name": "tokenId",
          "type": "uint256"
        }
      ],
      "name": "ownerOf",
      "outputs": [
        {
          "internalType": "address",
          "name": "",
          "type": "address"
        }
      ],
      "stateMutability": "view",
      "type": "function"
    },
    {
      "inputs": [
        {
          "internalType": "address",
          "name": "operator",
          "type": "address"
        },
        {
          "internalType": "bool",
          "name": "approved",
          "type": "bool"
        }
      ],
      "name": "setApprovalForAll",
      "outputs": [],
      "stateMutability": "nonpayable",
      "type": "function"
    },
    {
      "inputs": [
        {
          "internalType": "bytes4",
          "name": "interfaceId",
          "type": "bytes4"
        }
      ],
      "name": "supportsInterface",
      "outputs": [
        {
          "internalType": "bool",
          "name": "",
          "type": "bool"
        }
      ],
      "stateMutability": "view",
      "type": "function"
    },
    {
      "inputs": [],
      "name": "symbol",
      "outputs": [
        {
          "internalType": "string",
          "name": "",
          "type": "string"
        }
      ],
      "stateMutability": "view",
      "type": "function"
    },
    {
      "inputs": [],
      "name": "tokenCount",
      "outputs": [
        {
          "internalType": "uint256",
          "name": "",
          "type": "uint256"
        }
      ],
      "stateMutability": "view",
      "type": "function"
    },
    {
      "inputs": [
        {
          "internalType": "uint256",
          "name": "tokenId",
          "type": "uint256"
        }
      ],
      "name": "tokenURI",
      "outputs": [
        {
          "internalType": "string",
          "name": "",
          "type": "string"
        }
      ],
      "stateMutability": "view",
      "type": "function"
    },
    {
      "inputs": [
        {
          "internalType": "address",
          "name": "contractAddress",
          "type": "address"
        },
        {
          "internalType": "uint256",
          "name": "price",
          "type": "uint256"
        }
      ],
      "name": "mintContract",
      "outputs": [],
      "stateMutability": "nonpayable",
      "type": "function"
    },
    {
      "inputs": [
        {
          "internalType": "uint256",
          "name": "tokenId",
          "type": "uint256"
        }
      ],
      "name": "burnContract",
      "outputs": [],
      "stateMutability": "nonpayable",
      "type": "function"
    },
    {
      "inputs": [
        {
          "internalType": "uint256",
          "name": "tokenId",
          "type": "uint256"
        },
        {
          "internalType": "uint256",
          "name": "price",
          "type": "uint256"
        }
      ],
      "name": "setPrice",
      "outputs": [],
      "stateMutability": "nonpayable",
      "type": "function"
    },
    {
      "inputs": [
        {
          "internalType": "uint256",
          "name": "tokenId",
          "type": "uint256"
        },
        {
          "internalType": "bool",
          "name": "saleStatus",
          "type": "bool"
        }
      ],
      "name": "setSaleStatus",
      "outputs": [],
      "stateMutability": "nonpayable",
      "type": "function"
    },
    {
      "inputs": [
        {
          "internalType": "uint256",
          "name": "tokenId",
          "type": "uint256"
        },
        {
          "internalType": "address",
          "name": "to",
          "type": "address"
        }
      ],
      "name": "purchaseNFT",
      "outputs": [],
      "stateMutability": "payable",
      "type": "function"
    },
    {
      "inputs": [
        {
          "internalType": "address",
          "name": "from",
          "type": "address"
        },
        {
          "internalType": "address",
          "name": "to",
          "type": "address"
        },
        {
          "internalType": "uint256",
          "name": "tokenId",
          "type": "uint256"
        }
      ],
      "name": "transferFrom",
      "outputs": [],
      "stateMutability": "nonpayable",
      "type": "function"
    },
    {
      "inputs": [
        {
          "internalType": "address",
          "name": "from",
          "type": "address"
        },
        {
          "internalType": "address",
          "name": "to",
          "type": "address"
        },
        {
          "internalType": "uint256",
          "name": "tokenId",
          "type": "uint256"
        }
      ],
      "name": "safeTransferFrom",
      "outputs": [],
      "stateMutability": "nonpayable",
      "type": "function"
    },
    {
      "inputs": [
        {
          "internalType": "address",
          "name": "from",
          "type": "address"
        },
        {
          "internalType": "address",
          "name": "to",
          "type": "address"
        },
        {
          "internalType": "uint256",
          "name": "tokenId",
          "type": "uint256"
        },
        {
          "internalType": "bytes",
          "name": "_data",
          "type": "bytes"
        }
      ],
      "name": "safeTransferFrom",
      "outputs": [],
      "stateMutability": "nonpayable",
      "type": "function"
    },
    {
      "inputs": [],
      "name": "getAllNFTDetails",
      "outputs": [
        {
          "components": [
            {
              "internalType": "uint256",
              "name": "id",
              "type": "uint256"
            },
            {
              "internalType": "uint256",
              "name": "price",
              "type": "uint256"
            },
            {
              "internalType": "bool",
              "name": "onSale",
              "type": "bool"
            },
            {
              "internalType": "address",
              "name": "contractAddress",
              "type": "address"
            }
          ],
          "internalType": "struct ContractNFTHandler.NFT[]",
          "name": "",
          "type": "tuple[]"
        }
      ],
      "stateMutability": "view",
      "type": "function"
    },
    {
      "inputs": [
        {
          "internalType": "uint256",
          "name": "tokenId",
          "type": "uint256"
        }
      ],
      "name": "getNFTDetails",
      "outputs": [
        {
          "components": [
            {
              "internalType": "uint256",
              "name": "id",
              "type": "uint256"
            },
            {
              "internalType": "uint256",
              "name": "price",
              "type": "uint256"
            },
            {
              "internalType": "bool",
              "name": "onSale",
              "type": "bool"
            },
            {
              "internalType": "address",
              "name": "contractAddress",
              "type": "address"
            }
          ],
          "internalType": "struct ContractNFTHandler.NFT",
          "name": "",
          "type": "tuple"
        }
      ],
      "stateMutability": "view",
      "type": "function"
    }
  ],
  "bytecode": "0x60806040523480156200001157600080fd5b50604051620041ba380380620041ba8339818101604052810190620000379190620001ab565b81818160009080519060200190620000519291906200007d565b5080600190805190602001906200006a9291906200007d565b50505060016006819055505050620003b4565b8280546200008b90620002c5565b90600052602060002090601f016020900481019282620000af5760008555620000fb565b82601f10620000ca57805160ff1916838001178555620000fb565b82800160010185558215620000fb579182015b82811115620000fa578251825591602001919060010190620000dd565b5b5090506200010a91906200010e565b5090565b5b80821115620001295760008160009055506001016200010f565b5090565b6000620001446200013e8462000259565b62000230565b90508281526020810184848401111562000163576200016262000394565b5b620001708482856200028f565b509392505050565b600082601f83011262000190576200018f6200038f565b5b8151620001a28482602086016200012d565b91505092915050565b60008060408385031215620001c557620001c46200039e565b5b600083015167ffffffffffffffff811115620001e657620001e562000399565b5b620001f48582860162000178565b925050602083015167ffffffffffffffff81111562000218576200021762000399565b5b620002268582860162000178565b9150509250929050565b60006200023c6200024f565b90506200024a8282620002fb565b919050565b6000604051905090565b600067ffffffffffffffff82111562000277576200027662000360565b5b6200028282620003a3565b9050602081019050919050565b60005b83811015620002af57808201518184015260208101905062000292565b83811115620002bf576000848401525b50505050565b60006002820490506001821680620002de57607f821691505b60208210811415620002f557620002f462000331565b5b50919050565b6200030682620003a3565b810181811067ffffffffffffffff8211171562000328576200032762000360565b5b80604052505050565b7f4e487b7100000000000000000000000000000000000000000000000000000000600052602260045260246000fd5b7f4e487b7100000000000000000000000000000000000000000000000000000000600052604160045260246000fd5b600080fd5b600080fd5b600080fd5b600080fd5b6000601f19601f8301169050919050565b613df680620003c46000396000f3fe6080604052600436106101665760003560e01c806379800836116100d1578063a22cb4651161008a578063b88d4fde11610064578063b88d4fde14610577578063c87b56dd146105a0578063e985e9c5146105dd578063f7d975771461061a57610166565b8063a22cb465146104e8578063aa3b13d014610511578063b54c5c311461054e57610166565b806379800836146103bf5780637a9a26da146103db57806382260f351461041857806394492fcc1461045557806395d89b41146104925780639f181b5e146104bd57610166565b80632ca4fc48116101235780632ca4fc481461029f57806342842e0e146102c857806343e3dbe6146102f157806356c3e31a1461031c5780636352211e1461034557806370a082311461038257610166565b806301ffc9a71461016b57806306fdde03146101a857806307f67ced146101d3578063081812fc14610210578063095ea7b31461024d57806323b872dd14610276575b600080fd5b34801561017757600080fd5b50610192600480360381019061018d91906129ac565b610643565b60405161019f9190613079565b60405180910390f35b3480156101b457600080fd5b506101bd610725565b6040516101ca9190613094565b60405180910390f35b3480156101df57600080fd5b506101fa60048036038101906101f59190612a06565b6107b7565b6040516102079190613079565b60405180910390f35b34801561021c57600080fd5b5061023760048036038101906102329190612a06565b6107d7565b6040516102449190612ff0565b60405180910390f35b34801561025957600080fd5b50610274600480360381019061026f919061296c565b61085c565b005b34801561028257600080fd5b5061029d60048036038101906102989190612856565b610974565b005b3480156102ab57600080fd5b506102c660048036038101906102c19190612a06565b610a0d565b005b3480156102d457600080fd5b506102ef60048036038101906102ea9190612856565b610a98565b005b3480156102fd57600080fd5b50610306610b41565b6040516103139190613057565b60405180910390f35b34801561032857600080fd5b50610343600480360381019061033e919061296c565b610c9e565b005b34801561035157600080fd5b5061036c60048036038101906103679190612a06565b611014565b6040516103799190612ff0565b60405180910390f35b34801561038e57600080fd5b506103a960048036038101906103a491906127bc565b6110c6565b6040516103b69190613351565b60405180910390f35b6103d960048036038101906103d49190612a33565b61117e565b005b3480156103e757600080fd5b5061040260048036038101906103fd9190612a06565b611348565b60405161040f9190612ff0565b60405180910390f35b34801561042457600080fd5b5061043f600480360381019061043a9190612a06565b61137b565b60405161044c9190613336565b60405180910390f35b34801561046157600080fd5b5061047c600480360381019061047791906127bc565b61142f565b6040516104899190613351565b60405180910390f35b34801561049e57600080fd5b506104a7611447565b6040516104b49190613094565b60405180910390f35b3480156104c957600080fd5b506104d26114d9565b6040516104df9190613351565b60405180910390f35b3480156104f457600080fd5b5061050f600480360381019061050a919061292c565b6114df565b005b34801561051d57600080fd5b5061053860048036038101906105339190612a06565b611660565b6040516105459190613351565b60405180910390f35b34801561055a57600080fd5b5061057560048036038101906105709190612a73565b611678565b005b34801561058357600080fd5b5061059e600480360381019061059991906128a9565b6116f9565b005b3480156105ac57600080fd5b506105c760048036038101906105c29190612a06565b611794565b6040516105d49190613094565b60405180910390f35b3480156105e957600080fd5b5061060460048036038101906105ff9190612816565b61183b565b6040516106119190613079565b60405180910390f35b34801561062657600080fd5b50610641600480360381019061063c9190612ab3565b6118cf565b005b60007f80ac58cd000000000000000000000000000000000000000000000000000000007bffffffffffffffffffffffffffffffffffffffffffffffffffffffff1916827bffffffffffffffffffffffffffffffffffffffffffffffffffffffff1916148061070e57507f5b5e139f000000000000000000000000000000000000000000000000000000007bffffffffffffffffffffffffffffffffffffffffffffffffffffffff1916827bffffffffffffffffffffffffffffffffffffffffffffffffffffffff1916145b8061071e575061071d8261193d565b5b9050919050565b60606000805461073490613609565b80601f016020809104026020016040519081016040528092919081815260200182805461076090613609565b80156107ad5780601f10610782576101008083540402835291602001916107ad565b820191906000526020600020905b81548152906001019060200180831161079057829003601f168201915b5050505050905090565b600a6020528060005260406000206000915054906101000a900460ff1681565b60006107e2826119a7565b610821576040517f08c379a000000000000000000000000000000000000000000000000000000000815260040161081890613256565b60405180910390fd5b6004600083815260200190815260200160002060009054906101000a900473ffffffffffffffffffffffffffffffffffffffff169050919050565b600061086782611014565b90508073ffffffffffffffffffffffffffffffffffffffff168373ffffffffffffffffffffffffffffffffffffffff1614156108d8576040517f08c379a00000000000000000000000000000000000000000000000000000000081526004016108cf906132d6565b60405180910390fd5b8073ffffffffffffffffffffffffffffffffffffffff166108f7611a13565b73ffffffffffffffffffffffffffffffffffffffff161480610926575061092581610920611a13565b61183b565b5b610965576040517f08c379a000000000000000000000000000000000000000000000000000000000815260040161095c906131d6565b60405180910390fd5b61096f8383611a1b565b505050565b8061097e81611014565b73ffffffffffffffffffffffffffffffffffffffff1661099c611a13565b73ffffffffffffffffffffffffffffffffffffffff16146109f2576040517f08c379a00000000000000000000000000000000000000000000000000000000081526004016109e990613316565b60405180910390fd5b6109fd848484611ad4565b610a078284611d30565b50505050565b80610a1781611014565b73ffffffffffffffffffffffffffffffffffffffff16610a35611a13565b73ffffffffffffffffffffffffffffffffffffffff1614610a8b576040517f08c379a0000000000000000000000000000000000000000000000000000000008152600401610a8290613316565b60405180910390fd5b610a9482611dd8565b5050565b80610aa281611014565b73ffffffffffffffffffffffffffffffffffffffff16610ac0611a13565b73ffffffffffffffffffffffffffffffffffffffff1614610b16576040517f08c379a0000000000000000000000000000000000000000000000000000000008152600401610b0d90613316565b60405180910390fd5b610b31848484604051806020016040528060008152506116f9565b610b3b8284611d30565b50505050565b606060006001600654610b54919061351f565b67ffffffffffffffff811115610b6d57610b6c6137a2565b5b604051908082528060200260200182016040528015610ba657816020015b610b9361268e565b815260200190600190039081610b8b5790505b5090506000600190505b600654811015610c9657604051806080016040528082815260200160096000848152602001908152602001600020548152602001600a600084815260200190815260200160002060009054906101000a900460ff16151581526020016008600084815260200190815260200160002060009054906101000a900473ffffffffffffffffffffffffffffffffffffffff1673ffffffffffffffffffffffffffffffffffffffff1681525082600183610c67919061351f565b81518110610c7857610c77613773565b5b60200260200101819052508080610c8e9061366c565b915050610bb0565b508091505090565b6000600760008473ffffffffffffffffffffffffffffffffffffffff1673ffffffffffffffffffffffffffffffffffffffff1681526020019081526020016000205414610d20576040517f08c379a0000000000000000000000000000000000000000000000000000000008152600401610d17906132f6565b60405180910390fd5b6000829050610d2d611a13565b73ffffffffffffffffffffffffffffffffffffffff168173ffffffffffffffffffffffffffffffffffffffff1663893d20e86040518163ffffffff1660e01b815260040160206040518083038186803b158015610d8957600080fd5b505afa158015610d9d573d6000803e3d6000fd5b505050506040513d601f19601f82011682018060405250810190610dc191906127e9565b73ffffffffffffffffffffffffffffffffffffffff1614610e17576040517f08c379a0000000000000000000000000000000000000000000000000000000008152600401610e0e906130d6565b60405180910390fd5b3073ffffffffffffffffffffffffffffffffffffffff168173ffffffffffffffffffffffffffffffffffffffff1663d42c60f96040518163ffffffff1660e01b815260040160206040518083038186803b158015610e7457600080fd5b505afa158015610e88573d6000803e3d6000fd5b505050506040513d601f19601f82011682018060405250810190610eac91906127e9565b73ffffffffffffffffffffffffffffffffffffffff1614610f02576040517f08c379a0000000000000000000000000000000000000000000000000000000008152600401610ef990613176565b60405180910390fd5b600654600760008573ffffffffffffffffffffffffffffffffffffffff1673ffffffffffffffffffffffffffffffffffffffff168152602001908152602001600020819055508260086000600654815260200190815260200160002060006101000a81548173ffffffffffffffffffffffffffffffffffffffff021916908373ffffffffffffffffffffffffffffffffffffffff16021790555081600960006006548152602001908152602001600020819055506000600a6000600654815260200190815260200160002060006101000a81548160ff021916908315150217905550610ff7610fef611a13565b600654611ed5565b6006600081548092919061100a9061366c565b9190505550505050565b6000806002600084815260200190815260200160002060009054906101000a900473ffffffffffffffffffffffffffffffffffffffff169050600073ffffffffffffffffffffffffffffffffffffffff168173ffffffffffffffffffffffffffffffffffffffff1614156110bd576040517f08c379a00000000000000000000000000000000000000000000000000000000081526004016110b490613216565b60405180910390fd5b80915050919050565b60008073ffffffffffffffffffffffffffffffffffffffff168273ffffffffffffffffffffffffffffffffffffffff161415611137576040517f08c379a000000000000000000000000000000000000000000000000000000000815260040161112e906131f6565b60405180910390fd5b600360008373ffffffffffffffffffffffffffffffffffffffff1673ffffffffffffffffffffffffffffffffffffffff168152602001908152602001600020549050919050565b81600a600082815260200190815260200160002060009054906101000a900460ff166111df576040517f08c379a00000000000000000000000000000000000000000000000000000000081526004016111d6906131b6565b60405180910390fd5b60006009600085815260200190815260200160002054905060018161120491906134c5565b341015611246576040517f08c379a000000000000000000000000000000000000000000000000000000000815260040161123d906130b6565b60405180910390fd5b600061125185611014565b905061125e818587611ad4565b6112688585611d30565b600061127386611014565b905060003390508173ffffffffffffffffffffffffffffffffffffffff166108fc859081150290604051600060405180830381858888f193505050501580156112c0573d6000803e3d6000fd5b508073ffffffffffffffffffffffffffffffffffffffff166108fc85346112e7919061351f565b9081150290604051600060405180830381858888f19350505050158015611312573d6000803e3d6000fd5b506000600a600089815260200190815260200160002060006101000a81548160ff02191690831515021790555050505050505050565b60086020528060005260406000206000915054906101000a900473ffffffffffffffffffffffffffffffffffffffff1681565b61138361268e565b6000604051806080016040528084815260200160096000868152602001908152602001600020548152602001600a600086815260200190815260200160002060009054906101000a900460ff16151581526020016008600086815260200190815260200160002060009054906101000a900473ffffffffffffffffffffffffffffffffffffffff1673ffffffffffffffffffffffffffffffffffffffff16815250905080915050919050565b60076020528060005260406000206000915090505481565b60606001805461145690613609565b80601f016020809104026020016040519081016040528092919081815260200182805461148290613609565b80156114cf5780601f106114a4576101008083540402835291602001916114cf565b820191906000526020600020905b8154815290600101906020018083116114b257829003601f168201915b5050505050905090565b60065481565b6114e7611a13565b73ffffffffffffffffffffffffffffffffffffffff168273ffffffffffffffffffffffffffffffffffffffff161415611555576040517f08c379a000000000000000000000000000000000000000000000000000000000815260040161154c90613156565b60405180910390fd5b8060056000611562611a13565b73ffffffffffffffffffffffffffffffffffffffff1673ffffffffffffffffffffffffffffffffffffffff16815260200190815260200160002060008473ffffffffffffffffffffffffffffffffffffffff1673ffffffffffffffffffffffffffffffffffffffff16815260200190815260200160002060006101000a81548160ff0219169083151502179055508173ffffffffffffffffffffffffffffffffffffffff1661160f611a13565b73ffffffffffffffffffffffffffffffffffffffff167f17307eab39ab6107e8899845ad3d59bd9653f200f220920489ca2b5937696c31836040516116549190613079565b60405180910390a35050565b60096020528060005260406000206000915090505481565b8161168a611684611a13565b82611ef3565b6116c9576040517f08c379a00000000000000000000000000000000000000000000000000000000081526004016116c090613276565b60405180910390fd5b81600a600085815260200190815260200160002060006101000a81548160ff021916908315150217905550505050565b8161170381611014565b73ffffffffffffffffffffffffffffffffffffffff16611721611a13565b73ffffffffffffffffffffffffffffffffffffffff1614611777576040517f08c379a000000000000000000000000000000000000000000000000000000000815260040161176e90613316565b60405180910390fd5b61178385858585611fd1565b61178d8385611d30565b5050505050565b606061179f826119a7565b6117de576040517f08c379a00000000000000000000000000000000000000000000000000000000081526004016117d5906132b6565b60405180910390fd5b60006117e861202d565b905060008151116118085760405180602001604052806000815250611833565b8061181284612044565b604051602001611823929190612fcc565b6040516020818303038152906040525b915050919050565b6000600560008473ffffffffffffffffffffffffffffffffffffffff1673ffffffffffffffffffffffffffffffffffffffff16815260200190815260200160002060008373ffffffffffffffffffffffffffffffffffffffff1673ffffffffffffffffffffffffffffffffffffffff16815260200190815260200160002060009054906101000a900460ff16905092915050565b816118e16118db611a13565b82611ef3565b611920576040517f08c379a000000000000000000000000000000000000000000000000000000000815260040161191790613276565b60405180910390fd5b816009600085815260200190815260200160002081905550505050565b60007f01ffc9a7000000000000000000000000000000000000000000000000000000007bffffffffffffffffffffffffffffffffffffffffffffffffffffffff1916827bffffffffffffffffffffffffffffffffffffffffffffffffffffffff1916149050919050565b60008073ffffffffffffffffffffffffffffffffffffffff166002600084815260200190815260200160002060009054906101000a900473ffffffffffffffffffffffffffffffffffffffff1673ffffffffffffffffffffffffffffffffffffffff1614159050919050565b600033905090565b816004600083815260200190815260200160002060006101000a81548173ffffffffffffffffffffffffffffffffffffffff021916908373ffffffffffffffffffffffffffffffffffffffff160217905550808273ffffffffffffffffffffffffffffffffffffffff16611a8e83611014565b73ffffffffffffffffffffffffffffffffffffffff167f8c5be1e5ebec7d5bd14f71427d1e84f3dd0314c0f7b2291e5b200ac8c7c3b92560405160405180910390a45050565b8273ffffffffffffffffffffffffffffffffffffffff16611af482611014565b73ffffffffffffffffffffffffffffffffffffffff1614611b4a576040517f08c379a0000000000000000000000000000000000000000000000000000000008152600401611b4190613296565b60405180910390fd5b600073ffffffffffffffffffffffffffffffffffffffff168273ffffffffffffffffffffffffffffffffffffffff161415611bba576040517f08c379a0000000000000000000000000000000000000000000000000000000008152600401611bb190613136565b60405180910390fd5b611bc58383836121a5565b611bd0600082611a1b565b6001600360008573ffffffffffffffffffffffffffffffffffffffff1673ffffffffffffffffffffffffffffffffffffffff1681526020019081526020016000206000828254611c20919061351f565b925050819055506001600360008473ffffffffffffffffffffffffffffffffffffffff1673ffffffffffffffffffffffffffffffffffffffff1681526020019081526020016000206000828254611c77919061343e565b92505081905550816002600083815260200190815260200160002060006101000a81548173ffffffffffffffffffffffffffffffffffffffff021916908373ffffffffffffffffffffffffffffffffffffffff160217905550808273ffffffffffffffffffffffffffffffffffffffff168473ffffffffffffffffffffffffffffffffffffffff167fddf252ad1be2c89b69c2b068fc378daa952ba7f163c4a11628f55a4df523b3ef60405160405180910390a4505050565b60006008600084815260200190815260200160002060009054906101000a900473ffffffffffffffffffffffffffffffffffffffff1690508073ffffffffffffffffffffffffffffffffffffffff1663f2fde38b836040518263ffffffff1660e01b8152600401611da19190612ff0565b600060405180830381600087803b158015611dbb57600080fd5b505af1158015611dcf573d6000803e3d6000fd5b50505050505050565b611de3816000611d30565b6009600082815260200190815260200160002060009055600a600082815260200190815260200160002060006101000a81549060ff0219169055600760006008600084815260200190815260200160002060009054906101000a900473ffffffffffffffffffffffffffffffffffffffff1673ffffffffffffffffffffffffffffffffffffffff1673ffffffffffffffffffffffffffffffffffffffff168152602001908152602001600020600090556008600082815260200190815260200160002060006101000a81549073ffffffffffffffffffffffffffffffffffffffff0219169055611ed2816121aa565b50565b611eef8282604051806020016040528060008152506122bb565b5050565b6000611efe826119a7565b611f3d576040517f08c379a0000000000000000000000000000000000000000000000000000000008152600401611f3490613196565b60405180910390fd5b6000611f4883611014565b90508073ffffffffffffffffffffffffffffffffffffffff168473ffffffffffffffffffffffffffffffffffffffff161480611fb757508373ffffffffffffffffffffffffffffffffffffffff16611f9f846107d7565b73ffffffffffffffffffffffffffffffffffffffff16145b80611fc85750611fc7818561183b565b5b91505092915050565b611fdc848484611ad4565b611fe884848484612316565b612027576040517f08c379a000000000000000000000000000000000000000000000000000000000815260040161201e906130f6565b60405180910390fd5b50505050565b606060405180602001604052806000815250905090565b6060600082141561208c576040518060400160405280600181526020017f300000000000000000000000000000000000000000000000000000000000000081525090506121a0565b600082905060005b600082146120be5780806120a79061366c565b915050600a826120b79190613494565b9150612094565b60008167ffffffffffffffff8111156120da576120d96137a2565b5b6040519080825280601f01601f19166020018201604052801561210c5781602001600182028036833780820191505090505b5090505b6000851461219957600182612125919061351f565b9150600a8561213491906136b5565b6030612140919061343e565b60f81b81838151811061215657612155613773565b5b60200101907effffffffffffffffffffffffffffffffffffffffffffffffffffffffffffff1916908160001a905350600a856121929190613494565b9450612110565b8093505050505b919050565b505050565b60006121b582611014565b90506121c3816000846121a5565b6121ce600083611a1b565b6001600360008373ffffffffffffffffffffffffffffffffffffffff1673ffffffffffffffffffffffffffffffffffffffff168152602001908152602001600020600082825461221e919061351f565b925050819055506002600083815260200190815260200160002060006101000a81549073ffffffffffffffffffffffffffffffffffffffff021916905581600073ffffffffffffffffffffffffffffffffffffffff168273ffffffffffffffffffffffffffffffffffffffff167fddf252ad1be2c89b69c2b068fc378daa952ba7f163c4a11628f55a4df523b3ef60405160405180910390a45050565b6122c583836124ad565b6122d26000848484612316565b612311576040517f08c379a0000000000000000000000000000000000000000000000000000000008152600401612308906130f6565b60405180910390fd5b505050565b60006123378473ffffffffffffffffffffffffffffffffffffffff1661267b565b156124a0578373ffffffffffffffffffffffffffffffffffffffff1663150b7a02612360611a13565b8786866040518563ffffffff1660e01b8152600401612382949392919061300b565b602060405180830381600087803b15801561239c57600080fd5b505af19250505080156123cd57506040513d601f19601f820116820180604052508101906123ca91906129d9565b60015b612450573d80600081146123fd576040519150601f19603f3d011682016040523d82523d6000602084013e612402565b606091505b50600081511415612448576040517f08c379a000000000000000000000000000000000000000000000000000000000815260040161243f906130f6565b60405180910390fd5b805181602001fd5b63150b7a0260e01b7bffffffffffffffffffffffffffffffffffffffffffffffffffffffff1916817bffffffffffffffffffffffffffffffffffffffffffffffffffffffff1916149150506124a5565b600190505b949350505050565b600073ffffffffffffffffffffffffffffffffffffffff168273ffffffffffffffffffffffffffffffffffffffff16141561251d576040517f08c379a000000000000000000000000000000000000000000000000000000000815260040161251490613236565b60405180910390fd5b612526816119a7565b15612566576040517f08c379a000000000000000000000000000000000000000000000000000000000815260040161255d90613116565b60405180910390fd5b612572600083836121a5565b6001600360008473ffffffffffffffffffffffffffffffffffffffff1673ffffffffffffffffffffffffffffffffffffffff16815260200190815260200160002060008282546125c2919061343e565b92505081905550816002600083815260200190815260200160002060006101000a81548173ffffffffffffffffffffffffffffffffffffffff021916908373ffffffffffffffffffffffffffffffffffffffff160217905550808273ffffffffffffffffffffffffffffffffffffffff16600073ffffffffffffffffffffffffffffffffffffffff167fddf252ad1be2c89b69c2b068fc378daa952ba7f163c4a11628f55a4df523b3ef60405160405180910390a45050565b600080823b905060008111915050919050565b60405180608001604052806000815260200160008152602001600015158152602001600073ffffffffffffffffffffffffffffffffffffffff1681525090565b60006126e16126dc84613391565b61336c565b9050828152602081018484840111156126fd576126fc6137d6565b5b6127088482856135c7565b509392505050565b60008135905061271f81613d64565b92915050565b60008151905061273481613d64565b92915050565b60008135905061274981613d7b565b92915050565b60008135905061275e81613d92565b92915050565b60008151905061277381613d92565b92915050565b600082601f83011261278e5761278d6137d1565b5b813561279e8482602086016126ce565b91505092915050565b6000813590506127b681613da9565b92915050565b6000602082840312156127d2576127d16137e0565b5b60006127e084828501612710565b91505092915050565b6000602082840312156127ff576127fe6137e0565b5b600061280d84828501612725565b91505092915050565b6000806040838503121561282d5761282c6137e0565b5b600061283b85828601612710565b925050602061284c85828601612710565b9150509250929050565b60008060006060848603121561286f5761286e6137e0565b5b600061287d86828701612710565b935050602061288e86828701612710565b925050604061289f868287016127a7565b9150509250925092565b600080600080608085870312156128c3576128c26137e0565b5b60006128d187828801612710565b94505060206128e287828801612710565b93505060406128f3878288016127a7565b925050606085013567ffffffffffffffff811115612914576129136137db565b5b61292087828801612779565b91505092959194509250565b60008060408385031215612943576129426137e0565b5b600061295185828601612710565b92505060206129628582860161273a565b9150509250929050565b60008060408385031215612983576129826137e0565b5b600061299185828601612710565b92505060206129a2858286016127a7565b9150509250929050565b6000602082840312156129c2576129c16137e0565b5b60006129d08482850161274f565b91505092915050565b6000602082840312156129ef576129ee6137e0565b5b60006129fd84828501612764565b91505092915050565b600060208284031215612a1c57612a1b6137e0565b5b6000612a2a848285016127a7565b91505092915050565b60008060408385031215612a4a57612a496137e0565b5b6000612a58858286016127a7565b9250506020612a6985828601612710565b9150509250929050565b60008060408385031215612a8a57612a896137e0565b5b6000612a98858286016127a7565b9250506020612aa98582860161273a565b9150509250929050565b60008060408385031215612aca57612ac96137e0565b5b6000612ad8858286016127a7565b9250506020612ae9858286016127a7565b9150509250929050565b6000612aff8383612f04565b60808301905092915050565b612b1481613553565b82525050565b612b2381613553565b82525050565b6000612b34826133d2565b612b3e8185613400565b9350612b49836133c2565b8060005b83811015612b7a578151612b618882612af3565b9750612b6c836133f3565b925050600181019050612b4d565b5085935050505092915050565b612b9081613565565b82525050565b612b9f81613565565b82525050565b6000612bb0826133dd565b612bba8185613411565b9350612bca8185602086016135d6565b612bd3816137e5565b840191505092915050565b6000612be9826133e8565b612bf38185613422565b9350612c038185602086016135d6565b612c0c816137e5565b840191505092915050565b6000612c22826133e8565b612c2c8185613433565b9350612c3c8185602086016135d6565b80840191505092915050565b6000612c55601083613422565b9150612c60826137f6565b602082019050919050565b6000612c78602f83613422565b9150612c838261381f565b604082019050919050565b6000612c9b603283613422565b9150612ca68261386e565b604082019050919050565b6000612cbe601c83613422565b9150612cc9826138bd565b602082019050919050565b6000612ce1602483613422565b9150612cec826138e6565b604082019050919050565b6000612d04601983613422565b9150612d0f82613935565b602082019050919050565b6000612d27604283613422565b9150612d328261395e565b606082019050919050565b6000612d4a602c83613422565b9150612d55826139d3565b604082019050919050565b6000612d6d602283613422565b9150612d7882613a22565b604082019050919050565b6000612d90603883613422565b9150612d9b82613a71565b604082019050919050565b6000612db3602a83613422565b9150612dbe82613ac0565b604082019050919050565b6000612dd6602983613422565b9150612de182613b0f565b604082019050919050565b6000612df9602083613422565b9150612e0482613b5e565b602082019050919050565b6000612e1c602c83613422565b9150612e2782613b87565b604082019050919050565b6000612e3f602c83613422565b9150612e4a82613bd6565b604082019050919050565b6000612e62602983613422565b9150612e6d82613c25565b604082019050919050565b6000612e85602f83613422565b9150612e9082613c74565b604082019050919050565b6000612ea8602183613422565b9150612eb382613cc3565b604082019050919050565b6000612ecb601783613422565b9150612ed682613d12565b602082019050919050565b6000612eee601b83613422565b9150612ef982613d3b565b602082019050919050565b608082016000820151612f1a6000850182612fae565b506020820151612f2d6020850182612fae565b506040820151612f406040850182612b87565b506060820151612f536060850182612b0b565b50505050565b608082016000820151612f6f6000850182612fae565b506020820151612f826020850182612fae565b506040820151612f956040850182612b87565b506060820151612fa86060850182612b0b565b50505050565b612fb7816135bd565b82525050565b612fc6816135bd565b82525050565b6000612fd88285612c17565b9150612fe48284612c17565b91508190509392505050565b60006020820190506130056000830184612b1a565b92915050565b60006080820190506130206000830187612b1a565b61302d6020830186612b1a565b61303a6040830185612fbd565b818103606083015261304c8184612ba5565b905095945050505050565b600060208201905081810360008301526130718184612b29565b905092915050565b600060208201905061308e6000830184612b96565b92915050565b600060208201905081810360008301526130ae8184612bde565b905092915050565b600060208201905081810360008301526130cf81612c48565b9050919050565b600060208201905081810360008301526130ef81612c6b565b9050919050565b6000602082019050818103600083015261310f81612c8e565b9050919050565b6000602082019050818103600083015261312f81612cb1565b9050919050565b6000602082019050818103600083015261314f81612cd4565b9050919050565b6000602082019050818103600083015261316f81612cf7565b9050919050565b6000602082019050818103600083015261318f81612d1a565b9050919050565b600060208201905081810360008301526131af81612d3d565b9050919050565b600060208201905081810360008301526131cf81612d60565b9050919050565b600060208201905081810360008301526131ef81612d83565b9050919050565b6000602082019050818103600083015261320f81612da6565b9050919050565b6000602082019050818103600083015261322f81612dc9565b9050919050565b6000602082019050818103600083015261324f81612dec565b9050919050565b6000602082019050818103600083015261326f81612e0f565b9050919050565b6000602082019050818103600083015261328f81612e32565b9050919050565b600060208201905081810360008301526132af81612e55565b9050919050565b600060208201905081810360008301526132cf81612e78565b9050919050565b600060208201905081810360008301526132ef81612e9b565b9050919050565b6000602082019050818103600083015261330f81612ebe565b9050919050565b6000602082019050818103600083015261332f81612ee1565b9050919050565b600060808201905061334b6000830184612f59565b92915050565b60006020820190506133666000830184612fbd565b92915050565b6000613376613387565b9050613382828261363b565b919050565b6000604051905090565b600067ffffffffffffffff8211156133ac576133ab6137a2565b5b6133b5826137e5565b9050602081019050919050565b6000819050602082019050919050565b600081519050919050565b600081519050919050565b600081519050919050565b6000602082019050919050565b600082825260208201905092915050565b600082825260208201905092915050565b600082825260208201905092915050565b600081905092915050565b6000613449826135bd565b9150613454836135bd565b9250827fffffffffffffffffffffffffffffffffffffffffffffffffffffffffffffffff03821115613489576134886136e6565b5b828201905092915050565b600061349f826135bd565b91506134aa836135bd565b9250826134ba576134b9613715565b5b828204905092915050565b60006134d0826135bd565b91506134db836135bd565b9250817fffffffffffffffffffffffffffffffffffffffffffffffffffffffffffffffff0483118215151615613514576135136136e6565b5b828202905092915050565b600061352a826135bd565b9150613535836135bd565b925082821015613548576135476136e6565b5b828203905092915050565b600061355e8261359d565b9050919050565b60008115159050919050565b60007fffffffff0000000000000000000000000000000000000000000000000000000082169050919050565b600073ffffffffffffffffffffffffffffffffffffffff82169050919050565b6000819050919050565b82818337600083830152505050565b60005b838110156135f45780820151818401526020810190506135d9565b83811115613603576000848401525b50505050565b6000600282049050600182168061362157607f821691505b6020821081141561363557613634613744565b5b50919050565b613644826137e5565b810181811067ffffffffffffffff82111715613663576136626137a2565b5b80604052505050565b6000613677826135bd565b91507fffffffffffffffffffffffffffffffffffffffffffffffffffffffffffffffff8214156136aa576136a96136e6565b5b600182019050919050565b60006136c0826135bd565b91506136cb836135bd565b9250826136db576136da613715565b5b828206905092915050565b7f4e487b7100000000000000000000000000000000000000000000000000000000600052601160045260246000fd5b7f4e487b7100000000000000000000000000000000000000000000000000000000600052601260045260246000fd5b7f4e487b7100000000000000000000000000000000000000000000000000000000600052602260045260246000fd5b7f4e487b7100000000000000000000000000000000000000000000000000000000600052603260045260246000fd5b7f4e487b7100000000000000000000000000000000000000000000000000000000600052604160045260246000fd5b600080fd5b600080fd5b600080fd5b600080fd5b6000601f19601f8301169050919050565b7f4e6f7420656e6f756768206d6f6e657900000000000000000000000000000000600082015250565b7f596f752063616e2774206d696e74204e465420666f72206120636f6e7472616360008201527f7420796f7520646f6e2774206f776e0000000000000000000000000000000000602082015250565b7f4552433732313a207472616e7366657220746f206e6f6e20455243373231526560008201527f63656976657220696d706c656d656e7465720000000000000000000000000000602082015250565b7f4552433732313a20746f6b656e20616c7265616479206d696e74656400000000600082015250565b7f4552433732313a207472616e7366657220746f20746865207a65726f2061646460008201527f7265737300000000000000000000000000000000000000000000000000000000602082015250565b7f4552433732313a20617070726f766520746f2063616c6c657200000000000000600082015250565b7f48616e646c657220636f6e74726163742061646472657373206861736e27742060008201527f6265656e207365742070726f7065726c7920696e20796f757220636f6e74726160208201527f6374000000000000000000000000000000000000000000000000000000000000604082015250565b7f4552433732313a206f70657261746f7220717565727920666f72206e6f6e657860008201527f697374656e7420746f6b656e0000000000000000000000000000000000000000602082015250565b7f436f6e7472616374206973206e6f742063757272656e746c7920666f7220736160008201527f6c65000000000000000000000000000000000000000000000000000000000000602082015250565b7f4552433732313a20617070726f76652063616c6c6572206973206e6f74206f7760008201527f6e6572206e6f7220617070726f76656420666f7220616c6c0000000000000000602082015250565b7f4552433732313a2062616c616e636520717565727920666f7220746865207a6560008201527f726f206164647265737300000000000000000000000000000000000000000000602082015250565b7f4552433732313a206f776e657220717565727920666f72206e6f6e657869737460008201527f656e7420746f6b656e0000000000000000000000000000000000000000000000602082015250565b7f4552433732313a206d696e7420746f20746865207a65726f2061646472657373600082015250565b7f4552433732313a20617070726f76656420717565727920666f72206e6f6e657860008201527f697374656e7420746f6b656e0000000000000000000000000000000000000000602082015250565b7f4552433732313a2063616c6c6572206973206e656974686572206f776e65722060008201527f6e6f7220617070726f7665640000000000000000000000000000000000000000602082015250565b7f4552433732313a207472616e73666572206f6620746f6b656e2074686174206960008201527f73206e6f74206f776e0000000000000000000000000000000000000000000000602082015250565b7f4552433732314d657461646174613a2055524920717565727920666f72206e6f60008201527f6e6578697374656e7420746f6b656e0000000000000000000000000000000000602082015250565b7f4552433732313a20617070726f76616c20746f2063757272656e74206f776e6560008201527f7200000000000000000000000000000000000000000000000000000000000000602082015250565b7f436f6e747261637420616c7265616479206d696e746564000000000000000000600082015250565b7f4552433732313a2063616c6c6572206973206e6f74206f776e65720000000000600082015250565b613d6d81613553565b8114613d7857600080fd5b50565b613d8481613565565b8114613d8f57600080fd5b50565b613d9b81613571565b8114613da657600080fd5b50565b613db2816135bd565b8114613dbd57600080fd5b5056fea26469706673582212208ceb95390995b3a2a3b18bcffae522a3925fb38a0186b5c5ebb71e4d13a5762664736f6c63430008070033",
  "immutableReferences": {},
  "source": "// SPDX-License-Identifier: Unlicensed\r\npragma solidity ^0.8;\r\nimport \"@openzeppelin/contracts/token/ERC721/ERC721.sol\";\r\nimport \"./NFTContract.sol\";\r\n\r\ncontract ContractNFTHandler is ERC721 {\r\n    constructor (string memory _name, string memory _symbol) ERC721(_name, _symbol) {\r\n        tokenCount = 1;\r\n    }\r\n\r\n    struct NFT {\r\n        uint256 id;\r\n        uint256 price;\r\n        bool onSale;\r\n        address contractAddress;\r\n    }\r\n\r\n    uint256 public tokenCount;\r\n    mapping (address => uint256) public _tokenAddressToId;\r\n    mapping (uint256 => address) public _tokenIdtoAdderss;    \r\n    mapping (uint256 => uint256) public _tokenPrices;\r\n    mapping (uint256 => bool) public _forSale;\r\n\r\n    modifier isForSale(uint256 tokenId) {\r\n        require(_forSale[tokenId], \"Contract is not currently for sale\");\r\n        _;\r\n    }\r\n\r\n    modifier isOwner(uint256 tokenId) {\r\n        require(_msgSender()==ownerOf(tokenId), \"ERC721: caller is not owner\");\r\n        _;\r\n    }\r\n\r\n    modifier isApprovedOrOwner(uint256 tokenId) {\r\n        require(_isApprovedOrOwner(_msgSender(), tokenId), \"ERC721: caller is neither owner nor approved\");\r\n        _;\r\n    }\r\n\r\n    function _updateOwnershipInNFT(uint256 tokenId, address to) private {\r\n        NFTContract nft = NFTContract(_tokenIdtoAdderss[tokenId]);\r\n        nft.transferOwnership(to);\r\n    }\r\n\r\n    function _burn(uint256 tokenId) internal virtual override {\r\n        _updateOwnershipInNFT(tokenId, address(0));\r\n        delete _tokenPrices[tokenId];\r\n        delete _forSale[tokenId];\r\n        delete _tokenAddressToId[_tokenIdtoAdderss[tokenId]];\r\n        delete _tokenIdtoAdderss[tokenId];\r\n        super._burn(tokenId);\r\n    }\r\n    \r\n    /**\r\n     * @dev Mint an NFT for a smart contract that inherits from NFTContract.sol\r\n     * Can't mint NFT for contract if caller is not owner or contract hasn't\r\n     * set handler contract address or the NFT for that contrat's ownership has already been minted\r\n     */\r\n    function mintContract(address contractAddress, uint256 price) external {\r\n        require(_tokenAddressToId[contractAddress]==0, \"Contract already minted\");\r\n        NFTContract nft = NFTContract(contractAddress);\r\n        require(nft.getOwner()==_msgSender(), \"You can't mint NFT for a contract you don't own\");\r\n        require(nft.getHandlerContract()==address(this), \"Handler contract address hasn't been set properly in your contract\");\r\n        _tokenAddressToId[contractAddress] = tokenCount;\r\n        _tokenIdtoAdderss[tokenCount] = contractAddress;\r\n        _tokenPrices[tokenCount] = price;\r\n        _forSale[tokenCount] = false;\r\n        _safeMint(_msgSender(), tokenCount);\r\n        tokenCount++;\r\n    }\r\n\r\n    function burnContract(uint256 tokenId) external isOwner(tokenId){\r\n        _burn(tokenId);\r\n    }\r\n\r\n    function setPrice(uint256 tokenId, uint256 price) external isApprovedOrOwner(tokenId) {\r\n        _tokenPrices[tokenId] = price;\r\n    }\r\n\r\n    // Change the sale status of an NFT if the sale status of an NFT is false, it can no longer be pruchased using the purchaseNFT function\r\n    function setSaleStatus(uint256 tokenId, bool saleStatus) external isApprovedOrOwner(tokenId) {\r\n        _forSale[tokenId] = saleStatus;\r\n    }\r\n\r\n    // Change ownership of an NFT currently on sale\r\n    function purchaseNFT(uint256 tokenId, address to) external payable isForSale(tokenId) {\r\n        uint256 price = _tokenPrices[tokenId];\r\n        require(msg.value>=price*(1 wei), \"Not enough money\");\r\n\r\n        // Transfer record of ownership\r\n        address currentOwner = ownerOf(tokenId);\r\n        _transfer(currentOwner, to, tokenId);\r\n        _updateOwnershipInNFT(tokenId, to);\r\n\r\n        // Pay the original owner and refund the excess money to the buyer\r\n        address payable owner = payable(ownerOf(tokenId));\r\n        address payable buyer = payable(msg.sender);\r\n        owner.transfer(price);\r\n        buyer.transfer(msg.value-price);\r\n\r\n        // Set sale status to false\r\n        _forSale[tokenId] = false;\r\n    }\r\n\r\n    // Overriding base transfer functions to include _updateOwnershipNFT\r\n    function transferFrom(address from, address to, uint256 tokenId) public virtual override isOwner(tokenId) {\r\n        _transfer(from, to, tokenId);\r\n        _updateOwnershipInNFT(tokenId, to);\r\n    }\r\n\r\n    function safeTransferFrom(address from, address to, uint256 tokenId) public virtual override isOwner(tokenId) {\r\n        safeTransferFrom(from, to, tokenId, \"\");\r\n        _updateOwnershipInNFT(tokenId, to);\r\n    }\r\n\r\n    function safeTransferFrom(address from, address to, uint256 tokenId, bytes memory _data) public virtual override isOwner(tokenId) {\r\n        _safeTransfer(from, to, tokenId, _data);\r\n        _updateOwnershipInNFT(tokenId, to);\r\n    }\r\n\r\n    function getAllNFTDetails() public view returns(NFT[] memory) {\r\n        NFT[] memory nftDetails = new NFT[](tokenCount-1);\r\n        for (uint i=1; i<tokenCount; i++) {\r\n            nftDetails[i-1] = NFT(i, _tokenPrices[i], _forSale[i], _tokenIdtoAdderss[i]);\r\n        }\r\n        return nftDetails;\r\n    }\r\n\r\n    function getNFTDetails(uint256 tokenId) public view returns(NFT memory) {\r\n        NFT memory nftDetails = NFT(tokenId, _tokenPrices[tokenId], _forSale[tokenId], _tokenIdtoAdderss[tokenId]);\r\n        return nftDetails;\r\n    }\r\n}",
  "sourcePath": "C:\\Users\\alok2\\Downloads\\solidity_projects\\ContractsAsNFTs\\contract_code\\contracts\\ContractNFTHandler.sol",
  "compiler": {
    "name": "solc",
    "version": "0.8.7+commit.e28d00a7.Emscripten.clang"
  },
  "schemaVersion": "3.4.3",
  "updatedAt": "2021-09-20T16:52:17.235Z",
  "devdoc": {
    "kind": "dev",
    "methods": {
      "approve(address,uint256)": {
        "details": "See {IERC721-approve}."
      },
      "balanceOf(address)": {
        "details": "See {IERC721-balanceOf}."
      },
      "getApproved(uint256)": {
        "details": "See {IERC721-getApproved}."
      },
      "isApprovedForAll(address,address)": {
        "details": "See {IERC721-isApprovedForAll}."
      },
      "mintContract(address,uint256)": {
        "details": "Mint an NFT for a smart contract that inherits from NFTContract.sol Can't mint NFT for contract if caller is not owner or contract hasn't set handler contract address or the NFT for that contrat's ownership has already been minted"
      },
      "name()": {
        "details": "See {IERC721Metadata-name}."
      },
      "ownerOf(uint256)": {
        "details": "See {IERC721-ownerOf}."
      },
      "safeTransferFrom(address,address,uint256)": {
        "details": "See {IERC721-safeTransferFrom}."
      },
      "safeTransferFrom(address,address,uint256,bytes)": {
        "details": "See {IERC721-safeTransferFrom}."
      },
      "setApprovalForAll(address,bool)": {
        "details": "See {IERC721-setApprovalForAll}."
      },
      "supportsInterface(bytes4)": {
        "details": "See {IERC165-supportsInterface}."
      },
      "symbol()": {
        "details": "See {IERC721Metadata-symbol}."
      },
      "tokenURI(uint256)": {
        "details": "See {IERC721Metadata-tokenURI}."
      },
      "transferFrom(address,address,uint256)": {
        "details": "See {IERC721-transferFrom}."
      }
    },
    "version": 1
  },
  "userdoc": {
    "kind": "user",
    "methods": {},
    "version": 1
  }
}