{
  "contractName": "SampleNFTContract",
  "abi": [
    {
      "inputs": [
        {
          "internalType": "address",
          "name": "_owner",
          "type": "address"
        }
      ],
      "stateMutability": "nonpayable",
      "type": "constructor"
    },
    {
      "inputs": [
        {
          "internalType": "address",
          "name": "newHandler",
          "type": "address"
        }
      ],
      "name": "changeHandlerContract",
      "outputs": [],
      "stateMutability": "nonpayable",
      "type": "function"
    },
    {
      "inputs": [
        {
          "internalType": "address",
          "name": "newOwner",
          "type": "address"
        }
      ],
      "name": "transferOwnership",
      "outputs": [],
      "stateMutability": "nonpayable",
      "type": "function"
    },
    {
      "inputs": [],
      "name": "getOwner",
      "outputs": [
        {
          "internalType": "address",
          "name": "",
          "type": "address"
        }
      ],
      "stateMutability": "view",
      "type": "function"
    },
    {
      "inputs": [],
      "name": "getHandlerContract",
      "outputs": [
        {
          "internalType": "address",
          "name": "",
          "type": "address"
        }
      ],
      "stateMutability": "view",
      "type": "function"
    }
  ],
  "bytecode": "0x608060405234801561001057600080fd5b506040516105ef3803806105ef8339818101604052810190610032919061008d565b806000806101000a81548173ffffffffffffffffffffffffffffffffffffffff021916908373ffffffffffffffffffffffffffffffffffffffff16021790555050610108565b600081519050610087816100f1565b92915050565b6000602082840312156100a3576100a26100ec565b5b60006100b184828501610078565b91505092915050565b60006100c5826100cc565b9050919050565b600073ffffffffffffffffffffffffffffffffffffffff82169050919050565b600080fd5b6100fa816100ba565b811461010557600080fd5b50565b6104d8806101176000396000f3fe608060405234801561001057600080fd5b506004361061004c5760003560e01c8063893d20e81461005157806395cb5f811461006f578063d42c60f91461008b578063f2fde38b146100a9575b600080fd5b6100596100c5565b60405161006691906103df565b60405180910390f35b61008960048036038101906100849190610380565b6100ee565b005b610093610218565b6040516100a091906103df565b60405180910390f35b6100c360048036038101906100be9190610380565b610242565b005b60008060009054906101000a900473ffffffffffffffffffffffffffffffffffffffff16905090565b60008054906101000a900473ffffffffffffffffffffffffffffffffffffffff1673ffffffffffffffffffffffffffffffffffffffff163373ffffffffffffffffffffffffffffffffffffffff1614806101955750600160009054906101000a900473ffffffffffffffffffffffffffffffffffffffff1673ffffffffffffffffffffffffffffffffffffffff163373ffffffffffffffffffffffffffffffffffffffff16145b6101d4576040517f08c379a00000000000000000000000000000000000000000000000000000000081526004016101cb906103fa565b60405180910390fd5b80600160006101000a81548173ffffffffffffffffffffffffffffffffffffffff021916908373ffffffffffffffffffffffffffffffffffffffff16021790555050565b6000600160009054906101000a900473ffffffffffffffffffffffffffffffffffffffff16905090565b60008054906101000a900473ffffffffffffffffffffffffffffffffffffffff1673ffffffffffffffffffffffffffffffffffffffff163373ffffffffffffffffffffffffffffffffffffffff1614806102e95750600160009054906101000a900473ffffffffffffffffffffffffffffffffffffffff1673ffffffffffffffffffffffffffffffffffffffff163373ffffffffffffffffffffffffffffffffffffffff16145b610328576040517f08c379a000000000000000000000000000000000000000000000000000000000815260040161031f906103fa565b60405180910390fd5b806000806101000a81548173ffffffffffffffffffffffffffffffffffffffff021916908373ffffffffffffffffffffffffffffffffffffffff16021790555050565b60008135905061037a8161048b565b92915050565b6000602082840312156103965761039561045d565b5b60006103a48482850161036b565b91505092915050565b6103b68161042b565b82525050565b60006103c960138361041a565b91506103d482610462565b602082019050919050565b60006020820190506103f460008301846103ad565b92915050565b60006020820190508181036000830152610413816103bc565b9050919050565b600082825260208201905092915050565b60006104368261043d565b9050919050565b600073ffffffffffffffffffffffffffffffffffffffff82169050919050565b600080fd5b7f556e617574686f72697a65642061636365737300000000000000000000000000600082015250565b6104948161042b565b811461049f57600080fd5b5056fea2646970667358221220b73222137916426f238a1458ac1f0406302dd4246f3134bd0cc09d3c0fc043d264736f6c63430008070033",
  "immutableReferences": {},
  "source": "// SPDX-License-Identifier: Unlicensed\r\npragma solidity ^0.8;\r\n\r\ncontract SampleNFTContract {\r\n    address private owner;\r\n    address private handlerContract;\r\n\r\n    constructor(address _owner) {\r\n        owner = _owner;\r\n    }\r\n\r\n    modifier isAuthorized() {\r\n        require(msg.sender == owner || msg.sender == handlerContract, \"Unauthorized access\");\r\n        _;\r\n    }\r\n\r\n    function changeHandlerContract(address newHandler) external isAuthorized {\r\n        handlerContract = newHandler;\r\n    }\r\n\r\n    function transferOwnership(address newOwner) external isAuthorized {\r\n        owner = newOwner;\r\n    }\r\n\r\n    function getOwner() public view virtual returns(address) {\r\n        return owner;\r\n    }\r\n    \r\n    function getHandlerContract() public view virtual returns(address) {\r\n        return handlerContract;\r\n    }\r\n}\r\n",
  "sourcePath": "C:\\Users\\alok2\\Downloads\\solidity_projects\\ContractsAsNFTs\\contract_code\\contracts\\SampleNFTContract.sol",
  "compiler": {
    "name": "solc",
    "version": "0.8.7+commit.e28d00a7.Emscripten.clang"
  },
  "schemaVersion": "3.4.3",
  "updatedAt": "2021-09-20T16:52:17.274Z",
  "devdoc": {
    "kind": "dev",
    "methods": {},
    "version": 1
  },
  "userdoc": {
    "kind": "user",
    "methods": {},
    "version": 1
  }
}