{
  "contractName": "SampleNFTContract",
  "abi": [
    {
      "inputs": [
        {
          "internalType": "address",
          "name": "_owner",
          "type": "address"
        }
      ],
      "stateMutability": "nonpayable",
      "type": "constructor"
    },
    {
      "inputs": [
        {
          "internalType": "address",
          "name": "newHandler",
          "type": "address"
        }
      ],
      "name": "changeHandlerContract",
      "outputs": [],
      "stateMutability": "nonpayable",
      "type": "function"
    },
    {
      "inputs": [
        {
          "internalType": "address",
          "name": "newOwner",
          "type": "address"
        }
      ],
      "name": "transferOwnership",
      "outputs": [],
      "stateMutability": "nonpayable",
      "type": "function"
    },
    {
      "inputs": [],
      "name": "getOwner",
      "outputs": [
        {
          "internalType": "address",
          "name": "",
          "type": "address"
        }
      ],
      "stateMutability": "view",
      "type": "function"
    },
    {
      "inputs": [],
      "name": "getHandlerContract",
      "outputs": [
        {
          "internalType": "address",
          "name": "",
          "type": "address"
        }
      ],
      "stateMutability": "view",
      "type": "function"
    }
  ],
  "bytecode": "0x608060405234801561001057600080fd5b506040516105ef3803806105ef833981810160405281019061003291906100db565b806000806101000a81548173ffffffffffffffffffffffffffffffffffffffff021916908373ffffffffffffffffffffffffffffffffffffffff16021790555050610108565b600080fd5b600073ffffffffffffffffffffffffffffffffffffffff82169050919050565b60006100a88261007d565b9050919050565b6100b88161009d565b81146100c357600080fd5b50565b6000815190506100d5816100af565b92915050565b6000602082840312156100f1576100f0610078565b5b60006100ff848285016100c6565b91505092915050565b6104d8806101176000396000f3fe608060405234801561001057600080fd5b506004361061004c5760003560e01c8063893d20e81461005157806395cb5f811461006f578063d42c60f91461008b578063f2fde38b146100a9575b600080fd5b6100596100c5565b60405161006691906103ac565b60405180910390f35b610089600480360381019061008491906103f8565b6100ee565b005b610093610218565b6040516100a091906103ac565b60405180910390f35b6100c360048036038101906100be91906103f8565b610242565b005b60008060009054906101000a900473ffffffffffffffffffffffffffffffffffffffff16905090565b60008054906101000a900473ffffffffffffffffffffffffffffffffffffffff1673ffffffffffffffffffffffffffffffffffffffff163373ffffffffffffffffffffffffffffffffffffffff1614806101955750600160009054906101000a900473ffffffffffffffffffffffffffffffffffffffff1673ffffffffffffffffffffffffffffffffffffffff163373ffffffffffffffffffffffffffffffffffffffff16145b6101d4576040517f08c379a00000000000000000000000000000000000000000000000000000000081526004016101cb90610482565b60405180910390fd5b80600160006101000a81548173ffffffffffffffffffffffffffffffffffffffff021916908373ffffffffffffffffffffffffffffffffffffffff16021790555050565b6000600160009054906101000a900473ffffffffffffffffffffffffffffffffffffffff16905090565b60008054906101000a900473ffffffffffffffffffffffffffffffffffffffff1673ffffffffffffffffffffffffffffffffffffffff163373ffffffffffffffffffffffffffffffffffffffff1614806102e95750600160009054906101000a900473ffffffffffffffffffffffffffffffffffffffff1673ffffffffffffffffffffffffffffffffffffffff163373ffffffffffffffffffffffffffffffffffffffff16145b610328576040517f08c379a000000000000000000000000000000000000000000000000000000000815260040161031f90610482565b60405180910390fd5b806000806101000a81548173ffffffffffffffffffffffffffffffffffffffff021916908373ffffffffffffffffffffffffffffffffffffffff16021790555050565b600073ffffffffffffffffffffffffffffffffffffffff82169050919050565b60006103968261036b565b9050919050565b6103a68161038b565b82525050565b60006020820190506103c1600083018461039d565b92915050565b600080fd5b6103d58161038b565b81146103e057600080fd5b50565b6000813590506103f2816103cc565b92915050565b60006020828403121561040e5761040d6103c7565b5b600061041c848285016103e3565b91505092915050565b600082825260208201905092915050565b7f556e617574686f72697a65642061636365737300000000000000000000000000600082015250565b600061046c601383610425565b915061047782610436565b602082019050919050565b6000602082019050818103600083015261049b8161045f565b905091905056fea264697066735822122066ec55926f2c10388973c4bb96727ca87bdf604ca237dff45f175d7dcab28a8264736f6c63430008080033",
  "immutableReferences": {},
  "source": "// SPDX-License-Identifier: Unlicensed\r\npragma solidity ^0.8;\r\n\r\ncontract SampleNFTContract {\r\n    address private owner;\r\n    address private handlerContract;\r\n\r\n    constructor(address _owner) {\r\n        owner = _owner;\r\n    }\r\n\r\n    modifier isAuthorized() {\r\n        require(msg.sender == owner || msg.sender == handlerContract, \"Unauthorized access\");\r\n        _;\r\n    }\r\n\r\n    function changeHandlerContract(address newHandler) external isAuthorized {\r\n        handlerContract = newHandler;\r\n    }\r\n\r\n    function transferOwnership(address newOwner) external isAuthorized {\r\n        owner = newOwner;\r\n    }\r\n\r\n    function getOwner() public view virtual returns(address) {\r\n        return owner;\r\n    }\r\n    \r\n    function getHandlerContract() public view virtual returns(address) {\r\n        return handlerContract;\r\n    }\r\n}\r\n",
  "sourcePath": "C:\\Users\\alok2\\Downloads\\solidity_projects\\ContractsAsNFTs\\contract_code\\contracts\\SampleNFTContract.sol",
  "compiler": {
    "name": "solc",
    "version": "0.8.8+commit.dddeac2f.Emscripten.clang"
  },
  "schemaVersion": "3.4.3",
  "updatedAt": "2021-09-29T10:40:48.016Z",
  "devdoc": {
    "kind": "dev",
    "methods": {},
    "version": 1
  },
  "userdoc": {
    "kind": "user",
    "methods": {},
    "version": 1
  }
}