{
  "contractName": "ContractNFTHandler",
  "abi": [
    {
      "inputs": [
        {
          "internalType": "string",
          "name": "_name",
          "type": "string"
        },
        {
          "internalType": "string",
          "name": "_symbol",
          "type": "string"
        }
      ],
      "stateMutability": "nonpayable",
      "type": "constructor"
    },
    {
      "anonymous": false,
      "inputs": [
        {
          "indexed": true,
          "internalType": "address",
          "name": "owner",
          "type": "address"
        },
        {
          "indexed": true,
          "internalType": "address",
          "name": "approved",
          "type": "address"
        },
        {
          "indexed": true,
          "internalType": "uint256",
          "name": "tokenId",
          "type": "uint256"
        }
      ],
      "name": "Approval",
      "type": "event"
    },
    {
      "anonymous": false,
      "inputs": [
        {
          "indexed": true,
          "internalType": "address",
          "name": "owner",
          "type": "address"
        },
        {
          "indexed": true,
          "internalType": "address",
          "name": "operator",
          "type": "address"
        },
        {
          "indexed": false,
          "internalType": "bool",
          "name": "approved",
          "type": "bool"
        }
      ],
      "name": "ApprovalForAll",
      "type": "event"
    },
    {
      "anonymous": false,
      "inputs": [
        {
          "indexed": true,
          "internalType": "address",
          "name": "from",
          "type": "address"
        },
        {
          "indexed": true,
          "internalType": "address",
          "name": "to",
          "type": "address"
        },
        {
          "indexed": true,
          "internalType": "uint256",
          "name": "tokenId",
          "type": "uint256"
        }
      ],
      "name": "Transfer",
      "type": "event"
    },
    {
      "inputs": [
        {
          "internalType": "uint256",
          "name": "",
          "type": "uint256"
        }
      ],
      "name": "_forSale",
      "outputs": [
        {
          "internalType": "bool",
          "name": "",
          "type": "bool"
        }
      ],
      "stateMutability": "view",
      "type": "function"
    },
    {
      "inputs": [
        {
          "internalType": "uint256",
          "name": "",
          "type": "uint256"
        }
      ],
      "name": "_tokenAddresses",
      "outputs": [
        {
          "internalType": "address",
          "name": "",
          "type": "address"
        }
      ],
      "stateMutability": "view",
      "type": "function"
    },
    {
      "inputs": [
        {
          "internalType": "uint256",
          "name": "",
          "type": "uint256"
        }
      ],
      "name": "_tokenOwners",
      "outputs": [
        {
          "internalType": "address",
          "name": "",
          "type": "address"
        }
      ],
      "stateMutability": "view",
      "type": "function"
    },
    {
      "inputs": [
        {
          "internalType": "uint256",
          "name": "",
          "type": "uint256"
        }
      ],
      "name": "_tokenPrices",
      "outputs": [
        {
          "internalType": "uint256",
          "name": "",
          "type": "uint256"
        }
      ],
      "stateMutability": "view",
      "type": "function"
    },
    {
      "inputs": [
        {
          "internalType": "address",
          "name": "to",
          "type": "address"
        },
        {
          "internalType": "uint256",
          "name": "tokenId",
          "type": "uint256"
        }
      ],
      "name": "approve",
      "outputs": [],
      "stateMutability": "nonpayable",
      "type": "function"
    },
    {
      "inputs": [
        {
          "internalType": "address",
          "name": "owner",
          "type": "address"
        }
      ],
      "name": "balanceOf",
      "outputs": [
        {
          "internalType": "uint256",
          "name": "",
          "type": "uint256"
        }
      ],
      "stateMutability": "view",
      "type": "function"
    },
    {
      "inputs": [
        {
          "internalType": "uint256",
          "name": "tokenId",
          "type": "uint256"
        }
      ],
      "name": "getApproved",
      "outputs": [
        {
          "internalType": "address",
          "name": "",
          "type": "address"
        }
      ],
      "stateMutability": "view",
      "type": "function"
    },
    {
      "inputs": [
        {
          "internalType": "address",
          "name": "owner",
          "type": "address"
        },
        {
          "internalType": "address",
          "name": "operator",
          "type": "address"
        }
      ],
      "name": "isApprovedForAll",
      "outputs": [
        {
          "internalType": "bool",
          "name": "",
          "type": "bool"
        }
      ],
      "stateMutability": "view",
      "type": "function"
    },
    {
      "inputs": [],
      "name": "name",
      "outputs": [
        {
          "internalType": "string",
          "name": "",
          "type": "string"
        }
      ],
      "stateMutability": "view",
      "type": "function"
    },
    {
      "inputs": [
        {
          "internalType": "uint256",
          "name": "tokenId",
          "type": "uint256"
        }
      ],
      "name": "ownerOf",
      "outputs": [
        {
          "internalType": "address",
          "name": "",
          "type": "address"
        }
      ],
      "stateMutability": "view",
      "type": "function"
    },
    {
      "inputs": [
        {
          "internalType": "address",
          "name": "from",
          "type": "address"
        },
        {
          "internalType": "address",
          "name": "to",
          "type": "address"
        },
        {
          "internalType": "uint256",
          "name": "tokenId",
          "type": "uint256"
        }
      ],
      "name": "safeTransferFrom",
      "outputs": [],
      "stateMutability": "nonpayable",
      "type": "function"
    },
    {
      "inputs": [
        {
          "internalType": "address",
          "name": "from",
          "type": "address"
        },
        {
          "internalType": "address",
          "name": "to",
          "type": "address"
        },
        {
          "internalType": "uint256",
          "name": "tokenId",
          "type": "uint256"
        },
        {
          "internalType": "bytes",
          "name": "_data",
          "type": "bytes"
        }
      ],
      "name": "safeTransferFrom",
      "outputs": [],
      "stateMutability": "nonpayable",
      "type": "function"
    },
    {
      "inputs": [
        {
          "internalType": "address",
          "name": "operator",
          "type": "address"
        },
        {
          "internalType": "bool",
          "name": "approved",
          "type": "bool"
        }
      ],
      "name": "setApprovalForAll",
      "outputs": [],
      "stateMutability": "nonpayable",
      "type": "function"
    },
    {
      "inputs": [
        {
          "internalType": "bytes4",
          "name": "interfaceId",
          "type": "bytes4"
        }
      ],
      "name": "supportsInterface",
      "outputs": [
        {
          "internalType": "bool",
          "name": "",
          "type": "bool"
        }
      ],
      "stateMutability": "view",
      "type": "function"
    },
    {
      "inputs": [],
      "name": "symbol",
      "outputs": [
        {
          "internalType": "string",
          "name": "",
          "type": "string"
        }
      ],
      "stateMutability": "view",
      "type": "function"
    },
    {
      "inputs": [],
      "name": "tokenCount",
      "outputs": [
        {
          "internalType": "uint256",
          "name": "",
          "type": "uint256"
        }
      ],
      "stateMutability": "view",
      "type": "function"
    },
    {
      "inputs": [
        {
          "internalType": "uint256",
          "name": "tokenId",
          "type": "uint256"
        }
      ],
      "name": "tokenURI",
      "outputs": [
        {
          "internalType": "string",
          "name": "",
          "type": "string"
        }
      ],
      "stateMutability": "view",
      "type": "function"
    },
    {
      "inputs": [
        {
          "internalType": "address",
          "name": "from",
          "type": "address"
        },
        {
          "internalType": "address",
          "name": "to",
          "type": "address"
        },
        {
          "internalType": "uint256",
          "name": "tokenId",
          "type": "uint256"
        }
      ],
      "name": "transferFrom",
      "outputs": [],
      "stateMutability": "nonpayable",
      "type": "function"
    },
    {
      "inputs": [
        {
          "internalType": "address",
          "name": "_owner",
          "type": "address"
        },
        {
          "internalType": "address",
          "name": "_contractAddress",
          "type": "address"
        },
        {
          "internalType": "uint256",
          "name": "price",
          "type": "uint256"
        }
      ],
      "name": "mintContract",
      "outputs": [],
      "stateMutability": "nonpayable",
      "type": "function"
    },
    {
      "inputs": [
        {
          "internalType": "uint256",
          "name": "_tokenId",
          "type": "uint256"
        },
        {
          "internalType": "uint256",
          "name": "price",
          "type": "uint256"
        }
      ],
      "name": "setPrice",
      "outputs": [],
      "stateMutability": "nonpayable",
      "type": "function"
    },
    {
      "inputs": [
        {
          "internalType": "uint256",
          "name": "_tokenId",
          "type": "uint256"
        },
        {
          "internalType": "bool",
          "name": "saleStatus",
          "type": "bool"
        }
      ],
      "name": "setSaleStatus",
      "outputs": [],
      "stateMutability": "nonpayable",
      "type": "function"
    },
    {
      "inputs": [
        {
          "internalType": "uint256",
          "name": "_tokenId",
          "type": "uint256"
        },
        {
          "internalType": "address",
          "name": "_to",
          "type": "address"
        }
      ],
      "name": "purchaseNFT",
      "outputs": [],
      "stateMutability": "payable",
      "type": "function"
    },
    {
      "inputs": [
        {
          "internalType": "uint256",
          "name": "_tokenId",
          "type": "uint256"
        },
        {
          "internalType": "address",
          "name": "_to",
          "type": "address"
        }
      ],
      "name": "transferNFT",
      "outputs": [],
      "stateMutability": "nonpayable",
      "type": "function"
    },
    {
      "inputs": [],
      "name": "getAllNFTDetails",
      "outputs": [
        {
          "components": [
            {
              "internalType": "uint256",
              "name": "id",
              "type": "uint256"
            },
            {
              "internalType": "uint256",
              "name": "price",
              "type": "uint256"
            },
            {
              "internalType": "bool",
              "name": "onSale",
              "type": "bool"
            },
            {
              "internalType": "address",
              "name": "contractAddress",
              "type": "address"
            }
          ],
          "internalType": "struct ContractNFTHandler.NFT[]",
          "name": "",
          "type": "tuple[]"
        }
      ],
      "stateMutability": "view",
      "type": "function"
    },
    {
      "inputs": [
        {
          "internalType": "uint256",
          "name": "_tokenId",
          "type": "uint256"
        }
      ],
      "name": "getNFTDetails",
      "outputs": [
        {
          "components": [
            {
              "internalType": "uint256",
              "name": "id",
              "type": "uint256"
            },
            {
              "internalType": "uint256",
              "name": "price",
              "type": "uint256"
            },
            {
              "internalType": "bool",
              "name": "onSale",
              "type": "bool"
            },
            {
              "internalType": "address",
              "name": "contractAddress",
              "type": "address"
            }
          ],
          "internalType": "struct ContractNFTHandler.NFT",
          "name": "",
          "type": "tuple"
        }
      ],
      "stateMutability": "view",
      "type": "function"
    }
  ],
  "bytecode": "0x60806040523480156200001157600080fd5b5060405162003fa638038062003fa68339818101604052810190620000379190620001ab565b81818160009080519060200190620000519291906200007d565b5080600190805190602001906200006a9291906200007d565b50505060006006819055505050620003b4565b8280546200008b90620002c5565b90600052602060002090601f016020900481019282620000af5760008555620000fb565b82601f10620000ca57805160ff1916838001178555620000fb565b82800160010185558215620000fb579182015b82811115620000fa578251825591602001919060010190620000dd565b5b5090506200010a91906200010e565b5090565b5b80821115620001295760008160009055506001016200010f565b5090565b6000620001446200013e8462000259565b62000230565b90508281526020810184848401111562000163576200016262000394565b5b620001708482856200028f565b509392505050565b600082601f83011262000190576200018f6200038f565b5b8151620001a28482602086016200012d565b91505092915050565b60008060408385031215620001c557620001c46200039e565b5b600083015167ffffffffffffffff811115620001e657620001e562000399565b5b620001f48582860162000178565b925050602083015167ffffffffffffffff81111562000218576200021762000399565b5b620002268582860162000178565b9150509250929050565b60006200023c6200024f565b90506200024a8282620002fb565b919050565b6000604051905090565b600067ffffffffffffffff82111562000277576200027662000360565b5b6200028282620003a3565b9050602081019050919050565b60005b83811015620002af57808201518184015260208101905062000292565b83811115620002bf576000848401525b50505050565b60006002820490506001821680620002de57607f821691505b60208210811415620002f557620002f462000331565b5b50919050565b6200030682620003a3565b810181811067ffffffffffffffff8211171562000328576200032762000360565b5b80604052505050565b7f4e487b7100000000000000000000000000000000000000000000000000000000600052602260045260246000fd5b7f4e487b7100000000000000000000000000000000000000000000000000000000600052604160045260246000fd5b600080fd5b600080fd5b600080fd5b600080fd5b6000601f19601f8301169050919050565b613be280620003c46000396000f3fe6080604052600436106101665760003560e01c806382260f35116100d1578063aa3b13d01161008a578063c87b56dd11610064578063c87b56dd14610577578063dd53c301146105b4578063e985e9c5146105dd578063f7d975771461061a57610166565b8063aa3b13d0146104e8578063b54c5c3114610525578063b88d4fde1461054e57610166565b806382260f35146103c65780639036c0501461040357806392673ff51461042c57806395d89b41146104695780639f181b5e14610494578063a22cb465146104bf57610166565b806342842e0e1161012357806342842e0e1461029f57806343e3dbe6146102c85780636352211e146102f357806365ea090f1461033057806370a082311461036d57806379800836146103aa57610166565b806301ffc9a71461016b57806306fdde03146101a857806307f67ced146101d3578063081812fc14610210578063095ea7b31461024d57806323b872dd14610276575b600080fd5b34801561017757600080fd5b50610192600480360381019061018d919061270c565b610643565b60405161019f9190612e1f565b60405180910390f35b3480156101b457600080fd5b506101bd610725565b6040516101ca9190612e3a565b60405180910390f35b3480156101df57600080fd5b506101fa60048036038101906101f59190612766565b6107b7565b6040516102079190612e1f565b60405180910390f35b34801561021c57600080fd5b5061023760048036038101906102329190612766565b6107d7565b6040516102449190612d96565b60405180910390f35b34801561025957600080fd5b50610274600480360381019061026f91906126cc565b61085c565b005b34801561028257600080fd5b5061029d600480360381019061029891906125b6565b610974565b005b3480156102ab57600080fd5b506102c660048036038101906102c191906125b6565b6109d4565b005b3480156102d457600080fd5b506102dd6109f4565b6040516102ea9190612dfd565b60405180910390f35b3480156102ff57600080fd5b5061031a60048036038101906103159190612766565b610b35565b6040516103279190612d96565b60405180910390f35b34801561033c57600080fd5b5061035760048036038101906103529190612766565b610be7565b6040516103649190612d96565b60405180910390f35b34801561037957600080fd5b50610394600480360381019061038f9190612549565b610c1a565b6040516103a19190613137565b60405180910390f35b6103c460048036038101906103bf9190612793565b610cd2565b005b3480156103d257600080fd5b506103ed60048036038101906103e89190612766565b6110e0565b6040516103fa919061311c565b60405180910390f35b34801561040f57600080fd5b5061042a60048036038101906104259190612793565b611194565b005b34801561043857600080fd5b50610453600480360381019061044e9190612766565b6112ea565b6040516104609190612d96565b60405180910390f35b34801561047557600080fd5b5061047e61131d565b60405161048b9190612e3a565b60405180910390f35b3480156104a057600080fd5b506104a96113af565b6040516104b69190613137565b60405180910390f35b3480156104cb57600080fd5b506104e660048036038101906104e1919061268c565b6113b5565b005b3480156104f457600080fd5b5061050f600480360381019061050a9190612766565b611536565b60405161051c9190613137565b60405180910390f35b34801561053157600080fd5b5061054c600480360381019061054791906127d3565b61154e565b005b34801561055a57600080fd5b5061057560048036038101906105709190612609565b611620565b005b34801561058357600080fd5b5061059e60048036038101906105999190612766565b611682565b6040516105ab9190612e3a565b60405180910390f35b3480156105c057600080fd5b506105db60048036038101906105d691906125b6565b611729565b005b3480156105e957600080fd5b5061060460048036038101906105ff9190612576565b611842565b6040516106119190612e1f565b60405180910390f35b34801561062657600080fd5b50610641600480360381019061063c9190612813565b6118d6565b005b60007f80ac58cd000000000000000000000000000000000000000000000000000000007bffffffffffffffffffffffffffffffffffffffffffffffffffffffff1916827bffffffffffffffffffffffffffffffffffffffffffffffffffffffff1916148061070e57507f5b5e139f000000000000000000000000000000000000000000000000000000007bffffffffffffffffffffffffffffffffffffffffffffffffffffffff1916827bffffffffffffffffffffffffffffffffffffffffffffffffffffffff1916145b8061071e575061071d82611995565b5b9050919050565b606060008054610734906133ef565b80601f0160208091040260200160405190810160405280929190818152602001828054610760906133ef565b80156107ad5780601f10610782576101008083540402835291602001916107ad565b820191906000526020600020905b81548152906001019060200180831161079057829003601f168201915b5050505050905090565b600a6020528060005260406000206000915054906101000a900460ff1681565b60006107e2826119ff565b610821576040517f08c379a00000000000000000000000000000000000000000000000000000000081526004016108189061303c565b60405180910390fd5b6004600083815260200190815260200160002060009054906101000a900473ffffffffffffffffffffffffffffffffffffffff169050919050565b600061086782610b35565b90508073ffffffffffffffffffffffffffffffffffffffff168373ffffffffffffffffffffffffffffffffffffffff1614156108d8576040517f08c379a00000000000000000000000000000000000000000000000000000000081526004016108cf906130bc565b60405180910390fd5b8073ffffffffffffffffffffffffffffffffffffffff166108f7611a6b565b73ffffffffffffffffffffffffffffffffffffffff161480610926575061092581610920611a6b565b611842565b5b610965576040517f08c379a000000000000000000000000000000000000000000000000000000000815260040161095c90612f9c565b60405180910390fd5b61096f8383611a73565b505050565b61098561097f611a6b565b82611b2c565b6109c4576040517f08c379a00000000000000000000000000000000000000000000000000000000081526004016109bb906130dc565b60405180910390fd5b6109cf838383611c0a565b505050565b6109ef83838360405180602001604052806000815250611620565b505050565b6060600060065467ffffffffffffffff811115610a1457610a13613588565b5b604051908082528060200260200182016040528015610a4d57816020015b610a3a612430565b815260200190600190039081610a325790505b50905060005b600654811015610b2d57604051806080016040528082815260200160096000848152602001908152602001600020548152602001600a600084815260200190815260200160002060009054906101000a900460ff16151581526020016007600084815260200190815260200160002060009054906101000a900473ffffffffffffffffffffffffffffffffffffffff1673ffffffffffffffffffffffffffffffffffffffff16815250828281518110610b0f57610b0e613559565b5b60200260200101819052508080610b2590613452565b915050610a53565b508091505090565b6000806002600084815260200190815260200160002060009054906101000a900473ffffffffffffffffffffffffffffffffffffffff169050600073ffffffffffffffffffffffffffffffffffffffff168173ffffffffffffffffffffffffffffffffffffffff161415610bde576040517f08c379a0000000000000000000000000000000000000000000000000000000008152600401610bd590612fdc565b60405180910390fd5b80915050919050565b60076020528060005260406000206000915054906101000a900473ffffffffffffffffffffffffffffffffffffffff1681565b60008073ffffffffffffffffffffffffffffffffffffffff168273ffffffffffffffffffffffffffffffffffffffff161415610c8b576040517f08c379a0000000000000000000000000000000000000000000000000000000008152600401610c8290612fbc565b60405180910390fd5b600360008373ffffffffffffffffffffffffffffffffffffffff1673ffffffffffffffffffffffffffffffffffffffff168152602001908152602001600020549050919050565b81600a600082815260200190815260200160002060009054906101000a900460ff16610d33576040517f08c379a0000000000000000000000000000000000000000000000000000000008152600401610d2a90612f7c565b60405180910390fd5b600060096000858152602001908152602001600020549050600181610d5891906132ab565b341015610d9a576040517f08c379a0000000000000000000000000000000000000000000000000000000008152600401610d9190612e5c565b60405180910390fd5b60006008600086815260200190815260200160002060009054906101000a900473ffffffffffffffffffffffffffffffffffffffff169050610ddd818587611c0a565b60006007600087815260200190815260200160002060009054906101000a900473ffffffffffffffffffffffffffffffffffffffff1690508073ffffffffffffffffffffffffffffffffffffffff16638863dd1a866040518263ffffffff1660e01b8152600401610e4e9190612d96565b600060405180830381600087803b158015610e6857600080fd5b505af1158015610e7c573d6000803e3d6000fd5b505050506002600114610ec4576040517f08c379a0000000000000000000000000000000000000000000000000000000008152600401610ebb90612e9c565b60405180910390fd5b60006008600088815260200190815260200160002060009054906101000a900473ffffffffffffffffffffffffffffffffffffffff1690506002600114610f40576040517f08c379a0000000000000000000000000000000000000000000000000000000008152600401610f3790612edc565b60405180910390fd5b60003390506002600114610f89576040517f08c379a0000000000000000000000000000000000000000000000000000000008152600401610f809061307c565b60405180910390fd5b8173ffffffffffffffffffffffffffffffffffffffff166108fc869081150290604051600060405180830381858888f19350505050158015610fcf573d6000803e3d6000fd5b506002600114611014576040517f08c379a000000000000000000000000000000000000000000000000000000000815260040161100b90612f5c565b60405180910390fd5b8073ffffffffffffffffffffffffffffffffffffffff166108fc863461103a9190613305565b9081150290604051600060405180830381858888f19350505050158015611065573d6000803e3d6000fd5b5060026001146110aa576040517f08c379a00000000000000000000000000000000000000000000000000000000081526004016110a190612ffc565b60405180910390fd5b6000600a60008a815260200190815260200160002060006101000a81548160ff0219169083151502179055505050505050505050565b6110e8612430565b6000604051806080016040528084815260200160096000868152602001908152602001600020548152602001600a600086815260200190815260200160002060009054906101000a900460ff16151581526020016007600086815260200190815260200160002060009054906101000a900473ffffffffffffffffffffffffffffffffffffffff1673ffffffffffffffffffffffffffffffffffffffff16815250905080915050919050565b813373ffffffffffffffffffffffffffffffffffffffff166008600083815260200190815260200160002060009054906101000a900473ffffffffffffffffffffffffffffffffffffffff1673ffffffffffffffffffffffffffffffffffffffff1614611236576040517f08c379a000000000000000000000000000000000000000000000000000000000815260040161122d906130fc565b60405180910390fd5b611241338385611c0a565b60006007600085815260200190815260200160002060009054906101000a900473ffffffffffffffffffffffffffffffffffffffff1690508073ffffffffffffffffffffffffffffffffffffffff16638863dd1a846040518263ffffffff1660e01b81526004016112b29190612d96565b600060405180830381600087803b1580156112cc57600080fd5b505af11580156112e0573d6000803e3d6000fd5b5050505050505050565b60086020528060005260406000206000915054906101000a900473ffffffffffffffffffffffffffffffffffffffff1681565b60606001805461132c906133ef565b80601f0160208091040260200160405190810160405280929190818152602001828054611358906133ef565b80156113a55780601f1061137a576101008083540402835291602001916113a5565b820191906000526020600020905b81548152906001019060200180831161138857829003601f168201915b5050505050905090565b60065481565b6113bd611a6b565b73ffffffffffffffffffffffffffffffffffffffff168273ffffffffffffffffffffffffffffffffffffffff16141561142b576040517f08c379a000000000000000000000000000000000000000000000000000000000815260040161142290612f1c565b60405180910390fd5b8060056000611438611a6b565b73ffffffffffffffffffffffffffffffffffffffff1673ffffffffffffffffffffffffffffffffffffffff16815260200190815260200160002060008473ffffffffffffffffffffffffffffffffffffffff1673ffffffffffffffffffffffffffffffffffffffff16815260200190815260200160002060006101000a81548160ff0219169083151502179055508173ffffffffffffffffffffffffffffffffffffffff166114e5611a6b565b73ffffffffffffffffffffffffffffffffffffffff167f17307eab39ab6107e8899845ad3d59bd9653f200f220920489ca2b5937696c318360405161152a9190612e1f565b60405180910390a35050565b60096020528060005260406000206000915090505481565b813373ffffffffffffffffffffffffffffffffffffffff166008600083815260200190815260200160002060009054906101000a900473ffffffffffffffffffffffffffffffffffffffff1673ffffffffffffffffffffffffffffffffffffffff16146115f0576040517f08c379a00000000000000000000000000000000000000000000000000000000081526004016115e7906130fc565b60405180910390fd5b81600a600085815260200190815260200160002060006101000a81548160ff021916908315150217905550505050565b61163161162b611a6b565b83611b2c565b611670576040517f08c379a0000000000000000000000000000000000000000000000000000000008152600401611667906130dc565b60405180910390fd5b61167c84848484611e66565b50505050565b606061168d826119ff565b6116cc576040517f08c379a00000000000000000000000000000000000000000000000000000000081526004016116c39061309c565b60405180910390fd5b60006116d6611ec2565b905060008151116116f65760405180602001604052806000815250611721565b8061170084611ed9565b604051602001611711929190612d72565b6040516020818303038152906040525b915050919050565b8160076000600654815260200190815260200160002060006101000a81548173ffffffffffffffffffffffffffffffffffffffff021916908373ffffffffffffffffffffffffffffffffffffffff1602179055508260086000600654815260200190815260200160002060006101000a81548173ffffffffffffffffffffffffffffffffffffffff021916908373ffffffffffffffffffffffffffffffffffffffff16021790555080600960006006548152602001908152602001600020819055506000600a6000600654815260200190815260200160002060006101000a81548160ff0219169083151502179055506118258360065461203a565b6006600081548092919061183890613452565b9190505550505050565b6000600560008473ffffffffffffffffffffffffffffffffffffffff1673ffffffffffffffffffffffffffffffffffffffff16815260200190815260200160002060008373ffffffffffffffffffffffffffffffffffffffff1673ffffffffffffffffffffffffffffffffffffffff16815260200190815260200160002060009054906101000a900460ff16905092915050565b813373ffffffffffffffffffffffffffffffffffffffff166008600083815260200190815260200160002060009054906101000a900473ffffffffffffffffffffffffffffffffffffffff1673ffffffffffffffffffffffffffffffffffffffff1614611978576040517f08c379a000000000000000000000000000000000000000000000000000000000815260040161196f906130fc565b60405180910390fd5b816009600085815260200190815260200160002081905550505050565b60007f01ffc9a7000000000000000000000000000000000000000000000000000000007bffffffffffffffffffffffffffffffffffffffffffffffffffffffff1916827bffffffffffffffffffffffffffffffffffffffffffffffffffffffff1916149050919050565b60008073ffffffffffffffffffffffffffffffffffffffff166002600084815260200190815260200160002060009054906101000a900473ffffffffffffffffffffffffffffffffffffffff1673ffffffffffffffffffffffffffffffffffffffff1614159050919050565b600033905090565b816004600083815260200190815260200160002060006101000a81548173ffffffffffffffffffffffffffffffffffffffff021916908373ffffffffffffffffffffffffffffffffffffffff160217905550808273ffffffffffffffffffffffffffffffffffffffff16611ae683610b35565b73ffffffffffffffffffffffffffffffffffffffff167f8c5be1e5ebec7d5bd14f71427d1e84f3dd0314c0f7b2291e5b200ac8c7c3b92560405160405180910390a45050565b6000611b37826119ff565b611b76576040517f08c379a0000000000000000000000000000000000000000000000000000000008152600401611b6d90612f3c565b60405180910390fd5b6000611b8183610b35565b90508073ffffffffffffffffffffffffffffffffffffffff168473ffffffffffffffffffffffffffffffffffffffff161480611bf057508373ffffffffffffffffffffffffffffffffffffffff16611bd8846107d7565b73ffffffffffffffffffffffffffffffffffffffff16145b80611c015750611c008185611842565b5b91505092915050565b8273ffffffffffffffffffffffffffffffffffffffff16611c2a82610b35565b73ffffffffffffffffffffffffffffffffffffffff1614611c80576040517f08c379a0000000000000000000000000000000000000000000000000000000008152600401611c779061305c565b60405180910390fd5b600073ffffffffffffffffffffffffffffffffffffffff168273ffffffffffffffffffffffffffffffffffffffff161415611cf0576040517f08c379a0000000000000000000000000000000000000000000000000000000008152600401611ce790612efc565b60405180910390fd5b611cfb838383612058565b611d06600082611a73565b6001600360008573ffffffffffffffffffffffffffffffffffffffff1673ffffffffffffffffffffffffffffffffffffffff1681526020019081526020016000206000828254611d569190613305565b925050819055506001600360008473ffffffffffffffffffffffffffffffffffffffff1673ffffffffffffffffffffffffffffffffffffffff1681526020019081526020016000206000828254611dad9190613224565b92505081905550816002600083815260200190815260200160002060006101000a81548173ffffffffffffffffffffffffffffffffffffffff021916908373ffffffffffffffffffffffffffffffffffffffff160217905550808273ffffffffffffffffffffffffffffffffffffffff168473ffffffffffffffffffffffffffffffffffffffff167fddf252ad1be2c89b69c2b068fc378daa952ba7f163c4a11628f55a4df523b3ef60405160405180910390a4505050565b611e71848484611c0a565b611e7d8484848461205d565b611ebc576040517f08c379a0000000000000000000000000000000000000000000000000000000008152600401611eb390612e7c565b60405180910390fd5b50505050565b606060405180602001604052806000815250905090565b60606000821415611f21576040518060400160405280600181526020017f30000000000000000000000000000000000000000000000000000000000000008152509050612035565b600082905060005b60008214611f53578080611f3c90613452565b915050600a82611f4c919061327a565b9150611f29565b60008167ffffffffffffffff811115611f6f57611f6e613588565b5b6040519080825280601f01601f191660200182016040528015611fa15781602001600182028036833780820191505090505b5090505b6000851461202e57600182611fba9190613305565b9150600a85611fc9919061349b565b6030611fd59190613224565b60f81b818381518110611feb57611fea613559565b5b60200101907effffffffffffffffffffffffffffffffffffffffffffffffffffffffffffff1916908160001a905350600a85612027919061327a565b9450611fa5565b8093505050505b919050565b6120548282604051806020016040528060008152506121f4565b5050565b505050565b600061207e8473ffffffffffffffffffffffffffffffffffffffff1661224f565b156121e7578373ffffffffffffffffffffffffffffffffffffffff1663150b7a026120a7611a6b565b8786866040518563ffffffff1660e01b81526004016120c99493929190612db1565b602060405180830381600087803b1580156120e357600080fd5b505af192505050801561211457506040513d601f19601f820116820180604052508101906121119190612739565b60015b612197573d8060008114612144576040519150601f19603f3d011682016040523d82523d6000602084013e612149565b606091505b5060008151141561218f576040517f08c379a000000000000000000000000000000000000000000000000000000000815260040161218690612e7c565b60405180910390fd5b805181602001fd5b63150b7a0260e01b7bffffffffffffffffffffffffffffffffffffffffffffffffffffffff1916817bffffffffffffffffffffffffffffffffffffffffffffffffffffffff1916149150506121ec565b600190505b949350505050565b6121fe8383612262565b61220b600084848461205d565b61224a576040517f08c379a000000000000000000000000000000000000000000000000000000000815260040161224190612e7c565b60405180910390fd5b505050565b600080823b905060008111915050919050565b600073ffffffffffffffffffffffffffffffffffffffff168273ffffffffffffffffffffffffffffffffffffffff1614156122d2576040517f08c379a00000000000000000000000000000000000000000000000000000000081526004016122c99061301c565b60405180910390fd5b6122db816119ff565b1561231b576040517f08c379a000000000000000000000000000000000000000000000000000000000815260040161231290612ebc565b60405180910390fd5b61232760008383612058565b6001600360008473ffffffffffffffffffffffffffffffffffffffff1673ffffffffffffffffffffffffffffffffffffffff16815260200190815260200160002060008282546123779190613224565b92505081905550816002600083815260200190815260200160002060006101000a81548173ffffffffffffffffffffffffffffffffffffffff021916908373ffffffffffffffffffffffffffffffffffffffff160217905550808273ffffffffffffffffffffffffffffffffffffffff16600073ffffffffffffffffffffffffffffffffffffffff167fddf252ad1be2c89b69c2b068fc378daa952ba7f163c4a11628f55a4df523b3ef60405160405180910390a45050565b60405180608001604052806000815260200160008152602001600015158152602001600073ffffffffffffffffffffffffffffffffffffffff1681525090565b600061248361247e84613177565b613152565b90508281526020810184848401111561249f5761249e6135bc565b5b6124aa8482856133ad565b509392505050565b6000813590506124c181613b50565b92915050565b6000813590506124d681613b67565b92915050565b6000813590506124eb81613b7e565b92915050565b60008151905061250081613b7e565b92915050565b600082601f83011261251b5761251a6135b7565b5b813561252b848260208601612470565b91505092915050565b60008135905061254381613b95565b92915050565b60006020828403121561255f5761255e6135c6565b5b600061256d848285016124b2565b91505092915050565b6000806040838503121561258d5761258c6135c6565b5b600061259b858286016124b2565b92505060206125ac858286016124b2565b9150509250929050565b6000806000606084860312156125cf576125ce6135c6565b5b60006125dd868287016124b2565b93505060206125ee868287016124b2565b92505060406125ff86828701612534565b9150509250925092565b60008060008060808587031215612623576126226135c6565b5b6000612631878288016124b2565b9450506020612642878288016124b2565b935050604061265387828801612534565b925050606085013567ffffffffffffffff811115612674576126736135c1565b5b61268087828801612506565b91505092959194509250565b600080604083850312156126a3576126a26135c6565b5b60006126b1858286016124b2565b92505060206126c2858286016124c7565b9150509250929050565b600080604083850312156126e3576126e26135c6565b5b60006126f1858286016124b2565b925050602061270285828601612534565b9150509250929050565b600060208284031215612722576127216135c6565b5b6000612730848285016124dc565b91505092915050565b60006020828403121561274f5761274e6135c6565b5b600061275d848285016124f1565b91505092915050565b60006020828403121561277c5761277b6135c6565b5b600061278a84828501612534565b91505092915050565b600080604083850312156127aa576127a96135c6565b5b60006127b885828601612534565b92505060206127c9858286016124b2565b9150509250929050565b600080604083850312156127ea576127e96135c6565b5b60006127f885828601612534565b9250506020612809858286016124c7565b9150509250929050565b6000806040838503121561282a576128296135c6565b5b600061283885828601612534565b925050602061284985828601612534565b9150509250929050565b600061285f8383612caa565b60808301905092915050565b61287481613339565b82525050565b61288381613339565b82525050565b6000612894826131b8565b61289e81856131e6565b93506128a9836131a8565b8060005b838110156128da5781516128c18882612853565b97506128cc836131d9565b9250506001810190506128ad565b5085935050505092915050565b6128f08161334b565b82525050565b6128ff8161334b565b82525050565b6000612910826131c3565b61291a81856131f7565b935061292a8185602086016133bc565b612933816135cb565b840191505092915050565b6000612949826131ce565b6129538185613208565b93506129638185602086016133bc565b61296c816135cb565b840191505092915050565b6000612982826131ce565b61298c8185613219565b935061299c8185602086016133bc565b80840191505092915050565b60006129b5601083613208565b91506129c0826135dc565b602082019050919050565b60006129d8603283613208565b91506129e382613605565b604082019050919050565b60006129fb600c83613208565b9150612a0682613654565b602082019050919050565b6000612a1e601c83613208565b9150612a298261367d565b602082019050919050565b6000612a41600c83613208565b9150612a4c826136a6565b602082019050919050565b6000612a64602483613208565b9150612a6f826136cf565b604082019050919050565b6000612a87601983613208565b9150612a928261371e565b602082019050919050565b6000612aaa602c83613208565b9150612ab582613747565b604082019050919050565b6000612acd600c83613208565b9150612ad882613796565b602082019050919050565b6000612af0602283613208565b9150612afb826137bf565b604082019050919050565b6000612b13603883613208565b9150612b1e8261380e565b604082019050919050565b6000612b36602a83613208565b9150612b418261385d565b604082019050919050565b6000612b59602983613208565b9150612b64826138ac565b604082019050919050565b6000612b7c600c83613208565b9150612b87826138fb565b602082019050919050565b6000612b9f602083613208565b9150612baa82613924565b602082019050919050565b6000612bc2602c83613208565b9150612bcd8261394d565b604082019050919050565b6000612be5602983613208565b9150612bf08261399c565b604082019050919050565b6000612c08600c83613208565b9150612c13826139eb565b602082019050919050565b6000612c2b602f83613208565b9150612c3682613a14565b604082019050919050565b6000612c4e602183613208565b9150612c5982613a63565b604082019050919050565b6000612c71603183613208565b9150612c7c82613ab2565b604082019050919050565b6000612c94602583613208565b9150612c9f82613b01565b604082019050919050565b608082016000820151612cc06000850182612d54565b506020820151612cd36020850182612d54565b506040820151612ce660408501826128e7565b506060820151612cf9606085018261286b565b50505050565b608082016000820151612d156000850182612d54565b506020820151612d286020850182612d54565b506040820151612d3b60408501826128e7565b506060820151612d4e606085018261286b565b50505050565b612d5d816133a3565b82525050565b612d6c816133a3565b82525050565b6000612d7e8285612977565b9150612d8a8284612977565b91508190509392505050565b6000602082019050612dab600083018461287a565b92915050565b6000608082019050612dc6600083018761287a565b612dd3602083018661287a565b612de06040830185612d63565b8181036060830152612df28184612905565b905095945050505050565b60006020820190508181036000830152612e178184612889565b905092915050565b6000602082019050612e3460008301846128f6565b92915050565b60006020820190508181036000830152612e54818461293e565b905092915050565b60006020820190508181036000830152612e75816129a8565b9050919050565b60006020820190508181036000830152612e95816129cb565b9050919050565b60006020820190508181036000830152612eb5816129ee565b9050919050565b60006020820190508181036000830152612ed581612a11565b9050919050565b60006020820190508181036000830152612ef581612a34565b9050919050565b60006020820190508181036000830152612f1581612a57565b9050919050565b60006020820190508181036000830152612f3581612a7a565b9050919050565b60006020820190508181036000830152612f5581612a9d565b9050919050565b60006020820190508181036000830152612f7581612ac0565b9050919050565b60006020820190508181036000830152612f9581612ae3565b9050919050565b60006020820190508181036000830152612fb581612b06565b9050919050565b60006020820190508181036000830152612fd581612b29565b9050919050565b60006020820190508181036000830152612ff581612b4c565b9050919050565b6000602082019050818103600083015261301581612b6f565b9050919050565b6000602082019050818103600083015261303581612b92565b9050919050565b6000602082019050818103600083015261305581612bb5565b9050919050565b6000602082019050818103600083015261307581612bd8565b9050919050565b6000602082019050818103600083015261309581612bfb565b9050919050565b600060208201905081810360008301526130b581612c1e565b9050919050565b600060208201905081810360008301526130d581612c41565b9050919050565b600060208201905081810360008301526130f581612c64565b9050919050565b6000602082019050818103600083015261311581612c87565b9050919050565b60006080820190506131316000830184612cff565b92915050565b600060208201905061314c6000830184612d63565b92915050565b600061315c61316d565b90506131688282613421565b919050565b6000604051905090565b600067ffffffffffffffff82111561319257613191613588565b5b61319b826135cb565b9050602081019050919050565b6000819050602082019050919050565b600081519050919050565b600081519050919050565b600081519050919050565b6000602082019050919050565b600082825260208201905092915050565b600082825260208201905092915050565b600082825260208201905092915050565b600081905092915050565b600061322f826133a3565b915061323a836133a3565b9250827fffffffffffffffffffffffffffffffffffffffffffffffffffffffffffffffff0382111561326f5761326e6134cc565b5b828201905092915050565b6000613285826133a3565b9150613290836133a3565b9250826132a05761329f6134fb565b5b828204905092915050565b60006132b6826133a3565b91506132c1836133a3565b9250817fffffffffffffffffffffffffffffffffffffffffffffffffffffffffffffffff04831182151516156132fa576132f96134cc565b5b828202905092915050565b6000613310826133a3565b915061331b836133a3565b92508282101561332e5761332d6134cc565b5b828203905092915050565b600061334482613383565b9050919050565b60008115159050919050565b60007fffffffff0000000000000000000000000000000000000000000000000000000082169050919050565b600073ffffffffffffffffffffffffffffffffffffffff82169050919050565b6000819050919050565b82818337600083830152505050565b60005b838110156133da5780820151818401526020810190506133bf565b838111156133e9576000848401525b50505050565b6000600282049050600182168061340757607f821691505b6020821081141561341b5761341a61352a565b5b50919050565b61342a826135cb565b810181811067ffffffffffffffff8211171561344957613448613588565b5b80604052505050565b600061345d826133a3565b91507fffffffffffffffffffffffffffffffffffffffffffffffffffffffffffffffff8214156134905761348f6134cc565b5b600182019050919050565b60006134a6826133a3565b91506134b1836133a3565b9250826134c1576134c06134fb565b5b828206905092915050565b7f4e487b7100000000000000000000000000000000000000000000000000000000600052601160045260246000fd5b7f4e487b7100000000000000000000000000000000000000000000000000000000600052601260045260246000fd5b7f4e487b7100000000000000000000000000000000000000000000000000000000600052602260045260246000fd5b7f4e487b7100000000000000000000000000000000000000000000000000000000600052603260045260246000fd5b7f4e487b7100000000000000000000000000000000000000000000000000000000600052604160045260246000fd5b600080fd5b600080fd5b600080fd5b600080fd5b6000601f19601f8301169050919050565b7f4e6f7420656e6f756768206d6f6e657900000000000000000000000000000000600082015250565b7f4552433732313a207472616e7366657220746f206e6f6e20455243373231526560008201527f63656976657220696d706c656d656e7465720000000000000000000000000000602082015250565b7f427265616b706f696e7420350000000000000000000000000000000000000000600082015250565b7f4552433732313a20746f6b656e20616c7265616479206d696e74656400000000600082015250565b7f427265616b706f696e7420360000000000000000000000000000000000000000600082015250565b7f4552433732313a207472616e7366657220746f20746865207a65726f2061646460008201527f7265737300000000000000000000000000000000000000000000000000000000602082015250565b7f4552433732313a20617070726f766520746f2063616c6c657200000000000000600082015250565b7f4552433732313a206f70657261746f7220717565727920666f72206e6f6e657860008201527f697374656e7420746f6b656e0000000000000000000000000000000000000000602082015250565b7f427265616b706f696e7420380000000000000000000000000000000000000000600082015250565b7f436f6e7472616374206973206e6f742063757272656e746c7920666f7220736160008201527f6c65000000000000000000000000000000000000000000000000000000000000602082015250565b7f4552433732313a20617070726f76652063616c6c6572206973206e6f74206f7760008201527f6e6572206e6f7220617070726f76656420666f7220616c6c0000000000000000602082015250565b7f4552433732313a2062616c616e636520717565727920666f7220746865207a6560008201527f726f206164647265737300000000000000000000000000000000000000000000602082015250565b7f4552433732313a206f776e657220717565727920666f72206e6f6e657869737460008201527f656e7420746f6b656e0000000000000000000000000000000000000000000000602082015250565b7f427265616b706f696e7420390000000000000000000000000000000000000000600082015250565b7f4552433732313a206d696e7420746f20746865207a65726f2061646472657373600082015250565b7f4552433732313a20617070726f76656420717565727920666f72206e6f6e657860008201527f697374656e7420746f6b656e0000000000000000000000000000000000000000602082015250565b7f4552433732313a207472616e73666572206f6620746f6b656e2074686174206960008201527f73206e6f74206f776e0000000000000000000000000000000000000000000000602082015250565b7f427265616b706f696e7420370000000000000000000000000000000000000000600082015250565b7f4552433732314d657461646174613a2055524920717565727920666f72206e6f60008201527f6e6578697374656e7420746f6b656e0000000000000000000000000000000000602082015250565b7f4552433732313a20617070726f76616c20746f2063757272656e74206f776e6560008201527f7200000000000000000000000000000000000000000000000000000000000000602082015250565b7f4552433732313a207472616e736665722063616c6c6572206973206e6f74206f60008201527f776e6572206e6f7220617070726f766564000000000000000000000000000000602082015250565b7f4f6e6c7920746865206f776e65722063616e2063616c6c20746861742066756e60008201527f6374696f6e000000000000000000000000000000000000000000000000000000602082015250565b613b5981613339565b8114613b6457600080fd5b50565b613b708161334b565b8114613b7b57600080fd5b50565b613b8781613357565b8114613b9257600080fd5b50565b613b9e816133a3565b8114613ba957600080fd5b5056fea264697066735822122036f7262ae03ff4dc1646b6f5bce93e1fa5ade79897d8a50e42aebde64152e04964736f6c63430008070033",
  "immutableReferences": {},
  "source": "// SPDX-License-Identifier: Unlicensed\r\npragma solidity ^0.8;\r\nimport \"@openzeppelin/contracts/token/ERC721/ERC721.sol\";\r\nimport \"./NFTContract.sol\";\r\n\r\ncontract ContractNFTHandler is ERC721 {\r\n    constructor (string memory _name, string memory _symbol) ERC721(_name, _symbol) {\r\n        tokenCount = 0;\r\n    }\r\n\r\n    struct NFT {\r\n        uint256 id;\r\n        uint256 price;\r\n        bool onSale;\r\n        address contractAddress;\r\n    }\r\n\r\n    uint256 public tokenCount;\r\n    mapping (uint256 => address) public _tokenAddresses;\r\n    mapping (uint256 => address) public _tokenOwners;\r\n    mapping (uint256 => uint256) public _tokenPrices;\r\n    mapping (uint256 => bool) public _forSale;\r\n\r\n    modifier isOwnerOf(uint256 _tokenId) {\r\n        require(_tokenOwners[_tokenId]==msg.sender, \"Only the owner can call that function\");\r\n        _;\r\n    }\r\n\r\n    modifier isForSale(uint256 _tokenId) {\r\n        require(_forSale[_tokenId], \"Contract is not currently for sale\");\r\n        _;\r\n    }\r\n\r\n    // Mint an NFT for a smart contract that inherits from NFTContract.sol\r\n    function mintContract(address _owner, address _contractAddress, uint256 price) external {\r\n        _tokenAddresses[tokenCount] = _contractAddress;\r\n        _tokenOwners[tokenCount] = _owner;\r\n        _tokenPrices[tokenCount] = price;\r\n        _forSale[tokenCount] = false;\r\n        _safeMint(_owner, tokenCount);\r\n        tokenCount++;\r\n    }\r\n\r\n    function setPrice(uint256 _tokenId, uint256 price) external isOwnerOf(_tokenId) {\r\n        _tokenPrices[_tokenId] = price;\r\n    }\r\n\r\n    // Change the sale status of an NFT if the sale status of an NFT is false, it can no longer be pruchased using the purchaseNFT function\r\n    function setSaleStatus(uint256 _tokenId, bool saleStatus) external isOwnerOf(_tokenId) {\r\n        _forSale[_tokenId] = saleStatus;\r\n    }\r\n\r\n    // Change ownership of an NFT currently on sale to _to\r\n    function purchaseNFT(uint256 _tokenId, address _to) external payable isForSale(_tokenId) {\r\n        uint256 price = _tokenPrices[_tokenId];\r\n        require(msg.value>=price*(1 wei), \"Not enough money\");\r\n\r\n        // Transfer record of ownership in this contract\r\n        address currentOwner = _tokenOwners[_tokenId];\r\n        _transfer(currentOwner, _to, _tokenId);\r\n\r\n        // Transfer ownership record in the contract being purchased\r\n        NFTContract nft = NFTContract(_tokenAddresses[_tokenId]);\r\n        nft.transferOwnerShip(_to);\r\n        require(1==2, \"Breakpoint 5\");\r\n\r\n        // Pay the original owner and refund the excess money to the buyer\r\n        address payable owner = payable(_tokenOwners[_tokenId]);\r\n        require(1==2, \"Breakpoint 6\");\r\n        address payable buyer = payable(msg.sender);\r\n        require(1==2, \"Breakpoint 7\");\r\n        owner.transfer(price);\r\n        require(1==2, \"Breakpoint 8\");\r\n        buyer.transfer(msg.value-price);\r\n        require(1==2, \"Breakpoint 9\");\r\n\r\n        // Set sale status to false\r\n        _forSale[_tokenId] = false;\r\n    }\r\n\r\n    // This function allows an NFT owner to transfer ownership to another account\r\n    function transferNFT(uint256 _tokenId, address _to) external isOwnerOf(_tokenId) {\r\n        // Transfer record of ownership in this contract\r\n        _transfer(msg.sender, _to, _tokenId);\r\n\r\n        // Transfer ownership record in the contract being purchased\r\n        NFTContract nft = NFTContract(_tokenAddresses[_tokenId]);\r\n        nft.transferOwnerShip(_to);\r\n    }\r\n\r\n    function getAllNFTDetails() public view returns(NFT[] memory) {\r\n        NFT[] memory nftDetails = new NFT[](tokenCount);\r\n        for (uint i=0; i<tokenCount; i++) {\r\n            nftDetails[i] = NFT(i, _tokenPrices[i], _forSale[i], _tokenAddresses[i]);\r\n        }\r\n        return nftDetails;\r\n    }\r\n\r\n    function getNFTDetails(uint256 _tokenId) public view returns(NFT memory) {\r\n        NFT memory nftDetails = NFT(_tokenId, _tokenPrices[_tokenId], _forSale[_tokenId], _tokenAddresses[_tokenId]);\r\n        return nftDetails;\r\n    }\r\n}",
  "sourcePath": "C:\\Users\\alok2\\Downloads\\solidity_projects\\ContractsAsNFTs\\contracts\\ContractNFTHandler.sol",
  "compiler": {
    "name": "solc",
    "version": "0.8.7+commit.e28d00a7.Emscripten.clang"
  },
  "schemaVersion": "3.4.3",
  "updatedAt": "2021-09-17T15:06:27.396Z",
  "devdoc": {
    "kind": "dev",
    "methods": {
      "approve(address,uint256)": {
        "details": "See {IERC721-approve}."
      },
      "balanceOf(address)": {
        "details": "See {IERC721-balanceOf}."
      },
      "getApproved(uint256)": {
        "details": "See {IERC721-getApproved}."
      },
      "isApprovedForAll(address,address)": {
        "details": "See {IERC721-isApprovedForAll}."
      },
      "name()": {
        "details": "See {IERC721Metadata-name}."
      },
      "ownerOf(uint256)": {
        "details": "See {IERC721-ownerOf}."
      },
      "safeTransferFrom(address,address,uint256)": {
        "details": "See {IERC721-safeTransferFrom}."
      },
      "safeTransferFrom(address,address,uint256,bytes)": {
        "details": "See {IERC721-safeTransferFrom}."
      },
      "setApprovalForAll(address,bool)": {
        "details": "See {IERC721-setApprovalForAll}."
      },
      "supportsInterface(bytes4)": {
        "details": "See {IERC165-supportsInterface}."
      },
      "symbol()": {
        "details": "See {IERC721Metadata-symbol}."
      },
      "tokenURI(uint256)": {
        "details": "See {IERC721Metadata-tokenURI}."
      },
      "transferFrom(address,address,uint256)": {
        "details": "See {IERC721-transferFrom}."
      }
    },
    "version": 1
  },
  "userdoc": {
    "kind": "user",
    "methods": {},
    "version": 1
  }
}