{
  "contractName": "ContractNFTHandler",
  "abi": [
    {
      "inputs": [
        {
          "internalType": "string",
          "name": "_name",
          "type": "string"
        },
        {
          "internalType": "string",
          "name": "_symbol",
          "type": "string"
        }
      ],
      "stateMutability": "nonpayable",
      "type": "constructor"
    },
    {
      "anonymous": false,
      "inputs": [
        {
          "indexed": true,
          "internalType": "address",
          "name": "owner",
          "type": "address"
        },
        {
          "indexed": true,
          "internalType": "address",
          "name": "approved",
          "type": "address"
        },
        {
          "indexed": true,
          "internalType": "uint256",
          "name": "tokenId",
          "type": "uint256"
        }
      ],
      "name": "Approval",
      "type": "event"
    },
    {
      "anonymous": false,
      "inputs": [
        {
          "indexed": true,
          "internalType": "address",
          "name": "owner",
          "type": "address"
        },
        {
          "indexed": true,
          "internalType": "address",
          "name": "operator",
          "type": "address"
        },
        {
          "indexed": false,
          "internalType": "bool",
          "name": "approved",
          "type": "bool"
        }
      ],
      "name": "ApprovalForAll",
      "type": "event"
    },
    {
      "anonymous": false,
      "inputs": [
        {
          "indexed": true,
          "internalType": "address",
          "name": "from",
          "type": "address"
        },
        {
          "indexed": true,
          "internalType": "address",
          "name": "to",
          "type": "address"
        },
        {
          "indexed": true,
          "internalType": "uint256",
          "name": "tokenId",
          "type": "uint256"
        }
      ],
      "name": "Transfer",
      "type": "event"
    },
    {
      "inputs": [
        {
          "internalType": "uint256",
          "name": "",
          "type": "uint256"
        }
      ],
      "name": "_forSale",
      "outputs": [
        {
          "internalType": "bool",
          "name": "",
          "type": "bool"
        }
      ],
      "stateMutability": "view",
      "type": "function"
    },
    {
      "inputs": [
        {
          "internalType": "address",
          "name": "",
          "type": "address"
        }
      ],
      "name": "_tokenAddressToId",
      "outputs": [
        {
          "internalType": "uint256",
          "name": "",
          "type": "uint256"
        }
      ],
      "stateMutability": "view",
      "type": "function"
    },
    {
      "inputs": [
        {
          "internalType": "uint256",
          "name": "",
          "type": "uint256"
        }
      ],
      "name": "_tokenIdtoAdderss",
      "outputs": [
        {
          "internalType": "address",
          "name": "",
          "type": "address"
        }
      ],
      "stateMutability": "view",
      "type": "function"
    },
    {
      "inputs": [
        {
          "internalType": "uint256",
          "name": "",
          "type": "uint256"
        }
      ],
      "name": "_tokenPrices",
      "outputs": [
        {
          "internalType": "uint256",
          "name": "",
          "type": "uint256"
        }
      ],
      "stateMutability": "view",
      "type": "function"
    },
    {
      "inputs": [
        {
          "internalType": "address",
          "name": "to",
          "type": "address"
        },
        {
          "internalType": "uint256",
          "name": "tokenId",
          "type": "uint256"
        }
      ],
      "name": "approve",
      "outputs": [],
      "stateMutability": "nonpayable",
      "type": "function"
    },
    {
      "inputs": [
        {
          "internalType": "address",
          "name": "owner",
          "type": "address"
        }
      ],
      "name": "balanceOf",
      "outputs": [
        {
          "internalType": "uint256",
          "name": "",
          "type": "uint256"
        }
      ],
      "stateMutability": "view",
      "type": "function"
    },
    {
      "inputs": [
        {
          "internalType": "uint256",
          "name": "tokenId",
          "type": "uint256"
        }
      ],
      "name": "getApproved",
      "outputs": [
        {
          "internalType": "address",
          "name": "",
          "type": "address"
        }
      ],
      "stateMutability": "view",
      "type": "function"
    },
    {
      "inputs": [
        {
          "internalType": "address",
          "name": "owner",
          "type": "address"
        },
        {
          "internalType": "address",
          "name": "operator",
          "type": "address"
        }
      ],
      "name": "isApprovedForAll",
      "outputs": [
        {
          "internalType": "bool",
          "name": "",
          "type": "bool"
        }
      ],
      "stateMutability": "view",
      "type": "function"
    },
    {
      "inputs": [],
      "name": "name",
      "outputs": [
        {
          "internalType": "string",
          "name": "",
          "type": "string"
        }
      ],
      "stateMutability": "view",
      "type": "function"
    },
    {
      "inputs": [
        {
          "internalType": "uint256",
          "name": "tokenId",
          "type": "uint256"
        }
      ],
      "name": "ownerOf",
      "outputs": [
        {
          "internalType": "address",
          "name": "",
          "type": "address"
        }
      ],
      "stateMutability": "view",
      "type": "function"
    },
    {
      "inputs": [
        {
          "internalType": "address",
          "name": "operator",
          "type": "address"
        },
        {
          "internalType": "bool",
          "name": "approved",
          "type": "bool"
        }
      ],
      "name": "setApprovalForAll",
      "outputs": [],
      "stateMutability": "nonpayable",
      "type": "function"
    },
    {
      "inputs": [
        {
          "internalType": "bytes4",
          "name": "interfaceId",
          "type": "bytes4"
        }
      ],
      "name": "supportsInterface",
      "outputs": [
        {
          "internalType": "bool",
          "name": "",
          "type": "bool"
        }
      ],
      "stateMutability": "view",
      "type": "function"
    },
    {
      "inputs": [],
      "name": "symbol",
      "outputs": [
        {
          "internalType": "string",
          "name": "",
          "type": "string"
        }
      ],
      "stateMutability": "view",
      "type": "function"
    },
    {
      "inputs": [],
      "name": "tokenCount",
      "outputs": [
        {
          "internalType": "uint256",
          "name": "",
          "type": "uint256"
        }
      ],
      "stateMutability": "view",
      "type": "function"
    },
    {
      "inputs": [
        {
          "internalType": "uint256",
          "name": "tokenId",
          "type": "uint256"
        }
      ],
      "name": "tokenURI",
      "outputs": [
        {
          "internalType": "string",
          "name": "",
          "type": "string"
        }
      ],
      "stateMutability": "view",
      "type": "function"
    },
    {
      "inputs": [
        {
          "internalType": "address",
          "name": "_owner",
          "type": "address"
        },
        {
          "internalType": "address",
          "name": "_contractAddress",
          "type": "address"
        },
        {
          "internalType": "uint256",
          "name": "price",
          "type": "uint256"
        }
      ],
      "name": "mintContract",
      "outputs": [],
      "stateMutability": "nonpayable",
      "type": "function"
    },
    {
      "inputs": [
        {
          "internalType": "uint256",
          "name": "tokenId",
          "type": "uint256"
        },
        {
          "internalType": "uint256",
          "name": "price",
          "type": "uint256"
        }
      ],
      "name": "setPrice",
      "outputs": [],
      "stateMutability": "nonpayable",
      "type": "function"
    },
    {
      "inputs": [
        {
          "internalType": "uint256",
          "name": "tokenId",
          "type": "uint256"
        },
        {
          "internalType": "bool",
          "name": "saleStatus",
          "type": "bool"
        }
      ],
      "name": "setSaleStatus",
      "outputs": [],
      "stateMutability": "nonpayable",
      "type": "function"
    },
    {
      "inputs": [
        {
          "internalType": "uint256",
          "name": "tokenId",
          "type": "uint256"
        },
        {
          "internalType": "address",
          "name": "to",
          "type": "address"
        }
      ],
      "name": "purchaseNFT",
      "outputs": [],
      "stateMutability": "payable",
      "type": "function"
    },
    {
      "inputs": [
        {
          "internalType": "address",
          "name": "from",
          "type": "address"
        },
        {
          "internalType": "address",
          "name": "to",
          "type": "address"
        },
        {
          "internalType": "uint256",
          "name": "tokenId",
          "type": "uint256"
        }
      ],
      "name": "transferFrom",
      "outputs": [],
      "stateMutability": "nonpayable",
      "type": "function"
    },
    {
      "inputs": [
        {
          "internalType": "address",
          "name": "from",
          "type": "address"
        },
        {
          "internalType": "address",
          "name": "to",
          "type": "address"
        },
        {
          "internalType": "uint256",
          "name": "tokenId",
          "type": "uint256"
        }
      ],
      "name": "safeTransferFrom",
      "outputs": [],
      "stateMutability": "nonpayable",
      "type": "function"
    },
    {
      "inputs": [
        {
          "internalType": "address",
          "name": "from",
          "type": "address"
        },
        {
          "internalType": "address",
          "name": "to",
          "type": "address"
        },
        {
          "internalType": "uint256",
          "name": "tokenId",
          "type": "uint256"
        },
        {
          "internalType": "bytes",
          "name": "_data",
          "type": "bytes"
        }
      ],
      "name": "safeTransferFrom",
      "outputs": [],
      "stateMutability": "nonpayable",
      "type": "function"
    },
    {
      "inputs": [
        {
          "internalType": "uint256",
          "name": "tokenId",
          "type": "uint256"
        },
        {
          "internalType": "address",
          "name": "to",
          "type": "address"
        }
      ],
      "name": "transferNFT",
      "outputs": [],
      "stateMutability": "nonpayable",
      "type": "function"
    },
    {
      "inputs": [],
      "name": "getAllNFTDetails",
      "outputs": [
        {
          "components": [
            {
              "internalType": "uint256",
              "name": "id",
              "type": "uint256"
            },
            {
              "internalType": "uint256",
              "name": "price",
              "type": "uint256"
            },
            {
              "internalType": "bool",
              "name": "onSale",
              "type": "bool"
            },
            {
              "internalType": "address",
              "name": "contractAddress",
              "type": "address"
            }
          ],
          "internalType": "struct ContractNFTHandler.NFT[]",
          "name": "",
          "type": "tuple[]"
        }
      ],
      "stateMutability": "view",
      "type": "function"
    },
    {
      "inputs": [
        {
          "internalType": "uint256",
          "name": "tokenId",
          "type": "uint256"
        }
      ],
      "name": "getNFTDetails",
      "outputs": [
        {
          "components": [
            {
              "internalType": "uint256",
              "name": "id",
              "type": "uint256"
            },
            {
              "internalType": "uint256",
              "name": "price",
              "type": "uint256"
            },
            {
              "internalType": "bool",
              "name": "onSale",
              "type": "bool"
            },
            {
              "internalType": "address",
              "name": "contractAddress",
              "type": "address"
            }
          ],
          "internalType": "struct ContractNFTHandler.NFT",
          "name": "",
          "type": "tuple"
        }
      ],
      "stateMutability": "view",
      "type": "function"
    }
  ],
  "bytecode": "0x608060405260016006553480156200001657600080fd5b5060405162003c0538038062003c0583398181016040528101906200003c9190620001a8565b81818160009080519060200190620000569291906200007a565b5080600190805190602001906200006f9291906200007a565b5050505050620003b1565b8280546200008890620002c2565b90600052602060002090601f016020900481019282620000ac5760008555620000f8565b82601f10620000c757805160ff1916838001178555620000f8565b82800160010185558215620000f8579182015b82811115620000f7578251825591602001919060010190620000da565b5b5090506200010791906200010b565b5090565b5b80821115620001265760008160009055506001016200010c565b5090565b6000620001416200013b8462000256565b6200022d565b90508281526020810184848401111562000160576200015f62000391565b5b6200016d8482856200028c565b509392505050565b600082601f8301126200018d576200018c6200038c565b5b81516200019f8482602086016200012a565b91505092915050565b60008060408385031215620001c257620001c16200039b565b5b600083015167ffffffffffffffff811115620001e357620001e262000396565b5b620001f18582860162000175565b925050602083015167ffffffffffffffff81111562000215576200021462000396565b5b620002238582860162000175565b9150509250929050565b6000620002396200024c565b9050620002478282620002f8565b919050565b6000604051905090565b600067ffffffffffffffff8211156200027457620002736200035d565b5b6200027f82620003a0565b9050602081019050919050565b60005b83811015620002ac5780820151818401526020810190506200028f565b83811115620002bc576000848401525b50505050565b60006002820490506001821680620002db57607f821691505b60208210811415620002f257620002f16200032e565b5b50919050565b6200030382620003a0565b810181811067ffffffffffffffff821117156200032557620003246200035d565b5b80604052505050565b7f4e487b7100000000000000000000000000000000000000000000000000000000600052602260045260246000fd5b7f4e487b7100000000000000000000000000000000000000000000000000000000600052604160045260246000fd5b600080fd5b600080fd5b600080fd5b600080fd5b6000601f19601f8301169050919050565b61384480620003c16000396000f3fe6080604052600436106101665760003560e01c806382260f35116100d1578063aa3b13d01161008a578063c87b56dd11610064578063c87b56dd14610577578063dd53c301146105b4578063e985e9c5146105dd578063f7d975771461061a57610166565b8063aa3b13d0146104e8578063b54c5c3114610525578063b88d4fde1461054e57610166565b806382260f35146103c65780639036c0501461040357806394492fcc1461042c57806395d89b41146104695780639f181b5e14610494578063a22cb465146104bf57610166565b806342842e0e1161012357806342842e0e1461029f57806343e3dbe6146102c85780636352211e146102f357806370a0823114610330578063798008361461036d5780637a9a26da1461038957610166565b806301ffc9a71461016b57806306fdde03146101a857806307f67ced146101d3578063081812fc14610210578063095ea7b31461024d57806323b872dd14610276575b600080fd5b34801561017757600080fd5b50610192600480360381019061018d9190612544565b610643565b60405161019f9190612bcb565b60405180910390f35b3480156101b457600080fd5b506101bd610725565b6040516101ca9190612be6565b60405180910390f35b3480156101df57600080fd5b506101fa60048036038101906101f5919061259e565b6107b7565b6040516102079190612bcb565b60405180910390f35b34801561021c57600080fd5b506102376004803603810190610232919061259e565b6107d7565b6040516102449190612b42565b60405180910390f35b34801561025957600080fd5b50610274600480360381019061026f9190612504565b61085c565b005b34801561028257600080fd5b5061029d600480360381019061029891906123ee565b610974565b005b3480156102ab57600080fd5b506102c660048036038101906102c191906123ee565b6109e0565b005b3480156102d457600080fd5b506102dd610a0a565b6040516102ea9190612ba9565b60405180910390f35b3480156102ff57600080fd5b5061031a6004803603810190610315919061259e565b610b4f565b6040516103279190612b42565b60405180910390f35b34801561033c57600080fd5b5061035760048036038101906103529190612381565b610c01565b6040516103649190612e63565b60405180910390f35b610387600480360381019061038291906125cb565b610cb9565b005b34801561039557600080fd5b506103b060048036038101906103ab919061259e565b610ecb565b6040516103bd9190612b42565b60405180910390f35b3480156103d257600080fd5b506103ed60048036038101906103e8919061259e565b610efe565b6040516103fa9190612e48565b60405180910390f35b34801561040f57600080fd5b5061042a600480360381019061042591906125cb565b610fb2565b005b34801561043857600080fd5b50610453600480360381019061044e9190612381565b6110b7565b6040516104609190612e63565b60405180910390f35b34801561047557600080fd5b5061047e6110cf565b60405161048b9190612be6565b60405180910390f35b3480156104a057600080fd5b506104a9611161565b6040516104b69190612e63565b60405180910390f35b3480156104cb57600080fd5b506104e660048036038101906104e191906124c4565b611167565b005b3480156104f457600080fd5b5061050f600480360381019061050a919061259e565b6112e8565b60405161051c9190612e63565b60405180910390f35b34801561053157600080fd5b5061054c6004803603810190610547919061260b565b611300565b005b34801561055a57600080fd5b5061057560048036038101906105709190612441565b611381565b005b34801561058357600080fd5b5061059e6004803603810190610599919061259e565b6113ef565b6040516105ab9190612be6565b60405180910390f35b3480156105c057600080fd5b506105db60048036038101906105d691906123ee565b611496565b005b3480156105e957600080fd5b5061060460048036038101906105ff91906123ae565b611623565b6040516106119190612bcb565b60405180910390f35b34801561062657600080fd5b50610641600480360381019061063c919061264b565b6116b7565b005b60007f80ac58cd000000000000000000000000000000000000000000000000000000007bffffffffffffffffffffffffffffffffffffffffffffffffffffffff1916827bffffffffffffffffffffffffffffffffffffffffffffffffffffffff1916148061070e57507f5b5e139f000000000000000000000000000000000000000000000000000000007bffffffffffffffffffffffffffffffffffffffffffffffffffffffff1916827bffffffffffffffffffffffffffffffffffffffffffffffffffffffff1916145b8061071e575061071d82611725565b5b9050919050565b6060600080546107349061311b565b80601f01602080910402602001604051908101604052809291908181526020018280546107609061311b565b80156107ad5780601f10610782576101008083540402835291602001916107ad565b820191906000526020600020905b81548152906001019060200180831161079057829003601f168201915b5050505050905090565b600a6020528060005260406000206000915054906101000a900460ff1681565b60006107e28261178f565b610821576040517f08c379a000000000000000000000000000000000000000000000000000000000815260040161081890612d88565b60405180910390fd5b6004600083815260200190815260200160002060009054906101000a900473ffffffffffffffffffffffffffffffffffffffff169050919050565b600061086782610b4f565b90508073ffffffffffffffffffffffffffffffffffffffff168373ffffffffffffffffffffffffffffffffffffffff1614156108d8576040517f08c379a00000000000000000000000000000000000000000000000000000000081526004016108cf90612e08565b60405180910390fd5b8073ffffffffffffffffffffffffffffffffffffffff166108f76117fb565b73ffffffffffffffffffffffffffffffffffffffff1614806109265750610925816109206117fb565b611623565b5b610965576040517f08c379a000000000000000000000000000000000000000000000000000000000815260040161095c90612d08565b60405180910390fd5b61096f8383611803565b505050565b806109866109806117fb565b826118bc565b6109c5576040517f08c379a00000000000000000000000000000000000000000000000000000000081526004016109bc90612da8565b60405180910390fd5b6109d084848461199a565b6109da8284611bf6565b50505050565b6109fb83838360405180602001604052806000815250611381565b610a058183611bf6565b505050565b6060600060065467ffffffffffffffff811115610a2a57610a296132b4565b5b604051908082528060200260200182016040528015610a6357816020015b610a50612268565b815260200190600190039081610a485790505b5090506000600190505b600654811015610b4757604051806080016040528082815260200160096000848152602001908152602001600020548152602001600a600084815260200190815260200160002060009054906101000a900460ff16151581526020016008600084815260200190815260200160002060009054906101000a900473ffffffffffffffffffffffffffffffffffffffff1673ffffffffffffffffffffffffffffffffffffffff16815250828281518110610b2957610b28613285565b5b60200260200101819052508080610b3f9061317e565b915050610a6d565b508091505090565b6000806002600084815260200190815260200160002060009054906101000a900473ffffffffffffffffffffffffffffffffffffffff169050600073ffffffffffffffffffffffffffffffffffffffff168173ffffffffffffffffffffffffffffffffffffffff161415610bf8576040517f08c379a0000000000000000000000000000000000000000000000000000000008152600401610bef90612d48565b60405180910390fd5b80915050919050565b60008073ffffffffffffffffffffffffffffffffffffffff168273ffffffffffffffffffffffffffffffffffffffff161415610c72576040517f08c379a0000000000000000000000000000000000000000000000000000000008152600401610c6990612d28565b60405180910390fd5b600360008373ffffffffffffffffffffffffffffffffffffffff1673ffffffffffffffffffffffffffffffffffffffff168152602001908152602001600020549050919050565b81600a600082815260200190815260200160002060009054906101000a900460ff16610d1a576040517f08c379a0000000000000000000000000000000000000000000000000000000008152600401610d1190612ce8565b60405180910390fd5b600060096000858152602001908152602001600020549050600181610d3f9190612fd7565b341015610d81576040517f08c379a0000000000000000000000000000000000000000000000000000000008152600401610d7890612c08565b60405180910390fd5b610d8a8461178f565b610dc9576040517f08c379a0000000000000000000000000000000000000000000000000000000008152600401610dc090612c28565b60405180910390fd5b6000610dd485610b4f565b9050610de181858761199a565b610deb8585611bf6565b6000610df686610b4f565b905060003390508173ffffffffffffffffffffffffffffffffffffffff166108fc859081150290604051600060405180830381858888f19350505050158015610e43573d6000803e3d6000fd5b508073ffffffffffffffffffffffffffffffffffffffff166108fc8534610e6a9190613031565b9081150290604051600060405180830381858888f19350505050158015610e95573d6000803e3d6000fd5b506000600a600089815260200190815260200160002060006101000a81548160ff02191690831515021790555050505050505050565b60086020528060005260406000206000915054906101000a900473ffffffffffffffffffffffffffffffffffffffff1681565b610f06612268565b6000604051806080016040528084815260200160096000868152602001908152602001600020548152602001600a600086815260200190815260200160002060009054906101000a900460ff16151581526020016008600086815260200190815260200160002060009054906101000a900473ffffffffffffffffffffffffffffffffffffffff1673ffffffffffffffffffffffffffffffffffffffff16815250905080915050919050565b81610fc4610fbe6117fb565b826118bc565b611003576040517f08c379a0000000000000000000000000000000000000000000000000000000008152600401610ffa90612da8565b60405180910390fd5b61100e33838561199a565b60006008600085815260200190815260200160002060009054906101000a900473ffffffffffffffffffffffffffffffffffffffff1690508073ffffffffffffffffffffffffffffffffffffffff1663f2fde38b846040518263ffffffff1660e01b815260040161107f9190612b42565b600060405180830381600087803b15801561109957600080fd5b505af11580156110ad573d6000803e3d6000fd5b5050505050505050565b60076020528060005260406000206000915090505481565b6060600180546110de9061311b565b80601f016020809104026020016040519081016040528092919081815260200182805461110a9061311b565b80156111575780601f1061112c57610100808354040283529160200191611157565b820191906000526020600020905b81548152906001019060200180831161113a57829003601f168201915b5050505050905090565b60065481565b61116f6117fb565b73ffffffffffffffffffffffffffffffffffffffff168273ffffffffffffffffffffffffffffffffffffffff1614156111dd576040517f08c379a00000000000000000000000000000000000000000000000000000000081526004016111d490612ca8565b60405180910390fd5b80600560006111ea6117fb565b73ffffffffffffffffffffffffffffffffffffffff1673ffffffffffffffffffffffffffffffffffffffff16815260200190815260200160002060008473ffffffffffffffffffffffffffffffffffffffff1673ffffffffffffffffffffffffffffffffffffffff16815260200190815260200160002060006101000a81548160ff0219169083151502179055508173ffffffffffffffffffffffffffffffffffffffff166112976117fb565b73ffffffffffffffffffffffffffffffffffffffff167f17307eab39ab6107e8899845ad3d59bd9653f200f220920489ca2b5937696c31836040516112dc9190612bcb565b60405180910390a35050565b60096020528060005260406000206000915090505481565b8161131261130c6117fb565b826118bc565b611351576040517f08c379a000000000000000000000000000000000000000000000000000000000815260040161134890612da8565b60405180910390fd5b81600a600085815260200190815260200160002060006101000a81548160ff021916908315150217905550505050565b8161139361138d6117fb565b826118bc565b6113d2576040517f08c379a00000000000000000000000000000000000000000000000000000000081526004016113c990612da8565b60405180910390fd5b6113de85858585611c9e565b6113e88385611bf6565b5050505050565b60606113fa8261178f565b611439576040517f08c379a000000000000000000000000000000000000000000000000000000000815260040161143090612de8565b60405180910390fd5b6000611443611cfa565b90506000815111611463576040518060200160405280600081525061148e565b8061146d84611d11565b60405160200161147e929190612b1e565b6040516020818303038152906040525b915050919050565b6000600760008473ffffffffffffffffffffffffffffffffffffffff1673ffffffffffffffffffffffffffffffffffffffff1681526020019081526020016000205414611518576040517f08c379a000000000000000000000000000000000000000000000000000000000815260040161150f90612e28565b60405180910390fd5b600654600760008473ffffffffffffffffffffffffffffffffffffffff1673ffffffffffffffffffffffffffffffffffffffff168152602001908152602001600020819055508160086000600654815260200190815260200160002060006101000a81548173ffffffffffffffffffffffffffffffffffffffff021916908373ffffffffffffffffffffffffffffffffffffffff16021790555080600960006006548152602001908152602001600020819055506000600a6000600654815260200190815260200160002060006101000a81548160ff02191690831515021790555061160683600654611e72565b600660008154809291906116199061317e565b9190505550505050565b6000600560008473ffffffffffffffffffffffffffffffffffffffff1673ffffffffffffffffffffffffffffffffffffffff16815260200190815260200160002060008373ffffffffffffffffffffffffffffffffffffffff1673ffffffffffffffffffffffffffffffffffffffff16815260200190815260200160002060009054906101000a900460ff16905092915050565b816116c96116c36117fb565b826118bc565b611708576040517f08c379a00000000000000000000000000000000000000000000000000000000081526004016116ff90612da8565b60405180910390fd5b816009600085815260200190815260200160002081905550505050565b60007f01ffc9a7000000000000000000000000000000000000000000000000000000007bffffffffffffffffffffffffffffffffffffffffffffffffffffffff1916827bffffffffffffffffffffffffffffffffffffffffffffffffffffffff1916149050919050565b60008073ffffffffffffffffffffffffffffffffffffffff166002600084815260200190815260200160002060009054906101000a900473ffffffffffffffffffffffffffffffffffffffff1673ffffffffffffffffffffffffffffffffffffffff1614159050919050565b600033905090565b816004600083815260200190815260200160002060006101000a81548173ffffffffffffffffffffffffffffffffffffffff021916908373ffffffffffffffffffffffffffffffffffffffff160217905550808273ffffffffffffffffffffffffffffffffffffffff1661187683610b4f565b73ffffffffffffffffffffffffffffffffffffffff167f8c5be1e5ebec7d5bd14f71427d1e84f3dd0314c0f7b2291e5b200ac8c7c3b92560405160405180910390a45050565b60006118c78261178f565b611906576040517f08c379a00000000000000000000000000000000000000000000000000000000081526004016118fd90612cc8565b60405180910390fd5b600061191183610b4f565b90508073ffffffffffffffffffffffffffffffffffffffff168473ffffffffffffffffffffffffffffffffffffffff16148061198057508373ffffffffffffffffffffffffffffffffffffffff16611968846107d7565b73ffffffffffffffffffffffffffffffffffffffff16145b8061199157506119908185611623565b5b91505092915050565b8273ffffffffffffffffffffffffffffffffffffffff166119ba82610b4f565b73ffffffffffffffffffffffffffffffffffffffff1614611a10576040517f08c379a0000000000000000000000000000000000000000000000000000000008152600401611a0790612dc8565b60405180910390fd5b600073ffffffffffffffffffffffffffffffffffffffff168273ffffffffffffffffffffffffffffffffffffffff161415611a80576040517f08c379a0000000000000000000000000000000000000000000000000000000008152600401611a7790612c88565b60405180910390fd5b611a8b838383611e90565b611a96600082611803565b6001600360008573ffffffffffffffffffffffffffffffffffffffff1673ffffffffffffffffffffffffffffffffffffffff1681526020019081526020016000206000828254611ae69190613031565b925050819055506001600360008473ffffffffffffffffffffffffffffffffffffffff1673ffffffffffffffffffffffffffffffffffffffff1681526020019081526020016000206000828254611b3d9190612f50565b92505081905550816002600083815260200190815260200160002060006101000a81548173ffffffffffffffffffffffffffffffffffffffff021916908373ffffffffffffffffffffffffffffffffffffffff160217905550808273ffffffffffffffffffffffffffffffffffffffff168473ffffffffffffffffffffffffffffffffffffffff167fddf252ad1be2c89b69c2b068fc378daa952ba7f163c4a11628f55a4df523b3ef60405160405180910390a4505050565b60006008600084815260200190815260200160002060009054906101000a900473ffffffffffffffffffffffffffffffffffffffff1690508073ffffffffffffffffffffffffffffffffffffffff1663f2fde38b836040518263ffffffff1660e01b8152600401611c679190612b42565b600060405180830381600087803b158015611c8157600080fd5b505af1158015611c95573d6000803e3d6000fd5b50505050505050565b611ca984848461199a565b611cb584848484611e95565b611cf4576040517f08c379a0000000000000000000000000000000000000000000000000000000008152600401611ceb90612c48565b60405180910390fd5b50505050565b606060405180602001604052806000815250905090565b60606000821415611d59576040518060400160405280600181526020017f30000000000000000000000000000000000000000000000000000000000000008152509050611e6d565b600082905060005b60008214611d8b578080611d749061317e565b915050600a82611d849190612fa6565b9150611d61565b60008167ffffffffffffffff811115611da757611da66132b4565b5b6040519080825280601f01601f191660200182016040528015611dd95781602001600182028036833780820191505090505b5090505b60008514611e6657600182611df29190613031565b9150600a85611e0191906131c7565b6030611e0d9190612f50565b60f81b818381518110611e2357611e22613285565b5b60200101907effffffffffffffffffffffffffffffffffffffffffffffffffffffffffffff1916908160001a905350600a85611e5f9190612fa6565b9450611ddd565b8093505050505b919050565b611e8c82826040518060200160405280600081525061202c565b5050565b505050565b6000611eb68473ffffffffffffffffffffffffffffffffffffffff16612087565b1561201f578373ffffffffffffffffffffffffffffffffffffffff1663150b7a02611edf6117fb565b8786866040518563ffffffff1660e01b8152600401611f019493929190612b5d565b602060405180830381600087803b158015611f1b57600080fd5b505af1925050508015611f4c57506040513d601f19601f82011682018060405250810190611f499190612571565b60015b611fcf573d8060008114611f7c576040519150601f19603f3d011682016040523d82523d6000602084013e611f81565b606091505b50600081511415611fc7576040517f08c379a0000000000000000000000000000000000000000000000000000000008152600401611fbe90612c48565b60405180910390fd5b805181602001fd5b63150b7a0260e01b7bffffffffffffffffffffffffffffffffffffffffffffffffffffffff1916817bffffffffffffffffffffffffffffffffffffffffffffffffffffffff191614915050612024565b600190505b949350505050565b612036838361209a565b6120436000848484611e95565b612082576040517f08c379a000000000000000000000000000000000000000000000000000000000815260040161207990612c48565b60405180910390fd5b505050565b600080823b905060008111915050919050565b600073ffffffffffffffffffffffffffffffffffffffff168273ffffffffffffffffffffffffffffffffffffffff16141561210a576040517f08c379a000000000000000000000000000000000000000000000000000000000815260040161210190612d68565b60405180910390fd5b6121138161178f565b15612153576040517f08c379a000000000000000000000000000000000000000000000000000000000815260040161214a90612c68565b60405180910390fd5b61215f60008383611e90565b6001600360008473ffffffffffffffffffffffffffffffffffffffff1673ffffffffffffffffffffffffffffffffffffffff16815260200190815260200160002060008282546121af9190612f50565b92505081905550816002600083815260200190815260200160002060006101000a81548173ffffffffffffffffffffffffffffffffffffffff021916908373ffffffffffffffffffffffffffffffffffffffff160217905550808273ffffffffffffffffffffffffffffffffffffffff16600073ffffffffffffffffffffffffffffffffffffffff167fddf252ad1be2c89b69c2b068fc378daa952ba7f163c4a11628f55a4df523b3ef60405160405180910390a45050565b60405180608001604052806000815260200160008152602001600015158152602001600073ffffffffffffffffffffffffffffffffffffffff1681525090565b60006122bb6122b684612ea3565b612e7e565b9050828152602081018484840111156122d7576122d66132e8565b5b6122e28482856130d9565b509392505050565b6000813590506122f9816137b2565b92915050565b60008135905061230e816137c9565b92915050565b600081359050612323816137e0565b92915050565b600081519050612338816137e0565b92915050565b600082601f830112612353576123526132e3565b5b81356123638482602086016122a8565b91505092915050565b60008135905061237b816137f7565b92915050565b600060208284031215612397576123966132f2565b5b60006123a5848285016122ea565b91505092915050565b600080604083850312156123c5576123c46132f2565b5b60006123d3858286016122ea565b92505060206123e4858286016122ea565b9150509250929050565b600080600060608486031215612407576124066132f2565b5b6000612415868287016122ea565b9350506020612426868287016122ea565b92505060406124378682870161236c565b9150509250925092565b6000806000806080858703121561245b5761245a6132f2565b5b6000612469878288016122ea565b945050602061247a878288016122ea565b935050604061248b8782880161236c565b925050606085013567ffffffffffffffff8111156124ac576124ab6132ed565b5b6124b88782880161233e565b91505092959194509250565b600080604083850312156124db576124da6132f2565b5b60006124e9858286016122ea565b92505060206124fa858286016122ff565b9150509250929050565b6000806040838503121561251b5761251a6132f2565b5b6000612529858286016122ea565b925050602061253a8582860161236c565b9150509250929050565b60006020828403121561255a576125596132f2565b5b600061256884828501612314565b91505092915050565b600060208284031215612587576125866132f2565b5b600061259584828501612329565b91505092915050565b6000602082840312156125b4576125b36132f2565b5b60006125c28482850161236c565b91505092915050565b600080604083850312156125e2576125e16132f2565b5b60006125f08582860161236c565b9250506020612601858286016122ea565b9150509250929050565b60008060408385031215612622576126216132f2565b5b60006126308582860161236c565b9250506020612641858286016122ff565b9150509250929050565b60008060408385031215612662576126616132f2565b5b60006126708582860161236c565b92505060206126818582860161236c565b9150509250929050565b60006126978383612a56565b60808301905092915050565b6126ac81613065565b82525050565b6126bb81613065565b82525050565b60006126cc82612ee4565b6126d68185612f12565b93506126e183612ed4565b8060005b838110156127125781516126f9888261268b565b975061270483612f05565b9250506001810190506126e5565b5085935050505092915050565b61272881613077565b82525050565b61273781613077565b82525050565b600061274882612eef565b6127528185612f23565b93506127628185602086016130e8565b61276b816132f7565b840191505092915050565b600061278182612efa565b61278b8185612f34565b935061279b8185602086016130e8565b6127a4816132f7565b840191505092915050565b60006127ba82612efa565b6127c48185612f45565b93506127d48185602086016130e8565b80840191505092915050565b60006127ed601083612f34565b91506127f882613308565b602082019050919050565b6000612810600383612f34565b915061281b82613331565b602082019050919050565b6000612833603283612f34565b915061283e8261335a565b604082019050919050565b6000612856601c83612f34565b9150612861826133a9565b602082019050919050565b6000612879602483612f34565b9150612884826133d2565b604082019050919050565b600061289c601983612f34565b91506128a782613421565b602082019050919050565b60006128bf602c83612f34565b91506128ca8261344a565b604082019050919050565b60006128e2602283612f34565b91506128ed82613499565b604082019050919050565b6000612905603883612f34565b9150612910826134e8565b604082019050919050565b6000612928602a83612f34565b915061293382613537565b604082019050919050565b600061294b602983612f34565b915061295682613586565b604082019050919050565b600061296e602083612f34565b9150612979826135d5565b602082019050919050565b6000612991602c83612f34565b915061299c826135fe565b604082019050919050565b60006129b4602c83612f34565b91506129bf8261364d565b604082019050919050565b60006129d7602983612f34565b91506129e28261369c565b604082019050919050565b60006129fa602f83612f34565b9150612a05826136eb565b604082019050919050565b6000612a1d602183612f34565b9150612a288261373a565b604082019050919050565b6000612a40601783612f34565b9150612a4b82613789565b602082019050919050565b608082016000820151612a6c6000850182612b00565b506020820151612a7f6020850182612b00565b506040820151612a92604085018261271f565b506060820151612aa560608501826126a3565b50505050565b608082016000820151612ac16000850182612b00565b506020820151612ad46020850182612b00565b506040820151612ae7604085018261271f565b506060820151612afa60608501826126a3565b50505050565b612b09816130cf565b82525050565b612b18816130cf565b82525050565b6000612b2a82856127af565b9150612b3682846127af565b91508190509392505050565b6000602082019050612b5760008301846126b2565b92915050565b6000608082019050612b7260008301876126b2565b612b7f60208301866126b2565b612b8c6040830185612b0f565b8181036060830152612b9e818461273d565b905095945050505050565b60006020820190508181036000830152612bc381846126c1565b905092915050565b6000602082019050612be0600083018461272e565b92915050565b60006020820190508181036000830152612c008184612776565b905092915050565b60006020820190508181036000830152612c21816127e0565b9050919050565b60006020820190508181036000830152612c4181612803565b9050919050565b60006020820190508181036000830152612c6181612826565b9050919050565b60006020820190508181036000830152612c8181612849565b9050919050565b60006020820190508181036000830152612ca18161286c565b9050919050565b60006020820190508181036000830152612cc18161288f565b9050919050565b60006020820190508181036000830152612ce1816128b2565b9050919050565b60006020820190508181036000830152612d01816128d5565b9050919050565b60006020820190508181036000830152612d21816128f8565b9050919050565b60006020820190508181036000830152612d418161291b565b9050919050565b60006020820190508181036000830152612d618161293e565b9050919050565b60006020820190508181036000830152612d8181612961565b9050919050565b60006020820190508181036000830152612da181612984565b9050919050565b60006020820190508181036000830152612dc1816129a7565b9050919050565b60006020820190508181036000830152612de1816129ca565b9050919050565b60006020820190508181036000830152612e01816129ed565b9050919050565b60006020820190508181036000830152612e2181612a10565b9050919050565b60006020820190508181036000830152612e4181612a33565b9050919050565b6000608082019050612e5d6000830184612aab565b92915050565b6000602082019050612e786000830184612b0f565b92915050565b6000612e88612e99565b9050612e94828261314d565b919050565b6000604051905090565b600067ffffffffffffffff821115612ebe57612ebd6132b4565b5b612ec7826132f7565b9050602081019050919050565b6000819050602082019050919050565b600081519050919050565b600081519050919050565b600081519050919050565b6000602082019050919050565b600082825260208201905092915050565b600082825260208201905092915050565b600082825260208201905092915050565b600081905092915050565b6000612f5b826130cf565b9150612f66836130cf565b9250827fffffffffffffffffffffffffffffffffffffffffffffffffffffffffffffffff03821115612f9b57612f9a6131f8565b5b828201905092915050565b6000612fb1826130cf565b9150612fbc836130cf565b925082612fcc57612fcb613227565b5b828204905092915050565b6000612fe2826130cf565b9150612fed836130cf565b9250817fffffffffffffffffffffffffffffffffffffffffffffffffffffffffffffffff0483118215151615613026576130256131f8565b5b828202905092915050565b600061303c826130cf565b9150613047836130cf565b92508282101561305a576130596131f8565b5b828203905092915050565b6000613070826130af565b9050919050565b60008115159050919050565b60007fffffffff0000000000000000000000000000000000000000000000000000000082169050919050565b600073ffffffffffffffffffffffffffffffffffffffff82169050919050565b6000819050919050565b82818337600083830152505050565b60005b838110156131065780820151818401526020810190506130eb565b83811115613115576000848401525b50505050565b6000600282049050600182168061313357607f821691505b6020821081141561314757613146613256565b5b50919050565b613156826132f7565b810181811067ffffffffffffffff82111715613175576131746132b4565b5b80604052505050565b6000613189826130cf565b91507fffffffffffffffffffffffffffffffffffffffffffffffffffffffffffffffff8214156131bc576131bb6131f8565b5b600182019050919050565b60006131d2826130cf565b91506131dd836130cf565b9250826131ed576131ec613227565b5b828206905092915050565b7f4e487b7100000000000000000000000000000000000000000000000000000000600052601160045260246000fd5b7f4e487b7100000000000000000000000000000000000000000000000000000000600052601260045260246000fd5b7f4e487b7100000000000000000000000000000000000000000000000000000000600052602260045260246000fd5b7f4e487b7100000000000000000000000000000000000000000000000000000000600052603260045260246000fd5b7f4e487b7100000000000000000000000000000000000000000000000000000000600052604160045260246000fd5b600080fd5b600080fd5b600080fd5b600080fd5b6000601f19601f8301169050919050565b7f4e6f7420656e6f756768206d6f6e657900000000000000000000000000000000600082015250565b7f7774660000000000000000000000000000000000000000000000000000000000600082015250565b7f4552433732313a207472616e7366657220746f206e6f6e20455243373231526560008201527f63656976657220696d706c656d656e7465720000000000000000000000000000602082015250565b7f4552433732313a20746f6b656e20616c7265616479206d696e74656400000000600082015250565b7f4552433732313a207472616e7366657220746f20746865207a65726f2061646460008201527f7265737300000000000000000000000000000000000000000000000000000000602082015250565b7f4552433732313a20617070726f766520746f2063616c6c657200000000000000600082015250565b7f4552433732313a206f70657261746f7220717565727920666f72206e6f6e657860008201527f697374656e7420746f6b656e0000000000000000000000000000000000000000602082015250565b7f436f6e7472616374206973206e6f742063757272656e746c7920666f7220736160008201527f6c65000000000000000000000000000000000000000000000000000000000000602082015250565b7f4552433732313a20617070726f76652063616c6c6572206973206e6f74206f7760008201527f6e6572206e6f7220617070726f76656420666f7220616c6c0000000000000000602082015250565b7f4552433732313a2062616c616e636520717565727920666f7220746865207a6560008201527f726f206164647265737300000000000000000000000000000000000000000000602082015250565b7f4552433732313a206f776e657220717565727920666f72206e6f6e657869737460008201527f656e7420746f6b656e0000000000000000000000000000000000000000000000602082015250565b7f4552433732313a206d696e7420746f20746865207a65726f2061646472657373600082015250565b7f4552433732313a20617070726f76656420717565727920666f72206e6f6e657860008201527f697374656e7420746f6b656e0000000000000000000000000000000000000000602082015250565b7f4552433732313a2063616c6c6572206973206e656974686572206f776e65722060008201527f6e6f7220617070726f7665640000000000000000000000000000000000000000602082015250565b7f4552433732313a207472616e73666572206f6620746f6b656e2074686174206960008201527f73206e6f74206f776e0000000000000000000000000000000000000000000000602082015250565b7f4552433732314d657461646174613a2055524920717565727920666f72206e6f60008201527f6e6578697374656e7420746f6b656e0000000000000000000000000000000000602082015250565b7f4552433732313a20617070726f76616c20746f2063757272656e74206f776e6560008201527f7200000000000000000000000000000000000000000000000000000000000000602082015250565b7f436f6e747261637420616c7265616479206d696e746564000000000000000000600082015250565b6137bb81613065565b81146137c657600080fd5b50565b6137d281613077565b81146137dd57600080fd5b50565b6137e981613083565b81146137f457600080fd5b50565b613800816130cf565b811461380b57600080fd5b5056fea264697066735822122098a187852d82b2c230ee21d27793e6b2467c33e64d16ca7a7255c0552e0ba77264736f6c63430008070033",
  "immutableReferences": {},
  "source": "// SPDX-License-Identifier: Unlicensed\r\npragma solidity ^0.8;\r\nimport \"@openzeppelin/contracts/token/ERC721/ERC721.sol\";\r\nimport \"./NFTContract.sol\";\r\n\r\ncontract ContractNFTHandler is ERC721 {\r\n    constructor (string memory _name, string memory _symbol) ERC721(_name, _symbol) {\r\n        // tokenCount = 1;\r\n    }\r\n\r\n    struct NFT {\r\n        uint256 id;\r\n        uint256 price;\r\n        bool onSale;\r\n        address contractAddress;\r\n    }\r\n\r\n    uint256 public tokenCount = 1;\r\n    mapping (address => uint256) public _tokenAddressToId;\r\n    mapping (uint256 => address) public _tokenIdtoAdderss;    \r\n    mapping (uint256 => uint256) public _tokenPrices;\r\n    mapping (uint256 => bool) public _forSale;\r\n\r\n    modifier isForSale(uint256 tokenId) {\r\n        require(_forSale[tokenId], \"Contract is not currently for sale\");\r\n        _;\r\n    }\r\n\r\n    modifier isOwner(uint256 tokenId) {\r\n        require(_isApprovedOrOwner(_msgSender(), tokenId), \"ERC721: caller is neither owner nor approved\");\r\n        _;\r\n    }\r\n\r\n    // Mint an NFT for a smart contract that inherits from NFTContract.sol\r\n    function mintContract(address _owner, address _contractAddress, uint256 price) external {\r\n        require(_tokenAddressToId[_contractAddress]==0, \"Contract already minted\");\r\n        _tokenAddressToId[_contractAddress] = tokenCount;\r\n        _tokenIdtoAdderss[tokenCount] = _contractAddress;\r\n        _tokenPrices[tokenCount] = price;\r\n        _forSale[tokenCount] = false;\r\n        _safeMint(_owner, tokenCount);\r\n        tokenCount++;\r\n    }\r\n\r\n    function setPrice(uint256 tokenId, uint256 price) external isOwner(tokenId) {\r\n        _tokenPrices[tokenId] = price;\r\n    }\r\n\r\n    // Change the sale status of an NFT if the sale status of an NFT is false, it can no longer be pruchased using the purchaseNFT function\r\n    function setSaleStatus(uint256 tokenId, bool saleStatus) external isOwner(tokenId) {\r\n        _forSale[tokenId] = saleStatus;\r\n    }\r\n\r\n    // Change ownership of an NFT currently on sale\r\n    function purchaseNFT(uint256 tokenId, address to) external payable isForSale(tokenId) {\r\n        uint256 price = _tokenPrices[tokenId];\r\n        require(msg.value>=price*(1 wei), \"Not enough money\");\r\n        require(_exists(tokenId), \"wtf\");\r\n\r\n        // Transfer record of ownership\r\n        address currentOwner = ownerOf(tokenId);\r\n        _transfer(currentOwner, to, tokenId);\r\n        _updateOwnershipInNFT(tokenId, to);\r\n\r\n        // Pay the original owner and refund the excess money to the buyer\r\n        address payable owner = payable(ownerOf(tokenId));\r\n        address payable buyer = payable(msg.sender);\r\n        owner.transfer(price);\r\n        buyer.transfer(msg.value-price);\r\n\r\n        // Set sale status to false\r\n        _forSale[tokenId] = false;\r\n    }\r\n\r\n    function _updateOwnershipInNFT(uint256 tokenId, address to) private {\r\n        NFTContract nft = NFTContract(_tokenIdtoAdderss[tokenId]);\r\n        nft.transferOwnership(to);\r\n    }\r\n\r\n    function transferFrom(address from, address to, uint256 tokenId) public virtual override isOwner(tokenId) {\r\n        _transfer(from, to, tokenId);\r\n        _updateOwnershipInNFT(tokenId, to);\r\n    }\r\n\r\n    function safeTransferFrom(address from, address to, uint256 tokenId) public virtual override {\r\n        safeTransferFrom(from, to, tokenId, \"\");\r\n        _updateOwnershipInNFT(tokenId, to);\r\n    }\r\n\r\n    function safeTransferFrom(address from, address to, uint256 tokenId, bytes memory _data) public virtual override isOwner(tokenId) {\r\n        _safeTransfer(from, to, tokenId, _data);\r\n        _updateOwnershipInNFT(tokenId, to);\r\n    }\r\n\r\n    // This function allows an NFT owner to transfer ownership to another account\r\n    function transferNFT(uint256 tokenId, address to) external isOwner(tokenId) {\r\n        // Transfer record of ownership in this contract\r\n        _transfer(msg.sender, to, tokenId);\r\n\r\n        // Transfer ownership record in the contract being purchased\r\n        NFTContract nft = NFTContract(_tokenIdtoAdderss[tokenId]);\r\n        nft.transferOwnership(to);\r\n    }\r\n\r\n    function getAllNFTDetails() public view returns(NFT[] memory) {\r\n        NFT[] memory nftDetails = new NFT[](tokenCount);\r\n        for (uint i=1; i<tokenCount; i++) {\r\n            nftDetails[i] = NFT(i, _tokenPrices[i], _forSale[i], _tokenIdtoAdderss[i]);\r\n        }\r\n        return nftDetails;\r\n    }\r\n\r\n    function getNFTDetails(uint256 tokenId) public view returns(NFT memory) {\r\n        NFT memory nftDetails = NFT(tokenId, _tokenPrices[tokenId], _forSale[tokenId], _tokenIdtoAdderss[tokenId]);\r\n        return nftDetails;\r\n    }\r\n}",
  "sourcePath": "C:\\Users\\alok2\\Downloads\\solidity_projects\\ContractsAsNFTs\\contracts\\ContractNFTHandler.sol",
  "compiler": {
    "name": "solc",
    "version": "0.8.7+commit.e28d00a7.Emscripten.clang"
  },
  "schemaVersion": "3.4.3",
  "updatedAt": "2021-09-18T14:20:35.120Z",
  "devdoc": {
    "kind": "dev",
    "methods": {
      "approve(address,uint256)": {
        "details": "See {IERC721-approve}."
      },
      "balanceOf(address)": {
        "details": "See {IERC721-balanceOf}."
      },
      "getApproved(uint256)": {
        "details": "See {IERC721-getApproved}."
      },
      "isApprovedForAll(address,address)": {
        "details": "See {IERC721-isApprovedForAll}."
      },
      "name()": {
        "details": "See {IERC721Metadata-name}."
      },
      "ownerOf(uint256)": {
        "details": "See {IERC721-ownerOf}."
      },
      "safeTransferFrom(address,address,uint256)": {
        "details": "See {IERC721-safeTransferFrom}."
      },
      "safeTransferFrom(address,address,uint256,bytes)": {
        "details": "See {IERC721-safeTransferFrom}."
      },
      "setApprovalForAll(address,bool)": {
        "details": "See {IERC721-setApprovalForAll}."
      },
      "supportsInterface(bytes4)": {
        "details": "See {IERC165-supportsInterface}."
      },
      "symbol()": {
        "details": "See {IERC721Metadata-symbol}."
      },
      "tokenURI(uint256)": {
        "details": "See {IERC721Metadata-tokenURI}."
      },
      "transferFrom(address,address,uint256)": {
        "details": "See {IERC721-transferFrom}."
      }
    },
    "version": 1
  },
  "userdoc": {
    "kind": "user",
    "methods": {},
    "version": 1
  }
}