{
  "contractName": "SampleNFTContract",
  "abi": [
    {
      "inputs": [
        {
          "internalType": "address",
          "name": "_owner",
          "type": "address"
        }
      ],
      "stateMutability": "nonpayable",
      "type": "constructor"
    },
    {
      "inputs": [],
      "name": "handlerContract",
      "outputs": [
        {
          "internalType": "address",
          "name": "",
          "type": "address"
        }
      ],
      "stateMutability": "view",
      "type": "function"
    },
    {
      "inputs": [],
      "name": "owner",
      "outputs": [
        {
          "internalType": "address",
          "name": "",
          "type": "address"
        }
      ],
      "stateMutability": "view",
      "type": "function"
    },
    {
      "inputs": [
        {
          "internalType": "address",
          "name": "newHandler",
          "type": "address"
        }
      ],
      "name": "changeHandlerContract",
      "outputs": [],
      "stateMutability": "nonpayable",
      "type": "function"
    },
    {
      "inputs": [
        {
          "internalType": "address",
          "name": "newOwner",
          "type": "address"
        }
      ],
      "name": "transferOwnership",
      "outputs": [],
      "stateMutability": "nonpayable",
      "type": "function"
    }
  ],
  "bytecode": "0x608060405234801561001057600080fd5b506040516104fd3803806104fd8339818101604052810190610032919061008d565b806000806101000a81548173ffffffffffffffffffffffffffffffffffffffff021916908373ffffffffffffffffffffffffffffffffffffffff16021790555050610108565b600081519050610087816100f1565b92915050565b6000602082840312156100a3576100a26100ec565b5b60006100b184828501610078565b91505092915050565b60006100c5826100cc565b9050919050565b600073ffffffffffffffffffffffffffffffffffffffff82169050919050565b600080fd5b6100fa816100ba565b811461010557600080fd5b50565b6103e6806101176000396000f3fe608060405234801561001057600080fd5b506004361061004c5760003560e01c8063313cc284146100515780638da5cb5b1461006f57806395cb5f811461008d578063f2fde38b146100a9575b600080fd5b6100596100c5565b6040516100669190610347565b60405180910390f35b6100776100eb565b6040516100849190610347565b60405180910390f35b6100a760048036038101906100a2919061030b565b61010f565b005b6100c360048036038101906100be919061030b565b610203565b005b600160009054906101000a900473ffffffffffffffffffffffffffffffffffffffff1681565b60008054906101000a900473ffffffffffffffffffffffffffffffffffffffff1681565b60008054906101000a900473ffffffffffffffffffffffffffffffffffffffff1673ffffffffffffffffffffffffffffffffffffffff163373ffffffffffffffffffffffffffffffffffffffff1614806101b65750600160009054906101000a900473ffffffffffffffffffffffffffffffffffffffff1673ffffffffffffffffffffffffffffffffffffffff163373ffffffffffffffffffffffffffffffffffffffff16145b6101bf57600080fd5b80600160006101000a81548173ffffffffffffffffffffffffffffffffffffffff021916908373ffffffffffffffffffffffffffffffffffffffff16021790555050565b60008054906101000a900473ffffffffffffffffffffffffffffffffffffffff1673ffffffffffffffffffffffffffffffffffffffff163373ffffffffffffffffffffffffffffffffffffffff1614806102aa5750600160009054906101000a900473ffffffffffffffffffffffffffffffffffffffff1673ffffffffffffffffffffffffffffffffffffffff163373ffffffffffffffffffffffffffffffffffffffff16145b6102b357600080fd5b806000806101000a81548173ffffffffffffffffffffffffffffffffffffffff021916908373ffffffffffffffffffffffffffffffffffffffff16021790555050565b60008135905061030581610399565b92915050565b60006020828403121561032157610320610394565b5b600061032f848285016102f6565b91505092915050565b61034181610362565b82525050565b600060208201905061035c6000830184610338565b92915050565b600061036d82610374565b9050919050565b600073ffffffffffffffffffffffffffffffffffffffff82169050919050565b600080fd5b6103a281610362565b81146103ad57600080fd5b5056fea2646970667358221220b7ba60f8bfa62bc3d2f4c414c9deb1c84a1d5d4b7f7c08ca1fd35176e42ee56f64736f6c63430008070033",
  "immutableReferences": {},
  "source": "// SPDX-License-Identifier: Unlicensed\r\npragma solidity ^0.8;\r\n\r\ncontract SampleNFTContract {\r\n    address public owner;\r\n    address public handlerContract;\r\n\r\n    constructor(address _owner) {\r\n        owner = _owner;\r\n    }\r\n\r\n    modifier isAuthorized() {\r\n        require(msg.sender == owner || msg.sender == handlerContract);\r\n        _;\r\n    }\r\n\r\n    function changeHandlerContract(address newHandler) external isAuthorized {\r\n        handlerContract = newHandler;\r\n    }\r\n\r\n    function transferOwnership(address newOwner) external isAuthorized {\r\n        owner = newOwner;\r\n    }\r\n}\r\n",
  "sourcePath": "C:\\Users\\alok2\\Downloads\\solidity_projects\\ContractsAsNFTs\\contracts\\SampleNFTContract.sol",
  "compiler": {
    "name": "solc",
    "version": "0.8.7+commit.e28d00a7.Emscripten.clang"
  },
  "schemaVersion": "3.4.3",
  "updatedAt": "2021-09-18T14:20:35.135Z",
  "devdoc": {
    "kind": "dev",
    "methods": {},
    "version": 1
  },
  "userdoc": {
    "kind": "user",
    "methods": {},
    "version": 1
  }
}